S014000046496E616C5F70726F6A6563742E733337C0
S1130000001000208D030000252900002529000090
S113001025290000252900002529000025290000A4
S11300202529000025290000252900002529000094
S11300302529000025290000252900002529000084
S11300402529000025290000252900002529000074
S11300502529000025290000252900002529000064
S11300602529000025290000F51E0000252900008F
S11300702529000025290000252900002529000044
S11300802529000025290000252900002529000034
S1130090252900009D0700002529000025290000CE
S11300A02529000025290000252900002529000014
S11300B02529000025290000252900002529000004
S11300C025290000252900002529000025290000F4
S11300D025290000252900002529000025290000E4
S11300E025290000252900002529000025290000D4
S11300F025290000252900002529000025290000C4
S113010025290000252900002529000025290000B3
S113011025290000252900002529000025290000A3
S11301202529000025290000252900002529000093
S10701302529000079
S1130140013800D0FCE770470348044B834202D0D7
S1130150034B03B1184770479813002098130020ED
S113016000000000064B0749C91A891048BF013135
S1130170491003D0044B0BB101481847704700BF26
S113018098130020981300200000000010B5064CBE
S1130190237843B9FFF7D8FF044B13B10448AFF3F6
S11301A000800123237010BDFA120020000000001B
S11301B06431000008B5054B1BB105490548AFF390
S11301C00080BDE80840FFF7CDBF00BF000000007D
S11301D00010002064310000A3F5803A704700BF8E
S11301E0174B002B08BF134B9D46FFF7F5FF00216B
S11301F08B460F461348144A121A02F033FD0E4B75
S1130200002B00D098470D4B002B00D098470020BE
S1130210002104000D000D48002802D00C48AFF363
S1130220008002F0FDF92000290002F039FB02F001
S113023047F800BF000008000000000000000000B4
S11302400010002000100020041300200000000013
S11302500000000007B501A801F0DCFA9DF80530A4
S1130260012B27D11E4A936DDB0313D4536B23F464
S1130270FF0323F4FE4343F4BC1343F4A06353632A
S1130280136B23F4704343F440431363136B43F43D
S1130290E06313639DF8043063B94FF000531B68A7
S11302A0104B1B68104B1B68104B1B68104B1B68D2
S11302B0104B1B68104AD2F8803043F00303C2F895
S11302C0803002F0F5FB00F04DF802F0EFFB02F095
S11302D09EFB01F07FFB03B05DF804EB00F038B83F
S11302E000C00050004000200080002000C000201A
S11302F000000120004001200080005008B504489F
S113030002F08CFBBDE80840024800F0A3B900BF2E
S1130310043000000413002008B50122074B1A70B2
S11303200022074B1A700422064B1A701F22064B38
S11303301A7001F0B1FB054B186008BD8E13002044
S1130340FB1200208D1300208C13002018100020B5
S113035008B5034802F062FBBDE8084002F0AABAFF
S113036004300000014802F059BB00BF0430000013
S11303700348044A0449121A921002F0D4BA00BF86
S113038034010000340100000413002008B500F01B
S11303902FF8FFF7EDFF124B12498B4212D30020C6
S11303A0114B12498B4218D3FFF71AFF186850F803
S11303B02240586840F82240013298688242F5D3BE
S11303C00C33EAE70022F8E71C6844F82200013203
S11303D05C68A242F8D30833E4E70022F8E700BFE0
S11303E06C31000078310000783100007831000071
S11303F070B5124B124A134D9A60D3F8882005F554
S1130400005442F47002C3F888206FF0010222669F
S113041041F2FF7262660222C3F8D020BFF34F8F0D
S1130420BFF36F8F4FF44036032001F0FFFA03202F
S1130430E66001F0E1FA2E6170BD00BF00ED00E05E
S11304400000000000800044014B1868704700BFA2
S11304501C130020014B1860704700BF1C130020C0
S1130460084B1B6F03F00703022B04D0032B05D0AA
S1130470012B05D0FEE7044B18687047034BFBE7DC
S113048003487047008000501C13002024130020F0
S1130490002D310108B5FFF7E3FF054B1B6FC3F3D4
S11304A001330133B0FBF3F0024B186008BD00BF09
S11304B000800050181300200048704700B4C404A2
S11304C0014B1868704700BF24130020054B1860C7
S11304D0054B1B6F03F00703032B01D1FFF7DABFB2
S11304E0704700BF2413002000800050004870476C
S11304F0002D3101174B9868C0F304400C280AD82A
S1130500DFE800F00B0909090909072119091B1D76
S11305101F0011487047002070479B6803F0407328
S1130520B3F1807F11D0B3F1007F10D00B4A002BC0
S113053008BF104670470A4870470A4870470A487F
S113054070470A4870470A4870470A4870470A4883
S1130550704700BF0040015A405DC60000093D00DD
S1130560C0EA210180BA8C010048E801005A620205
S11305700024F40080841E0040420F00014B1868E0
S1130580704700BF2013002013B5002429480194AC
S113059002F044FA012304220321204600F0A8FFBC
S11305A0204602F02BFA0122234B0520C3F84424F1
S11305B001A902F02EFA002839D1204BD3F8F020FB
S11305C042F00102C3F8F020D3F8FC2042F080721C
S11305D0C3F8FC201A4AA3F55D431A60019B194A2B
S11305E003F5D52303F2FC43B3FBF2F3164A013BB4
S11305F013610223C2F8F0304FF48073C2F804335D
S11306004FF06043114AC3F8B02F114AC3F8802E4B
S1130610D3F8002E42F48072C3F8002EFF2283F830
S11306202020D3F8002E22F48072C3F8002E02B0EA
S113063010BD00BF0430000000D0035000ED00E006
S1130640FF030040F8590D00000004E055CEACC58E
S1130650090001002DE9F04F85B0044618B9AD2119
S1130660454802F074F92368444A934207D0444A47
S113067093427AD1434802F0D1F9012503E042487C
S113068002F0CCF9002501230A22A179207900F097
S11306902FFF01230A22E179607900F029FF4FF04E
S11306A00A08DFF8F090DFF8F0A0384F267994F8C4
S11306B006B0032E05D81AF8063023FA0BF3DA072E
S11306C004D440F2FE31484602F041F930220123BD
S11306D002FB067642F2100203FA0BF3B3506420D5
S11306E001F032FC267994F806B0032E05D8284B85
S11306F09B5D23FA0BF3DB0704D440F22D414846FB
S113070002F025F93022012302FB067641F21002A1
S113071003FA0BF36420B35001F016FCB8F101089E
S1130720C4D1032307EB0512C2F89834A1792379C5
S11307304A3543EA0143C2F89C34E27963792D01D6
S113074043EA02437B5140F20113ADF80030E36801
S113075069460293A36820680193237C8DF80C30CA
S113076000F0B2FF05B0BDE8F08FD221024805B019
S1130770BDE8F04F02F0EBB8382E00000000015A3B
S113078000800650FC2F00000030000000C0035021
S1130790B82E00007D2E0000B82E00002DE9F04197
S11307A0174B1F6D5B6D1F4000D5FEE7012600252A
S11307B0144CDFF85880374218D02368C8F85060CA
S11307C0A3B1A168284601316268A1609847637BA0
S11307D0012B0BD150B90C4B03EB45131A7B60F37F
S11307E041021A731A7F60F341021A770135082D0A
S11307F04FEA460604F11004DDD1BDE8F08100BFE4
S1130800000004501C1100201C1000200020045083
S113081030B541F67133124A124DD469D3639368EB
S1130820A84204F4803423F4401306D893600E4A9B
S1130830D2F8183223F002030AE043F480139360E1
S11308400A4B9842F3D9084AD2F8183243F002030B
S1130850C2F8183214B10022014BDA6330BD00BF74
S113086000000350005A620200C0075080F0FA02F0
S113087008B5334B98424FD027D8324B984245D0D5
S113088017D8314B98423ED00AD838B12F4B9842F2
S113089039D041F2A6312E4802F059F8002034E054
S11308A02C4B98422FD02C4B9842F2D12B4B586EA4
S11308B02BE02B4B98422CD003F5371303F5D86368
S11308C09842E6D1254B986F1FE0264B98422FD0D3
S11308D00CD8254B984223D0244B984224D0244B47
S11308E09842D6D11D4BD3F884000EE0214B984298
S11308F022D003F5740303F510539842C9D1174B62
S1130900D3F8980001E0154B986D08BD134B186F90
S1130910FBE7124B586FF8E7104BD3F88000F4E76D
S11309200E4BD3F88800F0E70C4BD3F88C00ECE7BF
S11309300A4BD3F89000E8E7084BD3F89400E4E7B7
S113094080BA8C01405DC60080841E0040420F00C6
S1130950BC2E000000093D00C0CF6A000080E00FFB
S11309600024F400007E560380D54302006CDC02B0
S11309700048E8010090D00338B50F4B0546D3F882
S113098080300C4603F00303022B09D0032B0FD055
S11309900A4841F2FF1101F0DAFF0023184602E091
S11309A0FFF778FD0B2305B1286004B1236038BD3F
S11309B0FFF7A0FD0523F6E700800050BC2E0000E1
S11309C038B5164B0546D3F820010C4600F0070055
S11309D0042818D8DFE800F01F030B0F1300FFF7FB
S11309E033FD042305B1286004B1236038BDFFF74B
S11309F067FD0323F6E7FFF77DFD0523F2E7FFF725
S1130A0075FD0223EEE7064841F27C2101F09FFFC9
S1130A1000231846E6E70123E4E700BF0080005006
S1130A20BC2E000073B50024144B0194D3F880311C
S1130A30064603F00303022B0D460FD0032B12D0FE
S1130A40012B15D1214601A8FFF7BAFF0D240EB1E1
S1130A50019A326005B12C6002B070BDFFF74AFD07
S1130A6005240190F3E7FFF741FD02240190EEE72E
S1130A7041F2D131024801F06AFFE8E700800050FA
S1130A80BC2E000038B5104B0546D3F840310C4657
S1130A9003F00303022B0BD0032B0DD0012B0FD13A
S1130AA001F04FFF082305B1286004B1236038BD6D
S1130AB0FFF764FD0723F6E701F046FF0923F2E799
S1130AC001230020EFE700BF0080005038B5104B31
S1130AD00546D3F860310C4603F00303022B0BD018
S1130AE0032B0DD0012B0FD101F02BFF082305B1EF
S1130AF0286004B1236038BDFFF740FD0723F6E703
S1130B0001F022FF0923F2E701230020EFE700BFF1
S1130B100080005038B5164B0546D3F800020C4649
S1130B2000F00700042819D8DFE800F020030B0FB9
S1130B30130001F006FF082305B1286004B1236007
S1130B4038BDFFF71BFD0723F6E701F0FDFE09237F
S1130B50F2E7FFF79FFC0C23800AEDE7054841F21A
S1130B608F4101F0F4FE00231846E5E70123E3E793
S1130B7000800050BC2E000038B5164B0546D3F853
S1130B8008020C4600F00700042819D8DFE800F03A
S1130B9020030B0F130001F0D4FE082305B12860D5
S1130BA004B1236038BDFFF7E9FC0723F6E701F041
S1130BB0CBFE0923F2E7FFF76DFC0C23800AEDE777
S1130BC0054841F2C74101F0C2FE00231846E5E79B
S1130BD00123E3E700800050BC2E000038B5124B1F
S1130BE00546D3F840320C4603F00303022B0BD026
S1130BF0032B0DD0012B0FD101F0A3FE082305B167
S1130C00286004B1236038BDFFF7B8FC0723F6E77A
S1130C1001F09AFE0923F2E7044841F21A4101F077
S1130C2096FE00231846EAE700800050BC2E000020
S1130C3038B5104B0546D3F800310C4603F00303D6
S1130C40022B0BD0032B0DD0012B0FD1FFF738FC57
S1130C50032305B1286004B1236038BDFFF78EFC7F
S1130C600723F6E701F06BFE0623F2E701230020D9
S1130C70EFE700BF0080005010B503281BD005D853
S1130C80012805D0022810D000240CE00F28FBD145
S1130C900B4B1C6FC4F30134022C04D140F27D21B0
S1130CA0084801F054FE601C10BD054BD3F8904079
S1130CB0C4F30464F7E7024B1C6FC4F38024F2E727
S1130CC000800050BC2E00001FB50023019325288E
S1130CD074D8DFE800F013191C262B353A50555A06
S1130CE05F64696E73193F73735519262B26351982
S1130CF050266E3A3A3A3A2626265A5FFFF7B0FB58
S1130D000190019804B010BDFFF7C4FBF8E7FFF7AA
S1130D10A7FB04460220FFF7AFFFB4FBF0F40194F5
S1130D20EFE7FFF7B7FB04460320F4E7FFF7B2FB56
S1130D3004460320FFF7A0FFB4FBF0F46408EEE7D9
S1130D40002101A8FFF76EFEDBE7002101A8FFF7F1
S1130D5037FED6E702934FF0E0231B695B0705D506
S1130D60FFF798FB0290029B0193CAE703A902A82C
S1130D70FFF788FEF7E7002101A8FFF783FEC0E72D
S1130D80002101A8FFF7A2FEBBE7002101A8FFF79D
S1130D90C1FEB6E7002101A8FFF7EEFEB1E700218E
S1130DA001A8FFF745FFACE7002101A8FFF7E4FD28
S1130DB0A7E7002101A8FFF711FFA2E74FF46C7128
S1130DC0014801F0C4FD9CE7BC2E000008B50120D9
S1130DD0FFF77AFFBDE808400349884294BF012128
S1130DE00221032000F002B880F0FA0210B50328B3
S1130DF03DD00AD801280AD0022826D040F2163164
S1130E00BDE81040224801F0A2BD0F28F6D14C1EC7
S1130E10012C06D9042904D040F2C7211C4801F052
S1130E2096FD01F0BCFD01F0C2FD1A4A136F23F4D4
S1130E30405343EA04331367FFF72CFB0021FFF709
S1130E40E7FCBDE81040FFF7C1BF4C1E1F2C04D9BE
S1130E5040F20A310E4801F07AFD0E4AD2F8903081
S1130E6023F0F85343EA0463C2F8903010BD4C1EDB
S1130E70012C04D94FF44471054801F068FD054A7A
S1130E80136F23F4806343EA84231367EEE700BF00
S1130E90BC2E0000008000501FB5002301932528BC
S1130EA06FD8DFE800F0136E6E6E6E2D354B505523
S1130EB05A5F64696E6E3A6E6E506E6E6E6E2D6E13
S1130EC04B6E69353535356E6E6E555A2E4B1B6F2C
S1130ED003F00703013B032B0CD8DFE803F00902FE
S1130EE00507042301930FE00323FBE70623F9E737
S1130EF00223F7E740F2CA41244801F028FD03E049
S1130F00002001A9FFF78EFD019805B05DF804FBF0
S1130F10002001A9FFF754FDF6E702934FF0E02308
S1130F201B695B0705D5FFF7B5FA0B230393039BF6
S1130F30D8E703A902A8FFF7A5FDF8E7002001A957
S1130F40FFF7A0FDE0E7002001A9FFF7BFFDDBE705
S1130F50002001A9FFF7DEFDD6E7002001A9FFF775
S1130F600BFED1E7002001A9FFF762FECCE70020C9
S1130F7001A9FFF701FDC7E7002001A9FFF72EFE35
S1130F80C2E740F27D51B7E700800050BC2E00005C
S1130F90024A536A23F001035362704700C00750AA
S1130FA070B50546FFF764FC431E0333044604D9B9
S1130FB040F6CF11284801F0CAFC284B5A68012A90
S1130FC004D127494A609A699207FCD10020FFF7AF
S1130FD063FF042803D101F0E2FC01F0E8FC214A9C
S1130FE024F04073954228D01F4A954228D01F4CC4
S1130FF0E26812F0060FFBD1A668A360A268534012
S113100013F4F81F1FD12846FFF724FA0020FFF736
S113101043FF04281ED1FFF73DFA8542044604D25B
S113102040F628210C4801F092FC20460021FFF7ED
S1131030EFFBBDE87040FFF7C9BE43F00073D6E78D
S113104043F08073D3E740F61721034801F07FFC97
S1131050A660DBE770BD00BFBC2E000000C00150DD
S113106000E0015040420F0080841E000000015047
S1131070F8B5036804460F2B04D940F67731694864
S113108001F065FC63680F2B04D940F67A3165489A
S113109001F05DFCA3680F2B04D940F67D31614853
S11310A001F055FC237B0F2B04D94FF438615D48C4
S11310B001F04DFC637B0F2B04D940F68331594872
S11310C001F045FCA37B3F2B04D940F686315548FB
S11310D001F03DFCE37B3F2B04D940F689315148B4
S11310E001F035FC2369032B04D940F68C314D48BB
S11310F001F02DFC6369032B04D940F68F31494874
S113110001F025FCE369012B04D940F692314548EE
S113111001F01DFC0020FFF7BFFE032800F08180D2
S113112045F60E030221404AC2F880303F4B9962D3
S1131130012103F580539962936DD903FCD4D4E95A
S113114000131B0543EA0163E17B94F820500B4331
S1131150217BE77E43EA0143617B6D0143EA01336E
S1131160A17B43EA811313619169D4E904031B064B
S113117043EA806301F000410B43A17E94F823000D
S11311800B43217E43EA0143617E43EA01239361D9
S1131190136AE66923F00D0394F8221043EA8703E7
S11311A066BB1362966A94F8213045EA031326F06D
S11311B033052B4343F0010393621D4D1A4A936D8B
S11311C035EA0303FBD10225184B9D62936D5B0046
S11311D0FCD41369A56823F4700343EA055313612F
S11311E04FF00042114B9A6119B9022203F5805362
S11311F09A6278B901220F4B9A620BE0334343F0B1
S113120008031362936A23F0330303432B4343EA33
S11312104103936294F824301BB1034B064AC3F88C
S11312208020F8BDBC2E000000C0005000D000504B
S11312300300014000E00050F1A7FFFF014B93F9C8
S113124000007047FC12002010B543680446072BC9
S113125004D940F6D351274801F079FBA368032B46
S113126004D940F6D551234801F071FB2378032BB0
S113127004D940F6D7511F4801F069FB94F90130B5
S1131280002B04DA40F6D9511A4801F060FB4FF400
S1131290D1510220184A6378516218494F2B486093
S11312A04FF0010028BF4F2301F5805148601169B8
S11312B0C903FCD4217843EA01235361D4E901131F
S11312C01B0143EA0123617B0B43217B43EA410376
S11312D09360E37BA17B1B0143EA4113617C0B43D5
S11312E0217C43EA41035360A37C13B16FF4D153CF
S11312F0536210BDBC2E00000000025000100250CA
S1131300014B1880704700BF8A130020014B1880DE
S1131310704700BF8813002010B5454B044698421F
S113132065D03BD8A3F5B703A3F5586398425AD0C8
S11313302DD8404B98424AD013D8002863D041F2AC
S1131340C9113D4801F003FB40F673713A4801F0BE
S1131350FEFA384B9C4269D0384B9C4258D100234A
S113136032E0364B984226D0354B9842E7D1354B84
S1131370D3F8A040621E033224F0407404D940F62E
S113138073712D4801F0E3FA2F4A946010BD2F4B7E
S11313909842D4D12B4BD3F8BC40EBE72C4B98426A
S11313A029D02C4B98422AD02B4B9842C7D1254B9D
S11313B0D3F8C840DEE7234BD3F8A040621E0332C3
S11313C024F040742CD8234643F08074DCE71D4B92
S11313D0D3F8A040621E033224F040741AD8234686
S11313E043F00074D0E7174BD3F8B840C2E7154B6D
S11313F0D3F8C040BEE7134BD3F8CC40BAE7114B47
S1131400D3F8D040B6E740F673710B4801F09FFA69
S11314100024B9E740F67371074801F098FADEE753
S113142040F67371044801F092FACCE70023D7E741
S1131430C0EA210140420F00BC2E000080841E003F
S113144000093D000080E00F0040015A0024F40030
S11314500048E801005A620280BA8C01034A01790B
S1131460D36E23F030030B43D36670470040005023
S113147038B5032804460D4604D80B4B1B5CCB40FF
S1131480DB0704D440F22D41084801F060FA302211
S11314900123544341F2100204F1A044AB4004F58B
S11314A07034A35038BD00BF312F00007D2E0000E2
S11314B038B5032804460D4604D80B4B1B5CCB40BF
S11314C0DB0704D440F2FE31084801F040FA302230
S11314D00123544342F2100204F1A044AB4004F54A
S11314E07034A35038BD00BF312F00007D2E0000A2
S11314F0F8B5032804460D4616461F4604D81C4B6F
S11315001B5CCB40DB0704D44FF4B071194801F0E5
S11315101EFA26B129462046CFB1FFF7A9FF04EBF6
S11315204403072D4FF00F014FEA031312D8A8000C
S113153006FA00F281401048184401F050FAAEB99E
S11315402946204677B1BDE8F840FFF791BFFFF781
S1131550AFFFE4E7A5F10800800006FA00F281403D
S11315600648E9E7BDE8F840FFF7A2BFF8BD00BFB1
S1131570312F0000F62E000004C003500CC00350AD
S1131580F8B506460F461546002A6AD003F0030450
S1131590836823F44073836001F0DAF9B26882EA65
S11315A0042303F440735340B36001F0D5F937B911
S11315B02D4B9E420DD11620FFF786FB0746B368DC
S11315C09A0717D5012C1BD0022C27D064B9274BBE
S11315D017E0274B9E4201D11720EDE740F22F116F
S11315E0244801F0B4F9B3684FF4B271214801F012
S11315F0AEF908E0012C13D0022CE7D11E4B00E019
S11316001E4B9F42F0D91E4B1B5D6B430AD140F227
S11316107511BDE8F840174801F099B9194BF0E786
S1131620194BEEE7A3EBC504013C3C44B4FBF3F4D3
S1131630013C0CD540F27B110E4801F088F94FF4BF
S1131640BE710C4801F083F9B368B461F8BDB4F518
S1131650007FF4D2B3689B07F7D5002C08BF0124A0
S1131660F3E740F21511D4E70000015A80841E000C
S113167000800650352F0000002D3101404B4C00F6
S11316806F2F0000809FD5004054890038B50B4B64
S1131690044698420D4607D0094B984204D040F2C4
S11316A09511084801F053F9043425B104F5805428
S11316B00123236038BD04F50054F9E70000015A02
S11316C000800650352F000038B5154B044698426B
S11316D00D4607D0134B984204D04FF4D5711248ED
S11316E001F035F90023114A236404F50053DA6349
S11316F06A7804F108037AB903F5805302221A6068
S11317002046D5E901122B7BFFF73AFF20462978C2
S1131710BDE83840FFF7BABF03F50053EEE700BF5A
S11317200000015A00800650352F0000FFFF1F0003
S113173038B5022805460C4603D94C210C4801F063
S113174006F9E378627821785B0143EA820322791F
S11317500B4343EA02130C226A4302F1B0421363BF
S1131760012902BFA278034B43F8252038BD00BFEE
S1131770732F0000D080035008B54FF0B0435A686F
S11317806AB958B15B680BB101F039F901210D4B0D
S1131790596001F034F94FF0B043D96008BD5B687B
S11317A00BB101F02CF90028F0D101F028F94FF029
S11317B0B0430222DA6001F022F90122024B5A609E
S11317C0ECE700BF001000580020005810B54FF09F
S11317D0B0414B680BB101F012F901220B4BC478F4
S11317E05A608378934043EA84034478234304791A
S11317F043EA0413447943EAC4038B60044B5A60FC
S11318000378C3F10203CB6010BD00BF0020005871
S113181000100058054B5B69C3F38512827003F016
S11318203F021B0B42700370704700BF00C007509B
S113183030B58BB06D46604C0FCC0FC554F8043BEB
S113184068462B604FF07E6393F89C306D46FF2B07
S113185008BF25238DF80130FFF7F6FC3220FFF78F
S11318604FFD0FCC0FC50FCC0FC594E8030085E8DE
S11318700300524BD3F84C21110340F18380A3F5AC
S1131880FE431C884FF6FF739C4208BF81248DF8E9
S11318901940FFF7D3FC044484F3080448488DF846
S11318A01840FEF713FE6846FFF7E2FB3220FFF70D
S11318B02DFD444C4448FFF773FB4448FFF72CFDCF
S11318C001F079F8236F002023F0070343F00203AB
S11318D02367236F23F4505343F48063236701F099
S11318E071F83B4BD3F8FC20D2014FD4D4F88030AC
S11318F023F0030343F00203C4F88030314BD3F8E0
S1131900202122F0070242F00102C3F82021D3F87B
S1131910802122F0030242F00102C3F88021D3F8AF
S1131920402122F0030242F00202C3F84021D3F81E
S1131930602122F0030242F00202C3F86021D3F8CE
S1131940402222F0030242F00202C3F84022D3F8FC
S1131950002222F0070242F00202C3F80022D3F868
S1131960082222F0070242F00202C3F80822FFF71D
S11319700FFB4FF0E0220020136963F004031361AE
S11319800BB030BDD3F85041E4B280E7D3F8FC206B
S113199022F08072C3F8FC20D4F8802022F00302E5
S11319A042F00202C4F88020D3F8FC2042F0807296
S11319B0C3F8FC20A2E700BFB02F00000080E00FB6
S11319C000F049020080005000B4C404C0EA2101C0
S11319D000ED00E013B50024064A6846536F43F057
S11319E00103536700948DF80440FFF737FD204648
S11319F002B010BD0040005010B53D28044608D880
S1131A0001236109074A04F01F04A34042F821306E
S1131A1010BD4FF48A71044800F099FF002CF7DBE5
S1131A20EEE700BF00E100E008300000002808DB1A
S1131A3001224309034900F01F008240603341F84A
S1131A402320704700E100E038B500F110034D2B6E
S1131A5004460D4604D94FF4E1710D4800F077FFB8
S1131A601E2D04D940F2C311094800F070FF002C68
S1131A70ACBF04F16044074B4FEA0515EDB2ABBFB0
S1131A8004F5614404F00F0484F800531D5538BD77
S1131A900830000014ED00E010B500F059FF034BCE
S1131AA01C6800F059FF204610BD00BF9C110020A7
S1131AB010B50020144601F006F8022804D018B12D
S1131AC0C321024800F043FF204610BD6C300000E3
S1131AD0034B0222186800238068194600F0A6BC54
S1131AE0381300200346054A0549106803448B4215
S1131AF08CBF4FF0FF301360704700BF28130020E5
S1131B000080012030B50E4C416123688BB9206000
S1131B1083600DE0891A9A681D4641616AB11346D3
S1131B205A698A42F6D935B1A860521A83605A615B
S1131B3030BD0025F4E72060F7E798608260F7E79E
S1131B40A811002038B501F001F80025084B094C14
S1131B501A682368C31A2AB123B15169994203D37D
S1131B60C91A5161206038BD55615B1A9268F2E769
S1131B70A8110020A411002038B5134D2B685B690F
S1131B8093B1124A022014681C4400F0E6FF204678
S1131B9000F05EF900230E492A680B70D088800794
S1131BA009D501230B7038BD022000F0D6FF0220B6
S1131BB000F098F9EEE79268002AF4D050690344E3
S1131BC0012BEBD9EFE700BFA8110020A4110020DE
S1131BD0FE12002000220C490B687BB183420AD11B
S1131BE083687AB1936083681BB15A6941690A4476
S1131BF05A61002070471A469B68EEE70028EFD030
S1131C00022070470B60EEE7A811002070B500F0C9
S1131C10A6FE144E05463478FCB9134B1C60134BD6
S1131C201C60134B1C8000F0D3F8012000F095FFDA
S1131C3000F07AF90F4B0246186020B9284600F0EC
S1131C4094FE232070BD234640F2E7310A4800F099
S1131C50A7F90A4B186001233370284600F085FE6B
S1131C600020EFE7FF120020A8110020A41100209B
S1131C70F8120020AC11002018FCFFFFA011002076
S1131C802DE9F047C20704460BD54D4A13880133AA
S1131C909BB21380FFF756FF4A4B1B680BB1FFF74B
S1131CA06BFFA30740F18A8000F059FE4FF0000952
S1131CB005464E46FFF746FFC846424F3C680CB106
S1131CC063698BB10022404B012E1A7003D119F0C5
S1131CD0020F18BF1E70002C6CD0FFF74DFF284672
S1131CE0BDE8F04700F041BE23465A693AB91A7973
S1131CF02179914288BF1C469B68002BF5D1284668
S1131D0000F033FE2569DDB100F020FFA269A0EBED
S1131D1002094FEAE9734D4578EB030311DA2369AD
S1131D201344A361E368B4F80690013613B1204666
S1131D302168984700F013FE0546FFF703FFBDE74F
S1131D40A94600F00CFE82462046FFF743FF5046AA
S1131D5000F00BFE2369002BE4D0B5EB09054FEA34
S1131D60E97363EB4303002B04DA40F23451174860
S1131D7000F0EDFDA38B33B1E28B13449BB2B3F5BA
S1131D807A7F0FD2E38300F0EAFD8146294620469C
S1131D90FFF7B8FEA369226948461344A36100F023
S1131DA0E4FDBFE7A3F57A73E383A369013D013B37
S1131DB0A361E8E7022000F07DF890E7BDE8F08732
S1131DC0F8120020A8110020FD120020C5300000E8
S1131DD01FB500241B4B18689A880290D3F806009C
S1131DE09B7A00901848ADF80C208DF8043000F070
S1131DF015FE8DF8084000F0A7FE8DF80C0002A82F
S1131E00FFF7E4FC694601208DF80040FFF790FCE1
S1131E104FF0B0431F219A6922F01F029A610B4AC6
S1131E2051619A6A12F00802FBD11A620120FFF78D
S1131E30A3FC0A20FFF7FAFD0A20FFF7DDFD04B03A
S1131E4010BD00BF13310000F82F0000002000581F
S1131E5010B5044600F07CFD4FF0B042936A1907B8
S1131E60FCD4136A116C5269120704D4CA1A032AE7
S1131E7001D88B420ED1E21A022A98BFDC1CB4F1BD
S1131E80FF3F38BF013C4FF0B0431C649A6942F0F5
S1131E9008029A6100F060FD054A13783BB14FF0E7
S1131EA0B041CB6B43F00203CB630023137010BD2E
S1131EB08F130020820700F001030AD50121084A8C
S1131EC043F0080311704FF0B041CA6B22F00302D3
S1131ED0CA634FF0B0418A6922EA03038B617047F9
S1131EE08F130020830742BF0822014B5A617047B9
S1131EF00010005810B500F032FD4FF0B043044616
S1131F005B691A07074A03F0010003F00D0348BF99
S1131F1040F002005361FFF7B3FE2046BDE81040D5
S1131F2000F023BD0020005807B5064B01A918791D
S1131F3000F06FFD00F008FE019B23FA00F003B0EF
S1131F405DF804FBEC2F000010B50446FEF7A2FA7E
S1131F504FF47A729042B0FBF2F105D23621BDE81B
S1131F6010400C4800F0F3BC0B4BB3FBF1F30B49EE
S1131F70884201D93C21F2E702FB04F0B0FBF3F004
S1131F80022806D9BDE810400323B0FBF3F0FEF7A6
S1131F90D7B810BD1E31000040420F00E7CD9A3B78
S1131FA053B94AB9002908BF00281CBF4FF0FF31BC
S1131FB04FF0FF3000F082B9ADF1080C6DE904CEAA
S1131FC000F006F8DDF804E0DDE9022304B0704710
S1131FD02DE9F04F099D0C46002B4DD18A420F4646
S1131FE084469646B2FA82F360D94BB102FA03FEF4
S1131FF0C3F120029F4000FA03FC20FA02F21743C7
S11320004FEA1E461FFA8EF44FEA1C42B7FBF6F164
S113201006FB117701FB04F042EA0742904208D91B
S11320201EEB020201F1FF3702D2904200F231812D
S11320303946121A1FFA8CFCB2FBF6F006FB10228A
S113204000FB04F44CEA024C644508D91EEB0C0C6A
S113205000F1FF3202D2644500F21E81104640EACC
S11320600140ACEB040C002125B12CFA03F300224F
S1132070C5E90032BDE8F08F8B4205D90DB1C5E941
S1132080000100210846F5E7B3FA83F100294DD198
S1132090A342C0F0F380904280F0F08006462346CD
S11320A00846002DE6D0C5E90063E3E7002B40F0C5
S11320B0A3808A1A4FEA1E471FFA8EF60121B2FB4B
S11320C0F7F407FB14204FEA1C4242EA004206FBE5
S11320D004F090420FD91EEB020204F1FF382CBF2A
S11320E04FF001094FF00009904203D9B9F1000FF4
S11320F000F0CC804446121A1FFA8CFCB2FBF7F0B5
S113210007FB102200FB06F64CEA024C664508D990
S11321101EEB0C0C00F1FF3202D2664500F2B380D4
S11321201046ACEB060C40EA04409DE7C1F12006E2
S11321308B4004FA01FE22FA06F720FA06FCF4406A
S11321408A401F434EEA0C0300FA01FE4FEA174887
S11321504FEA13491FFA87FCB4FBF8F008FB10445C
S113216049EA044400FB0CF9A1450ED93C1900F1DD
S1132170FF3A2CBF4FF0010B4FF0000BA14503D9E0
S1132180BBF1000F00F08B805046A4EB09041FFA4A
S113219083F9B4FBF8F308FB134403FB0CFC49EA92
S11321A00444A44506D93C1903F1FF3801D2A445DF
S11321B07BD8434643EA0040A4EB0C04A0FB0298FE
S11321C04445CC46434602D306D1CE4504D2013819
S11321D0B9EB020C68EB0703002D6CD0BEEB0C02CC
S11321E064EB030422FA01F304FA06F6CC4000215E
S11321F01E43C5E900643DE702FA03FEC3F1200172
S113220004FA03F200FA03FCCC404FEA1E4720FA1A
S113221001F11FFA8EF6B4FBF7F00A4307FB1044F2
S1132220110C41EA044100FB06F48C420ED91EEB6A
S1132230010100F1FF382CBF4FF001094FF00009F4
S11322408C4202D9B9F1000F2CD04046091B92B23E
S1132250B1FBF7F407FB141142EA014204FB06F157
S1132260914207D91EEB020204F1FF3801D29142D8
S11322701ED84446521A44EA004120E7861A64EB09
S1132280030301200DE7F44402384AE7023C724498
S113229031E702397244CCE6F4440238DFE602380E
S11322A03C4472E702387144D0E7023B3C4481E786
S11322B0023C7244DEE72946DCE600BF704700BFFB
S11322C008B5064B044613B10021AFF30080044B5C
S11322D01B6803B19847204600F020FC0000000072
S11322E0E8120020002310B504468360818119465A
S11322F04366C28108228361C0E90033C0E9043324
S11323005C3000F0AFFC0D4B246263620C4BA362A3
S11323100C4BE3620C4B23630C4B9C4206D003F141
S11323206802944202D0D0339C4205D104F1580093
S1132330BDE8104000F09EBC10BD00BFDF2B0000C4
S1132340012C0000392C00005D2C0000B01100208D
S1132350024A0349034800F024BC00BF2C130020A8
S1132360812D00003C13002041680C4B994210B5AC
S1132370044601D000F004FDA168094B994202D043
S1132380204600F0FDFCE168064B994204D020464B
S1132390BDE8104000F0F4BC10BD00BFB011002037
S11323A0181200208012002010B50B4B04210B4C96
S11323B00B4A20461A600022FFF794FF04F16800DC
S11323C001220921FFF78EFF04F1D000022212211D
S11323D0BDE81040FFF786BFE8120020B0110020CE
S11323E051230000014800F046BC00BF0113002047
S11323F0014800F041BC00BF0113002010B50446A1
S1132400FFF7F0FF236A1BB1BDE81040FFF7F0BFF0
S1132410044B2362044B1B68002BF5D1FFF7C4FF68
S1132420F2E700BF69230000E81200202DE9F7431A
S11324301D46574B04460E461F68904627B13B6A1B
S113244013B93846FFF7DAFFB8F1020F06D0B8F136
S1132450010F00F29980002DC0F29680636ED907B7
S113246005D4A3899A0502D4A06D00F004FC21468A
S1132470384600F085FC616B41B104F14403994294
S113248002D0384600F0F0F8002363630023A36110
S11324906360A3891B0603D52169384600F0E4F87C
S11324A0A389B8F1020F23F44A6323F00303A38141
S11324B060D001AB6A462146384600F089FCA38906
S11324C01843A0812DBB009D284600F017F906464D
S11324D0002851D1DDF80090A9453FD14FF0FF35D8
S11324E0B4F90C3043F00202A2810022A26004F18C
S11324F047022260226101226261626ED60704D41F
S1132500980502D4A06D00F0B7FB284603B0BDE8DF
S1132510F083002ED8D03B6A13B93846FFF76EFF1C
S1132520B8F1010F266002BFA38943F00103A38120
S1132530B4F90C3013F00802C4E904651ED0D907BD
S113254045BF00226D42A560A26048BFA561626ECE
S1132550D20701D49B0513D50025D6E7484600F0E1
S1132560CDF806460028B9D0A3894D4643F0800330
S1132570A381D0E70025B3E7A946F5E7A260E6E723
S1132580A06D00F079FBE7E74FF0FF35BDE700BF32
S11325903813002038B50023054D044608462B6047
S11325A000F0BAFA431C02D12B6803B1236038BD92
S11325B0EC12002038B50446064D084611460022A8
S11325C02A601A4600F0B0FA431C02D12B6803B10A
S11325D0236038BDEC12002038B50446064D084689
S11325E0114600222A601A4600F0A0FA431C02D1C8
S11325F02B6803B1236038BDEC12002038B50446C3
S1132600064D0846114600222A601A46FFF750FA82
S1132610431C02D12B6803B1236038BDEC120020A7
S113262070B50D4D00260D4C641BA410A64209D1B3
S11326300B4D00260B4C00F0F3FB641BA410A642C8
S113264005D170BD55F8043B01369847EEE755F8BF
S1132650043B01369847F2E79013002090130020C2
S1132660901300209413002038B50546002941D06A
S113267051F8043C0C1F002BB8BFE41800F0E0F83C
S11326801D4A136833B9636014602846BDE83840B6
S113269000F0DCB8A34208D9206821188B4201BF9E
S11326A019685B6809182160EDE71A465B680BB18D
S11326B0A342FAD911685018A0420BD120680144F2
S11326C0501811608342E0D118685B680844536075
S11326D01060DAE702D90C232B60D6E720682118B2
S11326E08B4202BF19685B680918636008BF2160E8
S11326F05460CAE738BD00BFF4120020024B014603
S1132700186800F025B800BF3813002070B50F4ECC
S11327100C460546316811B900F0B0F83060214626
S1132720284600F0ABF8431C03D14FF0FF34204699
S113273070BDC41C24F00304A042F8D0211A28461A
S113274000F09CF80130F2D1EFE700BFF012002056
S11327502DE9F041CD1C064625F0030508350C2D66
S113276038BF0C25002D01DBA94204D90C233360AA
S11327700020BDE8F081314F00F062F83B681C4650
S113278044BB29463046FFF7C1FF431C044650D1E1
S11327903C682146002941D1002C44D023683046AE
S11327A004EB030800F06AF880453CD12168304608
S11327B06D1A2946FFF7AAFF013034D023682B4451
S11327C023603B68002B36D05A68A24229D10022EC
S11327D05A600EE02268521B1DD40B2A16D96119C7
S11327E0A342256018BF5960636808BF396062510D
S11327F04B60304600F02AF804F10B00231D20F052
S11328000700C21AB5D01B1AA350B2E7A3426268EC
S1132810DED13A60EDE723466468B1E70C464968C7
S1132820B8E71346CEE70C233046336000F00EF8C9
S11328309EE70560DDE75B60FFDE00BFF412002069
S1132840014800F018BA00BF00130020014800F04E
S113285013BA00BF0013002038B50023064D044608
S1132860084611462B6000F05AF9431C02D12B682C
S113287003B1236038BD00BFEC12002038B500233B
S1132880054D044608462B60FFF72CF9431C02D182
S11328902B6803B1236038BDEC12002070477047E9
S11328A008B500F066F9FFF7F9FF00F06FF9FFF7DC
S11328B0F6FFFAE700F024B808B5FDF765FEFDF76A
S11328C01DFDBDE8084000F024B808B500F016F876
S11328D0FFF79CF9BDE80840FFF7FAB87047FDF729
S11328E01BBD704770477047704708B50422012329
S11328F011460320FEF7FCFD002008BDFFF7F5BFDD
S113290008B50422002311460320FEF7F1FD002040
S113291008BD08B5082000F02BF8BDE808400820E1
S113292000F031B8FEE74AB110B5002350F8234057
S113293041F8234001339342F8D110BD7047002081
S113294070474FF4004070474FF47A707047FEE7C9
S1132950EFF3108072B6704700B962B67047EFF3B8
S11329601180302383F31188704780F311887047F6
S11329704FF060420123D2F8001E83400B43002035
S1132980C2F8003E70474FF060410122D1F8003E8A
S1132990824023EA02030020C1F8003E704708B5D4
S11329A0FDF78AFDBDE808400021FDF731BF022193
S11329B00320FEF71BBA08B5FFF7F1FFBDE8084096
S11329C0FFF7F5BF10B50446FDF764FD0021FDF7E0
S11329D01FFF1CB1BDE81040FEF7F8B910BD70B57B
S11329E0054614460E46FFF7B3FF2B685C4034409F
S11329F05C402C60BDE87040FFF7AEBF70474FF0FD
S1132A00B0435A6812B19A6A002AFAD1704700F0AA
S1132A1008B809B100F007B822207047012100F07E
S1132A2043B80020704770B506460D46FFF797FF80
S1132A3004461C2E35D8DFE806F00F18341C1E207F
S1132A403422243434342628342A2C2E303434349A
S1132A503434343434343200FDF702FD0026286067
S1132A602046FFF782FF304670BD0120FEF72CF9A7
S1132A70F4E70320FAE70420F8E70C20F6E7022045
S1132A80F4E70620F2E70720F0E70820EEE7052048
S1132A90ECE70920EAE70A20E8E70D20E6E7102042
S1132AA0E4E700202126DAE700207047FEF7C0BEE5
S1132AB010B56FF00404204605210134FEF7C4FF6D
S1132AC03D2CF8D110BD70B50C46154610B9FEF773
S1132AD0E3FF38B143682BB12A462146BDE8704074
S1132AE000681847232070BDF7B50D4616461C46EE
S1132AF048B103B901AC87685FB123463246294621
S1132B000068B84706E0FEF7C7FF04B901AC002827
S1132B10F1D1232003B0F0BD00207047FEE74FF44D
S1132B20005300204B6070470020704707B5002019
S1132B3001AB0190FFF7D8FF0198002808BF4FF0C0
S1132B40FF3003B05DF804FB002070474FF0B04342
S1132B509A6A1207FCD4186A704782074FF0B04291
S1132B6000F00103916948BF43F008030B439361EC
S1132B70704708B5FDF76EFBFFF79EFEFFF7A5FE55
S1132B80FFF7ACFEBDE80840FFF7A9BE08B5FFF7A4
S1132B90A8FEFFF7A7FEFFF7A6FEBDE80840FFF773
S1132BA0A3BE2DE9F8430746884614460026D4E917
S1132BB00195B9F1010905D52468002CF7D13046F7
S1132BC0BDE8F883AB89012B07D9B5F90E30013381
S1132BD003D029463846C04706436835E9E710B5AF
S1132BE00C46B1F90E10FFF7F7FC0028ABBF636D7C
S1132BF0A3891B1823F48053ACBF6365A38110BD64
S1132C002DE9F0411F468B8905460C46DB05164627
S1132C1005D502230022B1F90E10FFF7CBFCA389DE
S1132C203246B4F90E10284623F48053A3813B4660
S1132C30BDE8F041FFF7E2BC10B50C46B1F90E1047
S1132C40FFF7B8FC431CA38915BF606523F48053C8
S1132C5043F48053A38118BFA38110BDB1F90E10B2
S1132C60FFF798BC02440346934200D1704703F82F
S1132C70011BF9E7704770477047B1F90C202DE943
S1132C80F041170705460C4656D44B68002B02DC6E
S1132C900B6C002B3DDDE66A002E3AD0002312F4C3
S1132CA080522F68216A2B6025D0626DA389580752
S1132CB005D56368D21A636B0BB1236CD21A216AEF
S1132CC00023E66A2846B047411C24D000236360F1
S1132CD023692360A389DA0400D56065616B2F60E2
S1132CE0B9B104F14403994202D02846FFF7BCFC71
S1132CF0002363630DE001232846B047461C0246C7
S1132D00D4D12B68002BD1D01D2B01D0162B2AD166
S1132D102F6000202EE02A68B4F90C3042B11D2A3D
S1132D2001D0162A21D10023636023692360D5E7EB
S1132D30626022692260CEE70F69002FE9D0930711
S1132D400E680F600CBF4B690023A6EB07088B606D
S1132D50B8F1000FDDDD43463A46216A2846A66AEB
S1132D60B047002808DCB4F90C3043F040034FF0BE
S1132D70FF30A381BDE8F0810744A8EB0008E7E732
S1132D8038B50B6905460C4613B90025284638BDED
S1132D9018B1036A0BB9FFF731FBB4F90C30002BFF
S1132DA0F3D0626ED00704D4990502D4A06DFFF766
S1132DB062FF28462146FFF760FF636E0546DA0787
S1132DC0E4D4A3899B05E1D4A06DFFF755FFDDE7AB
S1132DD070B50C46B1F90E1096B0154600291E4682
S1132DE00CDAA389002113F0800F14BF40234FF4A1
S1132DF08063002031602B6016B070BD6A46FFF717
S1132E002BFD0028EDDB019901F47041A1F500537D
S1132E10594259414FF48063EBE700000000000081
S1132E20F8B500BFF8BC08BC9E467047F8B500BFB3
S1132E30F8BC08BC9E467047443A2F6765636B6FC5
S1132E405F73646B2F73696D706C69636974795F08
S1132E5073646B5F352F706C6174666F726D2F6471
S1132E6072697665722F69326373706D2F73726342
S1132E702F736C5F69326373706D2E6300643A5C08
S1132E806765636B6F5F73646B5C73696D706C69AA
S1132E90636974795F73646B5F355C706C617466CD
S1132EA06F726D5C656D6C69625C696E635C656DA7
S1132EB05F6770696F2E68007F033F1F443A2F6776
S1132EC065636B6F5F73646B2F73696D706C69639B
S1132ED06974795F73646B5F352F706C6174666FAE
S1132EE0726D2F656D6C69622F7372632F656D5FF0
S1132EF0636D752E6300443A2F6765636B6F5F7370
S1132F00646B2F73696D706C69636974795F736442
S1132F106B5F352F706C6174666F726D2F656D6CAD
S1132F2069622F7372632F656D5F6770696F2E63BB
S1132F30007F033F1F443A2F6765636B6F5F7364C1
S1132F406B2F73696D706C69636974795F73646BFB
S1132F505F352F706C6174666F726D2F656D6C696F
S1132F60622F7372632F656D5F6932632E6300088D
S1132F70091108443A2F6765636B6F5F73646B2FA5
S1132F8073696D706C69636974795F73646B5F35C1
S1132F902F706C6174666F726D2F656D6C69622F32
S1132FA07372632F656D5F727463632E6300000038
S1132FB001260000040000000000000000010000E1
S1132FC0000000000B0000000B00000002000000E5
S1132FD00000202000000000030000008C8C3C0056
S1132FE00000000000000000000000000000005885
S1132FF01200000000000000FFFFFFFFFFFFFFFFC3
S1133000FFFFFFFFFFFFFFFF443A2F6765636B6F0E
S11330105F73646B2F73696D706C69636974795F36
S113302073646B5F352F706C6174666F726D2F7390
S11330306572766963652F696E74657272757074F2
S11330405F6D616E616765722F7372632F736C5F5E
S1133050696E746572727570745F6D616E616765B7
S1133060725F636F727465786D2E6300443A2F67E4
S113307065636B6F5F73646B2F73696D706C6963E9
S11330806974795F73646B5F352F706C6174666FFC
S1133090726D2F736572766963652F696F737472CD
S11330A065616D2F7372632F736C5F696F737472D4
S11330B065616D5F72657461726765745F73746472
S11330C0696F2E6300443A2F6765636B6F5F7364A7
S11330D06B2F73696D706C69636974795F73646B6A
S11330E05F352F706C6174666F726D2F73657276C5
S11330F06963652F736C65657074696D65722F7390
S113310072632F736C5F736C65657074696D65723F
S11331102E63000100000005000200000300443A91
S11331202F6765636B6F5F73646B2F73696D706C6E
S113313069636974795F73646B5F352F706C617454
S1133140666F726D2F736572766963652F7564653A
S11331506C61792F7372632F736C5F7564656C6136
S1073160792E63005D
S10B316474D0FF7F010000009C
S10F316C7831000004130020250000004E
S1133178008006500202050400000000A086010039
S113318800000000C0EA2101C0EA2101008000001B
S113319800F049029813002000000000030000001A
S11331A8B01100203C13002000000000B0110020E2
S11331B81812002080120020000000000000000007
S11331C800000000000000000000000000000000F3
S11331D800000000000000000000000000000000E3
S11331E800000000000000000000000000000000D3
S11331F800000000FFFFFFFF1F040101B5010000EC
S10732088D01000030
S903038D6C
