S014000046496E616C5F70726F6A6563742E733337C0
S11300000010002025060000853E0000853E00000B
S1130010853E0000853E0000853E0000853E0000D0
S1130020853E0000853E0000853E0000853E0000C0
S1130030853E0000853E0000853E0000853E0000B0
S1130040853E0000853E0000853E0000853E0000A0
S1130050853E0000853E0000853E0000853E000090
S1130060853E0000853E000095280000853E000086
S1130070853E0000853E0000853E0000853E000070
S1130080853E0000853E0000853E0000853E000060
S1130090853E0000550A0000853E0000853E0000B4
S11300A0853E0000853E0000853E0000853E000040
S11300B0853E0000853E0000853E0000853E000030
S11300C0853E0000853E0000853E0000853E000020
S11300D0853E0000853E0000853E0000853E000010
S11300E0853E0000853E0000853E0000853E000000
S11300F0853E0000853E0000853E0000853E0000F0
S1130100853E0000853E0000853E0000853E0000DF
S1130110853E0000853E0000853E0000853E0000CF
S1130120853E0000853E0000853E0000853E0000BF
S1070130853E000004
S1130140013800D0FCE770470348044B834202D0D7
S1130150034B03B118477047C4130020C413002095
S113016000000000064B0749C91A891048BF013135
S1130170491003D0044B0BB101481847704700BF26
S1130180C4130020C41300200000000010B5064C66
S1130190237843B9FFF7D8FF044B13B10448AFF3F6
S11301A000800123237010BD1A13002000000000FA
S11301B0C04B000008B5054B1BB105490548AFF31A
S11301C00080BDE80840FFF7CDBF00BF000000007D
S11301D000100020C04B0000A3F5803A704700BF18
S11301E0174B002B08BF134B9D46FFF7F5FF00216B
S11301F08B460F461348144A121A04F011F80E4B9A
S1130200002B00D098470D4B002B00D098470020BE
S1130210002104000D000D48002802D00C48AFF363
S1130220008003F0BBF82000290003F09BFD02F0DE
S1130230D3FE00BF00000800000000000000000022
S113024000100020001000202413002000000000F3
S11302500000000010B598B0144B154C1B682360C7
S113026000F0C0F8134803F0A2FD204600F0F4F8B3
S11302701149024603A803F02BF803A803F097FDE5
S1130280642002F0B1F902AA01A9204600F024F981
S1130290019802F0B9FC02460B460BA8074903F08B
S11302A017F80BA803F083FD18B010BD401300200D
S11302B024130020B8470000CB470000D7470000B4
S11302C030B5C5B003A902A800F084F8C0B90298FB
S11302D002F09AFC044603980D4602F095FC22466F
S11302E0CDE900012B46084904A802F0F1FF04A857
S11302F003F05DFD4FF47A7002F076F945B030BD3D
S1130300024802F01FFFF5E7E0470000F74700004E
S113031007B501A801F05AFD9DF80530012B27D13E
S11303201E4A936DDB0313D4536B23F4FF0323F4AE
S1130330FE4343F4BC1343F4A0635363136B23F4ED
S1130340704343F440431363136B43F4E063136358
S11303509DF8043063B94FF000531B68104B1B68C1
S1130360104B1B68104B1B68104B1B68104B1B6811
S1130370104AD2F8803043F00303C2F8803003F00F
S11303804CFE00F03BF903F046FE03F0F5FD01F0EE
S113039061FF03B05DF804EB00F026B900C0005023
S11303A0004000200080002000C000200000012048
S11303B0004001200080005008B5044803F0E3FD2C
S11303C0BDE80840024800F091BA00BF2C4A000082
S11303D02C1300200A460146014800F07DB800BFF6
S11303E01810002030B589B0012304220521002013
S11303F001F0DAF9002301221846062101F0D4F9AC
S113040004220F4D01231146032001AC01F0CCF965
S11304100FCD0FC495E8070084E807004FF4A0222D
S1130420084B0948C3F8C4254FF4C022C3F8BC25BF
S1130430142201A9C3F8AC2501F0A8FD09B030BD10
S11304400448000000C003500080055001460148E4
S113045003F08DBD0080055013B50446002836D046
S11304600368A3B303F0D6FC10B1022002B010BDA0
S1130470BA23012220460DF102018DF8023003F067
S11304809FFC0028F1D1282002F0AEF8114B204641
S11304901A889B78ADF8042001A903228DF8063050
S11304A003F08EFC0028E0D10A2002F09DF801221E
S11304B020460DF1030103F098FC0028D5D19DF8E6
S11304C0030080F00800C0F3C0008000CEE70120E4
S11304D0CCE700BF20480000F0B585B00C461546B7
S11304E0064610B309B302B32C4B01A91A889B78B2
S11304F0ADF8042003228DF8063003F061FC10B13E
S1130500022005B0F0BD14270122304602A903F0F1
S11305106CFC18B99DF90830002B08DA052002F0AC
S113052063F8013FF0D10320EBE70120E9E706225D
S1130530304602A903F059FC0028E1D19DF80B10C4
S1130540BDF80C300A045BBA9BB202F470221A4361
S11305509DF80A309DF809601B0143EA063343EA1B
S1130560111307EE903A9FED0E7AF8EEE77ADFED7D
S11305700D6A67EE877A67EEA67AC5ED007A07EE14
S1130580902AF8EEE77ADFED086A67EE877A9FED46
S1130590077A17EEA67A84ED007AB2E723480000C2
S11305A0000080350000C842000048430000484273
S11305B008B50122074B1A700022074B1A70042257
S11305C0064B1A701F22064B1A7001F0A5FE054B4C
S11305D0186008BDBA1300201B130020B9130020B3
S11305E0B81300202010002008B5034803F0CBFC0A
S11305F0BDE8084003F0C0BB2C4A0000014803F0EA
S1130600C2BC00BF2C4A00000348044A0449121A21
S1130610921003F038BC00BF340100003401000024
S11306202413002008B500F02FF8FFF7EDFF124B5C
S113063012498B4212D30020114B12498B4218D31A
S1130640FFF7CEFD186850F82240586840F8224061
S1130650013298688242F5D30C33EAE70022F8E7C6
S11306601C6844F8220001325C68A242F8D30833C3
S1130670E4E70022F8E700BFC84B0000D44B0000B9
S1130680D44B0000D44B000070B5124B124A134DEA
S11306909A60D3F8882005F5005442F47002C3F838
S11306A088206FF00102226641F2FF726266022224
S11306B0C3F8D020BFF34F8FBFF36F8F4FF4403692
S11306C0032001F0F3FD0320E66001F0D5FD2E6167
S11306D070BD00BF00ED00E0000000000080004499
S11306E0014B1868704700BF48130020014B186085
S11306F0704700BF48130020084B1B6F03F007032B
S1130700022B04D0032B05D0012B05D0FEE7044BAC
S113071018687047034BFBE703487047008000509C
S11307204813002050130020002D310108B5FFF7B5
S1130730E3FF054B1B6FC3F301330133B0FBF3F04D
S1130740024B186008BD00BF008000504413002015
S11307500048704700B4C404014B1868704700BFD8
S113076050130020054B1860054B1B6F03F0070363
S1130770032B01D1FFF7DABF704700BF50130020ED
S11307800080005000487047002D3101174B9868D5
S1130790C0F304400C280AD8DFE800F00B0909096B
S11307A00909072119091B1D1F0011487047002062
S11307B070479B6803F04073B3F1807F11D0B3F1AD
S11307C0007F10D00B4A002B08BF104670470A4820
S11307D070470A4870470A4870470A4870470A48F1
S11307E070470A4870470A48704700BF0040015AE2
S11307F0405DC60000093D00C0EA210180BA8C01B9
S11308000048E801005A62020024F40080841E00BB
S113081040420F00014B1868704700BF4C13002082
S113082013B500242948019403F0ADFB01230422ED
S11308300321204600F0B8FF204603F08FFB01227D
S1130840234B0520C3F8442401A903F097FB002897
S113085039D1204BD3F8F02042F00102C3F8F02044
S1130860D3F8FC2042F08072C3F8FC201A4AA3F5A6
S11308705D431A60019B194A03F5D52303F2FC4337
S1130880B3FBF2F3164A013B13610223C2F8F030C2
S11308904FF48073C2F804334FF06043114AC3F835
S11308A0B02F114AC3F8802ED3F8002E42F4807280
S11308B0C3F8002EFF2283F82020D3F8002E22F460
S11308C08072C3F8002E02B010BD00BF2C4A000095
S11308D000D0035000ED00E0FF030040F8590D0084
S11308E0000004E055CEACC5090001002DE9F04F2D
S11308F085B0044618B9AD21454803F0D8FA2368F9
S1130900444A934207D0444A93427AD1434803F07D
S11309103AFB012503E0424803F035FB002501239F
S11309200A22A179207900F03FFF01230A22E1790C
S1130930607900F039FF4FF00A08DFF8F090DFF833
S1130940F0A0384F267994F806B0032E05D81AF88B
S1130950063023FA0BF3DA0704D440F2FE3148469A
S113096003F0A5FA3022012302FB067642F21002BC
S113097003FA0BF3B350642001F0B6FF267994F820
S113098006B0032E05D8284B9B5D23FA0BF3DB0737
S113099004D440F22D41484603F089FA3022012361
S11309A002FB067641F2100203FA0BF36420B35003
S11309B001F09AFFB8F10108C4D1032307EB051233
S11309C0C2F89834A17923794A3543EA0143C2F83D
S11309D09C34E27963792D0143EA02437B5140F26E
S11309E00113ADF80030E36869460293A3682068F8
S11309F00193237C8DF80C3000F0C2FF05B0BDE8F4
S1130A00F08FD221024805B0BDE8F04F03F04FBA91
S1130A10264800000000015A00800650244A0000C5
S1130A20284A000000C00350A64800006B4800009C
S1130A30A648000038B5054601F0F6F8044C012834
S1130A4001D1013C00D138BD284600F0CDFFF6E7C6
S1130A50E19304002DE9F041174B1F6D5B6D1F40BE
S1130A6000D5FEE701260025144CDFF858803742F4
S1130A7018D02368C8F85060A3B1A1682846013192
S1130A806268A1609847637B012B0BD150B90C4B72
S1130A9003EB45131A7B60F341021A731A7F60F368
S1130AA041021A770135082D4FEA460604F1100475
S1130AB0DDD1BDE8F08100BF000004502411002006
S1130AC0241000200020045030B541F67133124A3E
S1130AD0124DD469D3639368A84204F4803423F498
S1130AE0401306D893600E4AD2F8183223F002035A
S1130AF00AE043F4801393600A4B9842F3D9084AFE
S1130B00D2F8183243F00203C2F8183214B10022AA
S1130B10014BDA6330BD00BF00000350005A62028B
S1130B2000C0075080F0FA0208B5334B98424FD00A
S1130B3027D8324B984245D017D8314B98423ED0F3
S1130B400AD838B12F4B984239D041F2A6312E48F9
S1130B5003F0ADF9002034E02C4B98422FD02C4BFD
S1130B609842F2D12B4B586E2BE02B4B98422CD051
S1130B7003F5371303F5D8639842E6D1254B986FF4
S1130B801FE0264B98422FD00CD8254B984223D0F7
S1130B90244B984224D0244B9842D6D11D4BD3F8F1
S1130BA084000EE0214B984222D003F5740303F530
S1130BB010539842C9D1174BD3F8980001E0154B54
S1130BC0986D08BD134B186FFBE7124B586FF8E78D
S1130BD0104BD3F88000F4E70E4BD3F88800F0E70D
S1130BE00C4BD3F88C00ECE70A4BD3F89000E8E701
S1130BF0084BD3F89400E4E780BA8C01405DC6004A
S1130C0080841E0040420F00AA48000000093D00F5
S1130C10C0CF6A000080E00F0024F400007E560379
S1130C2080D54302006CDC020048E8010090D00348
S1130C3038B50F4B0546D3F880300C4603F0030358
S1130C40022B09D0032B0FD00A4841F2FF1103F005
S1130C502EF90023184602E0FFF768FD0B2305B1C7
S1130C60286004B1236038BDFFF790FD0523F6E743
S1130C7000800050AA48000038B5164B0546D3F84A
S1130C8020010C4600F00700042818D8DFE800F023
S1130C901F030B0F1300FFF723FD042305B1286086
S1130CA004B1236038BDFFF757FD0323F6E7FFF7D0
S1130CB06DFD0523F2E7FFF765FD0223EEE7064825
S1130CC041F27C2103F0F3F800231846E6E7012300
S1130CD0E4E700BF00800050AA48000073B5002478
S1130CE0144B0194D3F88031064603F00303022B1E
S1130CF00D460FD0032B12D0012B15D1214601A88C
S1130D00FFF7BAFF0D240EB1019A326005B12C60D1
S1130D1002B070BDFFF73AFD05240190F3E7FFF739
S1130D2031FD02240190EEE741F2D131024803F093
S1130D30BEF8E8E700800050AA48000038B5104B20
S1130D400546D3F840310C4603F00303022B0BD0C5
S1130D50032B0DD0012B0FD103F0A3F8082305B109
S1130D60286004B1236038BDFFF754FD0723F6E77C
S1130D7003F09AF80923F2E701230020EFE700BF0C
S1130D800080005038B5104B0546D3F860310C464E
S1130D9003F00303022B0BD0032B0DD0012B0FD137
S1130DA003F07FF8082305B1286004B1236038BD3F
S1130DB0FFF730FD0723F6E703F076F80923F2E79F
S1130DC001230020EFE700BF0080005038B5164B28
S1130DD00546D3F800020C4600F00700042819D891
S1130DE0DFE800F020030B0F130003F05AF8082388
S1130DF005B1286004B1236038BDFFF70BFD07235C
S1130E00F6E703F051F80923F2E7FFF78FFC0C2310
S1130E10800AEDE7054841F28F4103F048F80023CA
S1130E201846E5E70123E3E700800050AA480000E4
S1130E3038B5164B0546D3F808020C4600F00700F7
S1130E40042819D8DFE800F020030B0F130003F087
S1130E5028F8082305B1286004B1236038BDFFF7E2
S1130E60D9FC0723F6E703F01FF80923F2E7FFF79D
S1130E705DFC0C23800AEDE7054841F2C74103F00D
S1130E8016F800231846E5E70123E3E70080005045
S1130E90AA48000038B5124B0546D3F840320C4638
S1130EA003F00303022B0BD0032B0DD0012B0FD126
S1130EB002F0F7FF082305B1286004B1236038BDB0
S1130EC0FFF7A8FC0723F6E702F0EEFF0923F2E799
S1130ED0044841F21A4102F0EAFF00231846EAE707
S1130EE000800050AA48000038B5104B0546D3F8DE
S1130EF000310C4603F00303022B0BD0032B0DD05F
S1130F00012B0FD1FFF728FC032305B1286004B19E
S1130F10236038BDFFF77EFC0723F6E702F0BFFF2E
S1130F200623F2E701230020EFE700BF0080005012
S1130F3010B503281BD005D8012805D0022810D0ED
S1130F4000240CE00F28FBD10B4B1C6FC4F30134BD
S1130F50022C04D140F27D21084802F0A8FF601C55
S1130F6010BD054BD3F89040C4F30464F7E7024B7B
S1130F701C6FC4F38024F2E700800050AA480000EC
S1130F801FB500230193252874D8DFE800F0131956
S1130F901C262B353A50555A5F64696E73193F739A
S1130FA0735519262B26351950266E3A3A3A3A26A5
S1130FB026265A5FFFF7A0FB0190019804B010BDEC
S1130FC0FFF7B4FBF8E7FFF797FB04460220FFF7AF
S1130FD0AFFFB4FBF0F40194EFE7FFF7A7FB04467F
S1130FE00320F4E7FFF7A2FB04460320FFF7A0FF6A
S1130FF0B4FBF0F46408EEE7002101A8FFF76EFEED
S1131000DBE7002101A8FFF737FED6E702934FF094
S1131010E0231B695B0705D5FFF788FB0290029B61
S11310200193CAE703A902A8FFF788FEF7E70021A6
S113103001A8FFF783FEC0E7002101A8FFF7A2FE85
S1131040BBE7002101A8FFF7C1FEB6E7002101A814
S1131050FFF7EEFEB1E7002101A8FFF745FFACE77B
S1131060002101A8FFF7E4FDA7E7002101A8FFF78D
S113107011FFA2E74FF46C71014802F018FF9CE7DE
S1131080AA48000008B50120FFF77AFFBDE8084030
S11310900349884294BF01210221032000F002B8D1
S11310A080F0FA0210B503283DD00AD801280AD0EE
S11310B0022826D040F21631BDE81040224802F042
S11310C0F6BE0F28F6D14C1E012C06D9042904D0F3
S11310D040F2C7211C4802F0EAFE02F010FF02F0C1
S11310E016FF1A4A136F23F4405343EA0433136779
S11310F0FFF71CFB0021FFF7E7FCBDE81040FFF7FA
S1131100C1BF4C1E1F2C04D940F20A310E4802F014
S1131110CEFE0E4AD2F8903023F0F85343EA04632B
S1131120C2F8903010BD4C1E012C04D94FF4447108
S1131130054802F0BCFE054A136F23F4806343EABA
S113114084231367EEE700BFAA4800000080005024
S11311501FB50023019325286FD8DFE800F0136E34
S11311606E6E6E2D354B50555A5F64696E6E3A6ED5
S11311706E506E6E6E6E2D6E4B6E69353535356EF6
S11311806E6E555A2E4B1B6F03F00703013B032B66
S11311900CD8DFE803F009020507042301930FE0EC
S11311A00323FBE70623F9E70223F7E740F2CA41EA
S11311B0244802F07CFE03E0002001A9FFF78EFD25
S11311C0019805B05DF804FB002001A9FFF754FD68
S11311D0F6E702934FF0E0231B695B0705D5FFF7A1
S11311E0A5FA0B230393039BD8E703A902A8FFF7EF
S11311F0A5FDF8E7002001A9FFF7A0FDE0E7002026
S113120001A9FFF7BFFDDBE7002001A9FFF7DEFD21
S1131210D6E7002001A9FFF70BFED1E7002001A9C2
S1131220FFF762FECCE7002001A9FFF701FDC7E745
S1131230002001A9FFF72EFEC2E740F27D51B7E777
S113124000800050AA480000024A536A23F00103B8
S11312505362704700C0075070B50546FFF764FC41
S1131260431E0333044604D940F6CF11284802F044
S11312701EFE284B5A68012A04D127494A609A69FC
S11312809207FCD10020FFF763FF042803D102F08A
S113129036FE02F03CFE214A24F04073954228D0E9
S11312A01F4A954228D01F4CE26812F0060FFBD16A
S11312B0A668A360A268534013F4F81F1FD1284600
S11312C0FFF714FA0020FFF743FF04281ED1FFF7AD
S11312D02DFA8542044604D240F628210C4802F037
S11312E0E6FD20460021FFF7EFFBBDE87040FFF765
S11312F0C9BE43F00073D6E743F08073D3E740F6EA
S11313001721034802F0D3FDA660DBE770BD00BFE0
S1131310AA48000000C0015000E0015040420F0004
S113132080841E0000000150F8B5036804460F2BAA
S113133004D940F67731694802F0B9FD63680F2B90
S113134004D940F67A31654802F0B1FDA3680F2B49
S113135004D940F67D31614802F0A9FD237B0F2BAF
S113136004D94FF438615D4802F0A1FD637B0F2B73
S113137004D940F68331594802F099FDA37B3F2BF1
S113138004D940F68631554802F091FDE37B3F2BAA
S113139004D940F68931514802F089FD2369032BB1
S11313A004D940F68C314D4802F081FD6369032B6A
S11313B004D940F68F31494802F079FDE369012BE5
S11313C004D940F69231454802F071FD0020FFF740
S11313D0BFFE032800F0818045F60E030221404A37
S11313E0C2F880303F4B9962012103F58053996222
S11313F0936DD903FCD4D4E900131B0543EA0163BC
S1131400E17B94F820500B43217BE77E43EA0143C0
S1131410617B6D0143EA0133A17B43EA81131361CC
S11314209169D4E904031B0643EA806301F0004197
S11314300B43A17E94F823000B43217E43EA01432E
S1131440617E43EA01239361136AE66923F00D0385
S113145094F8221043EA870366BB1362966A94F8F1
S1131460213045EA031326F033052B4343F00103EF
S113147093621D4D1A4A936D35EA0303FBD102258D
S1131480184B9D62936D5B00FCD41369A56823F42B
S1131490700343EA055313614FF00042114B9A6104
S11314A019B9022203F580539A6278B901220F4BCD
S11314B09A620BE0334343F008031362936A23F008
S11314C0330303432B4343EA4103936294F82430E8
S11314D01BB1034B064AC3F88020F8BDAA4800009C
S11314E000C0005000D000500300014000E0005054
S11314F0F1A7FFFF014B93F9000070471C13002074
S113150010B543680446072B04D940F6D351274845
S113151002F0CDFCA368032B04D940F6D55123482F
S113152002F0C5FC2378032B04D940F6D7511F4899
S113153002F0BDFC94F90130002B04DA40F6D951D5
S11315401A4802F0B4FC4FF4D1510220184A6378CF
S1131550516218494F2B48604FF0010028BF4F23B8
S113156001F5805148601169C903FCD4217843EA2C
S113157001235361D4E901131B0143EA0123617B75
S11315800B43217B43EA41039360E37BA17B1B0173
S113159043EA4113617C0B43217C43EA41035360DA
S11315A0A37C13B16FF4D153536210BDAA48000059
S11315B00000025000100250014B1880704700BF19
S11315C0B6130020014B1880704700BFB4130020ED
S11315D010B5454B0446984265D03BD8A3F5B703F4
S11315E0A3F5586398425AD02DD8404B98424AD01C
S11315F013D8002863D041F2C9113D4802F057FCCA
S113160040F673713A4802F052FC384B9C4269D060
S1131610384B9C4258D1002332E0364B984226D0B6
S1131620354B9842E7D1354BD3F8A040621E0332C4
S113163024F0407404D940F673712D4802F037FC4D
S11316402F4A946010BD2F4B9842D4D12B4BD3F822
S1131650BC40EBE72C4B984229D02C4B98422AD023
S11316602B4B9842C7D1254BD3F8C840DEE7234B18
S1131670D3F8A040621E033224F040742CD82346D1
S113168043F08074DCE71D4BD3F8A040621E0332A4
S113169024F040741AD8234643F00074D0E7174B63
S11316A0D3F8B840C2E7154BD3F8C040BEE7134B9C
S11316B0D3F8CC40BAE7114BD3F8D040B6E740F6A4
S11316C073710B4802F0F3FB0024B9E740F6737121
S11316D0074802F0ECFBDEE740F67371044802F0C1
S11316E0E6FBCCE70023D7E7C0EA210140420F0024
S11316F0AA48000080841E0000093D000080E00F1D
S11317000040015A0024F4000048E801005A620233
S113171080BA8C01034A0179D36E23F030030B4362
S1131720D36670470040005038B5032804460D4680
S113173004D80B4B1B5CCB40DB0704D440F22D4197
S1131740084802F0B4FB30220123544341F2100252
S113175004F1A044AB4004F57034A35038BD00BF7D
S11317601F4900006B48000038B5032804460D46A5
S113177004D80B4B1B5CCB40DB0704D440F2FE3196
S1131780084802F094FB30220123544342F2100231
S113179004F1A044AB4004F57034A35038BD00BF3D
S11317A01F4900006B480000F8B5032804460D46A5
S11317B016461F4604D81C4B1B5CCB40DB0704D4E5
S11317C04FF4B071194802F072FB26B12946204645
S11317D0CFB1FFF7A9FF04EB4403072D4FF00F012E
S11317E04FEA031312D8A80006FA00F28140104809
S11317F0184402F0A4FBAEB92946204677B1BDE8EF
S1131800F840FFF791BFFFF7AFFFE4E7A5F1080049
S1131810800006FA00F281400648E9E7BDE8F84096
S1131820FFF7A2BFF8BD00BF1F490000E448000055
S113183004C003500CC00350F8B506460F461546C5
S1131840002A6AD003F00304836823F4407383609E
S113185002F02EFBB26882EA042303F4407353407F
S1131860B36002F029FB37B92D4B9E420DD11620EF
S1131870FFF786FB0746B3689A0717D5012C1BD0E0
S1131880022C27D064B9274B17E0274B9E4201D185
S11318901720EDE740F22F11244802F008FBB3684B
S11318A04FF4B271214802F002FB08E0012C13D07E
S11318B0022CE7D11E4B00E01E4B9F42F0D91E4B79
S11318C01B5D6B430AD140F27511BDE8F84017481F
S11318D002F0EDBA194BF0E7194BEEE7A3EBC504A0
S11318E0013C3C44B4FBF3F4013C0CD540F27B11C5
S11318F00E4802F0DCFA4FF4BE710C4802F0D7FA3D
S1131900B368B461F8BDB4F5007FF4D2B3689B0743
S1131910F7D5002C08BF0124F3E740F21511D4E7F2
S11319200000015A80841E000080065023490000F4
S1131930002D3101404B4C005D490000809FD500D3
S11319404054890038B50B4B044698420D4607D0E5
S1131950094B984204D040F29511084802F0A7FAC6
S1131960043425B104F580540123236038BD04F503
S11319700054F9E70000015A008006502349000092
S113198038B5154B044698420D4607D0134B984280
S113199004D04FF4D571124802F089FA0023114A99
S11319A0236404F50053DA636A7804F108037AB90E
S11319B003F5805302221A602046D5E901122B7BDD
S11319C0FFF73AFF20462978BDE83840FFF7BABF51
S11319D003F50053EEE700BF0000015A00800650F3
S11319E023490000FFFF1F0070B5894B98420AD0BD
S11319F0884B98421DD0884840F2012102F057FAE2
S1131A006FF0030070BD854B9968C26B12F4C06F10
S1131A1015D091050FD5FD225A7009221A700022A3
S1131A20026493F90110012900D15A7093F901005D
S1131A30E8E77B4BE8E75605EFD5FE22ECE71C7898
S1131A40082C00F2E180DFE814F009001F004500D3
S1131A50530070007E009C00A700D6004C880A88C2
S1131A60E5060AD5120A02F0060242F0F00201214C
S1131A7019704263C1600120C4E702F0FE02A107AD
S1131A8048BF42F00102F2E7160608D5802100F5AE
S1131A900052D1634FF608721A80022318E05506EB
S1131AA0E9D5402400F50052D4634A88D40604D50D
S1131AB002221A700B784363DDE796076AD5072282
S1131AC01A701B7901EBC3031B89012BD3D10823A3
S1131AD0C360D0E71506D9D45406CCD5402400F50C
S1131AE00052D4634A88920754D503221A708CE7B3
S1131AF04C880A88E60643BF120A02F0060242F046
S1131B00F00202F0FE02650709D51C7942F00102D9
S1131B1001EBC4010989012904BF0821C160042122
S1131B2019700123C3604263A5E71406AED45206BC
S1131B30A1D5402400F50052D4634A88560729D51C
S1131B4007221A7097E71A795D8801EBC204268987
S1131B50AE420FD800240132D2B21A715C804C8894
S1131B606507C2D4E40702D4012A7FF64EAF0822E7
S1131B701A7092E76268691C5980525D42630622BA
S1131B80DFE7160682D455067FF575AF402400F5CD
S1131B900052D4630522A9E794067FF56CAF456A29
S1131BA0204C46691A793440B4F5003F04BF466AB4
S1131BB04FF4005601EBC20100F500540A8908BF36
S1131BC0E6632026E6635C88A24281BF4968661CFE
S1131BD05E800D5559888A42C9D90424012AC460FB
S1131BE004D0013A914201D10822C2601A78092A2C
S1131BF03FF415AF3FE7D2057FF53DAF4FF4807159
S1131C0000F50052D16308E74FF609321A8006E75F
S1131C100000015A0080065023490000A41100204E
S1131C20B01100202000020038B5294B0446984228
S1131C300D4607D121B940F26A31264802F037F93E
S1131C40254B13E0254B98420DD040F269312148D1
S1131C5002F02DF925B940F26A311E4802F027F945
S1131C606FF0030038BD00292AD01D4B2269D0072C
S1131C7044BF2022E2606A88910702D5298900299D
S1131C80EED0520702D52A8A002AE9D04FF4807296
S1131C901A6000229D601A71C023E3606369DB054A
S1131CA014D4202204F50053DA630E4A2046DA6382
S1131CB0236C43F4FC632364BDE83840FFF794BE0F
S1131CC040F26A31034802F0F2F8CEE7636AE5E7CE
S1131CD00000015A23490000A4110020008006508E
S1131CE0B0110020FFFF1F0038B5022805460C463E
S1131CF003D94C210C4802F0DAF8E37862782178B1
S1131D005B0143EA820322790B4343EA02130C2268
S1131D106A4302F1B0421363012902BFA278034B64
S1131D2043F8252038BD00BF61490000D08003502E
S1131D3008B54FF0B0435A686AB958B15B680BB143
S1131D4002F00DF901210D4B596002F008F94FF032
S1131D50B043D96008BD5B680BB102F000F90028FC
S1131D60F0D102F0FCF84FF0B0430222DA6002F046
S1131D70F6F80122024B5A60ECE700BF001000584D
S1131D800020005810B54FF0B0414B680BB102F081
S1131D90E6F801220B4BC4785A608378934043EAF7
S1131DA0840344782343047943EA0413447943EADB
S1131DB0C4038B60044B5A600378C3F10203CB6005
S1131DC010BD00BF0020005800100058054B5B698F
S1131DD0C3F38512827003F03F021B0B4270037041
S1131DE0704700BF00C007500D4B984208D1A3F5BF
S1131DF00033C3F88411C36D43F08003C365704797
S1131E00084B984204D1A3F51033C3F89411F2E7B8
S1131E10054B984204BFA3F52033C3F8A411EAE7A5
S1131E200080055000C0055000000650F8B5074674
S1131E300C461D4616464AB94FF4A171314802F0CA
S1131E4036F824B1402D08D1062327E019B9032020
S1131E50FFF796F80446402D42D0402D09D87DB1B5
S1131E60202D17D040F28911BDE8F840254802F032
S1131E701EB8602DF6D1B6EB940F3CD804230DE0C8
S1131E80B6EB141F04D94FF4BA711E4802F00FF8D0
S1131E90102303E0B6EBD40F1CD808235E43730869
S1131EA003EB4413B3FBF6F3174E203BB6EBC30F1F
S1131EB04FEAC30404D24FF4D071124801F0F7FF83
S1131EC0BB68344023F06003BB60BB681D43BD6046
S1131ED0FC61F8BD40F279110A4801F0E8FFDCE743
S1131EE00623B4FBF3F3B342AED24FF4BF710548FB
S1131EF001F0DDFFA8E740F28311024801F0D7FFAB
S1131F00BCE700BF9C490000F8FF7F0010B51B4BE5
S1131F10044698420CD003F58043984208D003F558
S1131F208043984204D040F24241154801F0BFFF7B
S1131F30012204F580535A6040F6AA6341F2050277
S1131F40636100230F49A360E365E26004F5005276
S1131F502361E361E36491640849A3658C4203D17E
S1131F6023650023636506E007498C42F8D001F538
S1131F7080418C42F4D00123536010BD0080055091
S1131F809C490000FFFF010000C0055070B5444BA0
S1131F90044698420D460CD003F58043984208D07D
S1131FA003F58043984204D040F2FD213D4801F0FE
S1131FB07EFF2046FFF7AAFF012304F580567360D5
S1131FC0AB7C1BB1A36843F08043A360EB7C1BB1E3
S1131FD02046297DFFF708FF2A8A6B7B204613439E
S1131FE0EA891343E3602B7BD5E90112FFF71EFF57
S1131FF06B7D1BB1A36843F48033A360AB7D1BB13D
S1132000A36843F40043A360EB7D2A7E1B071205FB
S113201002F4E00203F0E0431343A365697E204A1F
S11320208B1E012B204B1DD8944217D002F5804201
S1132030944215D002F5804294420CBF02224FF024
S1132040FF3203EB4213022041F2AC5203299850B1
S113205020D10423F3652B78636170BD0022F0E77F
S11320600122EEE7944211D0104A944210D002F5B6
S1132070804294420CBF02224FF0FF3203EB421322
S1132080022042F2AC5201299850E1E70022F5E720
S11320900122F3E7042204F50053DA65DBE700BF0D
S11320A0008005509C49000000C0035000C005504A
S11320B030B58BB06D46604C0FCC0FC554F8043B63
S11320C068462B604FF07E6393F89C306D46FF2B7F
S11320D008BF25238DF80130FFF712FA3220FFF7ED
S11320E06BFA0FCC0FC50FCC0FC594E8030085E83D
S11320F00300524BD3F84C21110340F18380A3F524
S1132100FE431C884FF6FF739C4208BF81248DF860
S11321101940FFF7EFF9044484F3080448488DF8A4
S11321201840FEF71FFB6846FFF7FEF83220FFF762
S113213049FA444C4448FFF78FF84448FFF748FAFB
S113214001F0E9FE236F002023F0070343F00203AC
S11321502367236F23F4505343F48063236701F010
S1132160E1FE3B4BD3F8FC20D2014FD4D4F88030AD
S113217023F0030343F00203C4F88030314BD3F857
S1132180202122F0070242F00102C3F82021D3F8F3
S1132190802122F0030242F00102C3F88021D3F827
S11321A0402122F0030242F00202C3F84021D3F896
S11321B0602122F0030242F00202C3F86021D3F846
S11321C0402222F0030242F00202C3F84022D3F874
S11321D0002222F0070242F00202C3F80022D3F8E0
S11321E0082222F0070242F00202C3F80822FFF795
S11321F02BF84FF0E0220020136963F0040313610D
S11322000BB030BDD3F85041E4B280E7D3F8FC20E2
S113221022F08072C3F8FC20D4F8802022F003025C
S113222042F00202C4F88020D3F8FC2042F080720D
S1132230C3F8FC20A2E700BFD84900000080E00FEB
S113224000F049020080005000B4C404C0EA210137
S113225000ED00E013B50024064A6846536F43F0CE
S11322600103536700948DF80440FFF753FA2046A6
S113227002B010BD0040005010B53D28044608D8F7
S113228001236109074A04F01F04A34042F82130E6
S113229010BD4FF48A71044801F009FE002CF7DBED
S11322A0EEE700BF00E100E0304A0000002808DB50
S11322B001224309034900F01F008240603341F8C2
S11322C02320704700E100E038B500F110034D2BE6
S11322D004460D4604D94FF4E1710D4801F0E7FDC1
S11322E01E2D04D940F2C311094801F0E0FD002C71
S11322F0ACBF04F16044074B4FEA0515EDB2ABBF28
S113230004F5614404F00F0484F800531D5538BDEE
S1132310304A000014ED00E010B501F0C9FD034B94
S11323201C6801F0C9FD204610BD00BFBC1100208F
S113233010B50020144601F07BFE022804D018B129
S1132340C321024801F0B3FD204610BD944A0000A9
S1132350034B0222186800238068194600F004BF6A
S1132360641300200346054A0549106803448B4260
S11323708CBF4FF0FF301360704700BF5413002030
S11323800080012030B50E4C416123688BB9206078
S113239083600DE0891A9A681D4641616AB113464B
S11323A05A698A42F6D935B1A860521A83605A61D3
S11323B030BD0025F4E72060F7E798608260F7E716
S11323C0C811002038B501F09FFE0025084B094CC8
S11323D01A682368C31A2AB123B15169994203D3F5
S11323E0C91A5161206038BD55615B1A9268F2E7E1
S11323F0C8110020C411002038B5134D2B685B6947
S113240093B1124A022014681C4401F084FE204651
S113241000F0EEF900230E492A680B70D08880077B
S113242009D501230B7038BD022001F074FE02208F
S113243000F028FAEEE79268002AF4D050690344C9
S1132440012BEBD9EFE700BFC8110020C411002015
S11324501E13002070B516469DF81420C0E90336FB
S11324600271049ABDF818300260002204460D4639
S11324708260C380EEB901F047FE2844A0619DB19B
S11324802E4601F015FD0546FFF79CFF3146204618
S1132490FFF778FF104B1B68A34201D1FFF7ACFF95
S11324A0284601F009FD02E0E36865617BB900207C
S11324B070BD01F029FE3044A061002DE0D1E36835
S11324C06561002BDDD0204621689847D9E7204676
S11324D021689847EBE700BFC811002000220C498F
S11324E00B687BB183420AD183687AB193608368B5
S11324F01BB15A6941690A445A61002070471A465F
S11325009B68EEE70028EFD0022070470B60EEE7EF
S1132510C811002070B501F0D2FC144E0546347881
S1132520FCB9134B1C60134B1C60134B1C8000F054
S11325301FF9012001F0EFFD00F0C6F90F4B024630
S1132540186020B9284601F0C0FC232070BD234642
S113255040F2E7310A4800F0AFFB0A4B1860012350
S11325603370284601F0B1FC0020EFE71F13002070
S1132570C8110020C411002018130020CC11002021
S113258018FCFFFFC011002038B50C460546A8B161
S1132590A1B100230B7001F092FC0121084B1B68D0
S11325A033B901F092FC002038BD9D4204D1217062
S11325B02278002AF9D0F4E79B68F1E72220F3E7B8
S11325C0C811002038B50021044640F2E730054B1D
S11325D04FF47A721D680023E5FB040100F06CFBE4
S11325E038BD00BFCC11002000B58DB001238DF89B
S11325F00F30FFF7E7FF00230146CDE90033074A18
S11326000DF10F0304A801F059FD18B99DF80F301E
S1132610002BFBD10DB05DF804FB00BFB7400000F8
S11326202DE9F047C20704460BD54D4A1388013300
S11326309BB21380FFF7C6FE4A4B1B680BB1FFF732
S1132640DBFEA30740F18A8001F039FC4FF000095A
S113265005464E46FFF7B6FEC846424F3C680CB1ED
S113266063698BB10022404B012E1A7003D119F01B
S1132670020F18BF1E70002C6CD0FFF7BDFE284659
S1132680BDE8F04701F021BC23465A693AB91A79EA
S11326902179914288BF1C469B68002BF5D12846BE
S11326A001F013FC2569DDB101F02EFDA269A0EB58
S11326B002094FEAE9734D4578EB030311DA236904
S11326C01344A361E368B4F80690013613B12046BD
S11326D02168984701F0F3FB0546FFF773FEBDE759
S11326E0A94601F0ECFB82462046FFF7F7FE504670
S11326F001F0EBFB2369002BE4D0B5EB09054FEAAD
S1132700E97363EB4303002B04DA40F234511748B6
S113271001F0CDFBA38B33B1E28B13449BB2B3F531
S11327207A7F0FD2E38301F0CAFB81462946204613
S1132730FFF728FEA369226948461344A36101F008
S1132740C4FBBFE7A3F57A73E383A369013D013BAF
S1132750A361E8E7022000F07DF890E7BDE8F08788
S113276018130020C81100201D130020ED4A00009A
S11327701FB500241B4B18689A880290D3F80600F2
S11327809B7A00901848ADF80C208DF8043001F0C5
S1132790FAFB8DF8084001F0B5FC8DF80C0002A896
S11327A0FFF7F0FA694601208DF80040FFF79CFA24
S11327B04FF0B0431F219A6922F01F029A610B4A1D
S11327C051619A6A12F00802FBD11A620120FFF7E4
S11327D0AFFA0A20FFF76AFD0A20FFF74DFD04B0A7
S11327E010BD00BF3B4B0000204A000000200058F1
S11327F010B5044601F05CFB4FF0B042936A190730
S1132800FCD4136A116C5269120704D4CA1A032A3D
S113281001D88B420ED1E21A022A98BFDC1CB4F113
S1132820FF3F38BF013C4FF0B0431C649A6942F04B
S113283008029A6101F040FB054A13783BB14FF05E
S1132840B041CB6B43F00203CB630023137010BD84
S1132850BB130020820700F001030AD50121084AB6
S113286043F0080311704FF0B041CA6B22F0030229
S1132870CA634FF0B0418A6922EA03038B6170474F
S1132880BB130020830742BF0822014B5A617047E3
S11328900010005810B501F012FB4FF0B04304468D
S11328A05B691A07074A03F0010003F00D0348BFF0
S11328B040F002005361FFF7B3FE2046BDE810402C
S11328C001F003BB0020005807B5064B01A9187995
S11328D001F054FB01F016FC019B23FA00F003B055
S11328E05DF804FB144A000010B50446FDF71EFF12
S11328F04FF47A729042B0FBF2F105D23621BDE872
S113290010400C4801F0D3BA0B4BB3FBF1F30B4965
S1132910884201D93C21F2E702FB04F0B0FBF3F05A
S1132920022806D9BDE810400323B0FBF3F0FDF7FD
S113293007BC10BD464B000040420F00E7CD9A3B58
S113294081F0004102E000BF83F0004330B54FEA5C
S113295041044FEA430594EA050F08BF90EA020FC9
S11329601FBF54EA000C55EA020C7FEA645C7FEA5C
S1132970655C00F0E2804FEA5454D4EB5555B8BF7F
S11329806D420CDD2C4480EA020281EA030382EAF0
S1132990000083EA010180EA020281EA0303362D82
S11329A088BF30BD11F0004F4FEA01314FF4801C55
S11329B04CEA113102D0404261EB410113F0004F67
S11329C04FEA03334CEA133302D0524263EB43031E
S11329D094EA050F00F0A780A4F10104D5F1200EBC
S11329E00DDB02FA0EFC22FA05F2801841F1000117
S11329F003FA0EF2801843FA05F359410EE0A5F1EB
S1132A0020050EF1200E012A03FA0EFC28BF4CF01B
S1132A10020C43FA05F3C01851EBE37101F00045D1
S1132A2007D54FF0000EDCF1000C7EEB00006EEBDE
S1132A300101B1F5801F1BD3B1F5001F0CD3490868
S1132A405FEA30004FEA3C0C04F101044FEA4452BF
S1132A5012F5800F80F09A80BCF1004F08BF5FEA46
S1132A60500C50F1000041EB045141EA050130BD26
S1132A705FEA4C0C404141EB0101013C28BFB1F538
S1132A80801FE9D291F0000F04BF01460020B1FA83
S1132A9081F308BF2033A3F10B03B3F120020CDA56
S1132AA00C3208DD02F1140CC2F10C0201FA0CF034
S1132AB021FA02F10CE002F11402D8BFC2F1200C99
S1132AC001FA02F120FA0CFCDCBF41EA0C0190404F
S1132AD0E41AA2BF01EB0451294330BD6FEA040498
S1132AE01F3C1CDA0C340EDC04F11404C4F1200283
S1132AF020FA04F001FA02F340EA030021FA04F395
S1132B0045EA030130BDC4F10C04C4F1200220FAEB
S1132B1002F001FA04F340EA0300294630BD21FA29
S1132B2004F0294630BD94F0000F83F4801306BFEF
S1132B3081F480110134013D4EE77FEA645C18BFE3
S1132B407FEA655C29D094EA050F08BF90EA020F7A
S1132B5005D054EA000C04BF1946104630BD91EA72
S1132B60030F1EBF0021002030BD5FEA545C05D175
S1132B704000494128BF41F0004130BD14F58004B4
S1132B803CBF01F5801130BD01F0004545F0FE4128
S1132B9041F470014FF0000030BD7FEA645C1ABF5D
S1132BA0194610467FEA655C1CBF0B46024650EA94
S1132BB0013406BF52EA033591EA030F41F40021C0
S1132BC030BD00BF90F0000F04BF0021704730B546
S1132BD04FF4806404F132044FF000054FF000011B
S1132BE050E700BF90F0000F04BF0021704730B5DC
S1132BF04FF4806404F1320410F0004548BF4042B1
S1132C004FF000013EE700BF42004FEAE2014FEA05
S1132C1031014FEA02701FBF12F07F4393F07F4FE0
S1132C2081F06051704732F07F4208BF704793F0E3
S1132C307F4F04BF41F40021704730B54FF46074F6
S1132C4001F0004521F000411CE700BF50EA0102F9
S1132C5008BF704730B54FF000050AE050EA0102A2
S1132C6008BF704730B511F0004502D5404261EB12
S1132C7041014FF4806404F132045FEA915C3FF453
S1132C80D8AE4FF003025FEADC0C18BF03325FEAF0
S1132C90DC0C18BF033202EBDC02C2F1200300FAA1
S1132CA003FC20FA02F001FA03FE40EA0E0021FAC6
S1132CB002F11444BDE600BF53B94AB9002908BF64
S1132CC000281CBF4FF0FF314FF0FF3000F082B9F5
S1132CD0ADF1080C6DE904CE00F006F8DDF804E06F
S1132CE0DDE9022304B070472DE9F04F099D0C463D
S1132CF0002B4DD18A420F4684469646B2FA82F39F
S1132D0060D94BB102FA03FEC3F120029F4000FADE
S1132D1003FC20FA02F217434FEA1E461FFA8EF410
S1132D204FEA1C42B7FBF6F106FB117701FB04F0F6
S1132D3042EA0742904208D91EEB020201F1FF3732
S1132D4002D2904200F231813946121A1FFA8CFCE9
S1132D50B2FBF6F006FB102200FB04F44CEA024C32
S1132D60644508D91EEB0C0C00F1FF3202D2644515
S1132D7000F21E81104640EA0140ACEB040C002135
S1132D8025B12CFA03F30022C5E90032BDE8F08F27
S1132D908B4205D90DB1C5E9000100210846F5E7CC
S1132DA0B3FA83F100294DD1A342C0F0F3809042DD
S1132DB080F0F080064623460846002DE6D0C5E99B
S1132DC00063E3E7002B40F0A3808A1A4FEA1E4712
S1132DD01FFA8EF60121B2FBF7F407FB14204FEA29
S1132DE01C4242EA004206FB04F090420FD91EEB5B
S1132DF0020204F1FF382CBF4FF001094FF0000923
S1132E00904203D9B9F1000F00F0CC804446121A65
S1132E101FFA8CFCB2FBF7F007FB102200FB06F64E
S1132E204CEA024C664508D91EEB0C0C00F1FF324B
S1132E3002D2664500F2B3801046ACEB060C40EAC1
S1132E4004409DE7C1F120068B4004FA01FE22FAFA
S1132E5006F720FA06FCF4408A401F434EEA0C03AE
S1132E6000FA01FE4FEA17484FEA13491FFA87FC9C
S1132E70B4FBF8F008FB104449EA044400FB0CF9E5
S1132E80A1450ED93C1900F1FF3A2CBF4FF0010BBC
S1132E904FF0000BA14503D9BBF1000F00F08B806C
S1132EA05046A4EB09041FFA83F9B4FBF8F308FBBA
S1132EB0134403FB0CFC49EA0444A44506D93C1919
S1132EC003F1FF3801D2A4457BD8434643EA0040CE
S1132ED0A4EB0C04A0FB02984445CC46434602D321
S1132EE006D1CE4504D20138B9EB020C68EB0703D6
S1132EF0002D6CD0BEEB0C0264EB030422FA01F348
S1132F0004FA06F6CC4000211E43C5E900643DE7FF
S1132F1002FA03FEC3F1200104FA03F200FA03FCEF
S1132F20CC404FEA1E4720FA01F11FFA8EF6B4FB9B
S1132F30F7F00A4307FB1044110C41EA044100FB7B
S1132F4006F48C420ED91EEB010100F1FF382CBFB0
S1132F504FF001094FF000098C4202D9B9F1000F7A
S1132F602CD04046091B92B2B1FBF7F407FB1411B5
S1132F7042EA014204FB06F1914207D91EEB020228
S1132F8004F1FF3801D291421ED84446521A44EA51
S1132F90004120E7861A64EB030301200DE7F444A3
S1132FA002384AE7023C724431E702397244CCE603
S1132FB0F4440238DFE602383C4472E702387144D4
S1132FC0D0E7023B3C4481E7023C7244DEE72946F9
S1132FD0DCE600BF704700BF08B5064B044613B1DA
S1132FE00021AFF30080044B1B6803B198472046CF
S1132FF001F049F80000000008130020002310B578
S113300004468360818119464366C2810822836134
S1133010C0E90033C0E904335C3001F001F90D4B21
S1133020246263620C4BA3620C4BE3620C4B23637C
S11330300C4B9C4206D003F16802944202D0D03378
S11330409C4205D104F15800BDE8104001F0F0B8ED
S113305010BD00BF9B410000BD410000F5410000D0
S113306019420000D0110020024A0349034801F02C
S113307076B800BF581300204345000068130020B1
S113308041680C4B994210B5044601D001F059FA3D
S1133090A168094B994202D0204601F052FAE16836
S11330A0064B994204D02046BDE8104001F049BACD
S11330B010BD00BFD011002038120020A012002043
S11330C010B50B4B04210B4C0B4A20461A6000220E
S11330D0FFF794FF04F1680001220921FFF78EFF36
S11330E004F1D00002221221BDE81040FFF786BF90
S11330F008130020D011002069300000014801F0BD
S113310098B800BF21130020014801F093B800BF14
S11331102113002010B50446FFF7F0FF236A1BB10A
S1133120BDE81040FFF7F0BF044B2362044B1B685B
S1133130002BF5D1FFF7C4FFF2E700BF8130000098
S1133140081300200FB407B5064904AB086853F808
S1133150042B8168019300F039FB03B05DF804EBA4
S113316004B07047641300202DE9F7431D46574B04
S113317004460E461F68904627B13B6A13B9384689
S1133180FFF7C8FFB8F1020F06D0B8F1010F00F243
S11331909980002DC0F29680636ED90705D4A38967
S11331A09A0502D4A06D01F044F82146384601F096
S11331B0C8F9616B41B104F14403994202D0384625
S11331C000F010F9002363630023A3616360A38903
S11331D01B0603D52169384600F004F9A389B8F128
S11331E0020F23F44A6323F00303A38160D001ABED
S11331F06A462146384601F0CCF9A3891843A081D8
S11332002DBB009D284600F037F90646002851D111
S1133210DDF80090A9453FD14FF0FF35B4F90C30EB
S113322043F00202A2810022A26004F1470222605C
S1133230226101226261626ED60704D4980502D429
S1133240A06D00F0F7FF284603B0BDE8F083002E20
S1133250D8D03B6A13B93846FFF75CFFB8F1010FC9
S1133260266002BFA38943F00103A381B4F90C30A3
S113327013F00802C4E904651ED0D90745BF002233
S11332806D42A560A26048BFA561626ED20701D4F9
S11332909B0513D50025D6E7484600F0EDF8064611
S11332A00028B9D0A3894D4643F08003A381D0E719
S11332B00025B3E7A946F5E7A260E6E7A06D00F0B4
S11332C0B9FFE7E74FF0FF35BDE700BF6413002007
S11332D00EB400B59CB06FF000411DAB0290069097
S11332E0079104910848094953F8042B059102A950
S11332F00068019300F06EF9029B00221A701CB062
S11333005DF804EB03B07047641300200802FFFF6C
S113331038B50023054D044608462B6000F0B1FE85
S1133320431C02D12B6803B1236038BD0C13002069
S113333038B50446064D0846114600222A601A464E
S113334000F0A9FE431C02D12B6803B1236038BDF1
S11333500C13002038B50446064D084611460022D9
S11333602A601A4600F099FE431C02D12B6803B16F
S1133370236038BD0C13002038B50446064D0846BA
S1133380114600222A601A46FEF7D2FF431C02D1DE
S11333902B6803B1236038BD0C13002070B50D4DAC
S11333A000260D4C641BA410A64209D10B4D002627
S11333B00B4C01F0F5F9641BA410A64205D170BDB5
S11333C055F8043B01369847EEE755F8043B0136BF
S11333D09847F2E7BC130020BC130020BC13002064
S11333E0C013002038B50546002941D051F8043CEB
S11333F00C1F002BB8BFE41800F0E0F81D4A136856
S113340033B9636014602846BDE8384000F0DCB886
S1133410A34208D9206821188B4201BF19685B6850
S113342009182160EDE71A465B680BB1A342FAD98B
S113343011685018A0420BD1206801445018116043
S11334408342E0D118685B68084453601060DAE78F
S113345002D90C232B60D6E7206821188B4202BFC7
S113346019685B680918636008BF21605460CAE783
S113347038BD00BF14130020024B0146186800F049
S113348025B800BF6413002070B50F4E0C460546E6
S1133490316811B900F056FC30602146284600F02E
S11334A051FC431C03D14FF0FF34204670BDC41CB3
S11334B024F00304A042F8D0211A284600F042FC6C
S11334C00130F2D1EFE700BF101300202DE9F041E5
S11334D0CD1C064625F0030508350C2D38BF0C25F8
S11334E0002D01DBA94204D90C2333600020BDE880
S11334F0F081314F00F062F83B681C4644BB29461A
S11335003046FFF7C1FF431C044650D13C682146B6
S1133510002941D1002C44D02368304604EB030831
S113352000F010FC80453CD1216830466D1A2946D4
S1133530FFF7AAFF013034D023682B4423603B6893
S1133540002B36D05A68A24229D100225A600EE0DC
S11335502268521B1DD40B2A16D96119A342256077
S113356018BF5960636808BF396062514B603046C8
S113357000F02AF804F10B00231D20F00700C21A02
S1133580B5D01B1AA350B2E7A3426268DED13A60F9
S1133590EDE723466468B1E70C464968B8E713468B
S11335A0CEE70C233046336000F00EF89EE705604A
S11335B0DDE75B60FFDE00BF14130020014800F06C
S11335C038BE00BF20130020014800F033BE00BF06
S11335D0201300202DE9F04F98468B899DB00746B3
S11335E01B060D46144610D50B6973B94021FFF72D
S11335F06DFF2860286130B90C233B604FF0FF3029
S11336001DB0BDE8F08F40236B610023CDF80C8022
S11336104FF00109DFF8A081099320238DF82930A8
S113362030238DF82A3023469A4613F8012B0AB129
S1133630252AF9D1BAEB040B0BD05B462246294666
S1133640384600F005FE013000F0A780099A5A447C
S113365009929AF80030002B00F09F8000234FF06D
S1133660FF320AF1010A049307938DF853301A9339
S1133670CDE90523544605224F4814F8011B01F0F7
S113368041F8049AD8B9D00644BF20238DF85330AA
S1133690110744BF2B238DF853309AF800302A2B9E
S11336A015D0079A544600204FF00A0C214611F811
S11336B0013B303B092B4BD9B0B1079214E0A0EB8E
S11336C00803A24609FA03F313430493D2E7039BC6
S11336D0191D1B68002B0391BBBF5B4242F0020221
S11336E007930793B8BF049223782E2B0AD16378EB
S11336F02A2B32D1039B02341A1D1B6843EAE3735D
S113370003920593DFF8C0A003222178504600F00D
S1133710F9FF38B1A0EB0A004022049B0134824037
S11337201343049314F8011B062224488DF828102F
S113373000F0E8FF002836D0214B1BBB039B073366
S113374023F0070308330393099B334409936AE77F
S11337500CFB02320C460120A8E7002301344FF091
S11337600A0C19460593204610F8012B303A092A11
S113377003D9002BC6D00591C4E70CFB01210446F4
S11337800123F0E703AB2A4604A9384600930D4B06
S1133790AFF30080421C0646D6D1AB895B063FF5E9
S11337A02DAF09982CE703AB2A4604A938460093A9
S11337B0044B00F023F9EDE78C4B0000964B00001E
S11337C00000000051420000924B00002DE9F04F30
S11337D00D469DB014469846064618B1036A0BB9C7
S11337E0FFF798FC6B6ED90705D4AB899A0502D410
S11337F0A86D00F01EFDAB891B0701D52B699BB991
S11338002946304600F026FA70B16B6EDC0704D509
S11338104FF0FF301DB0BDE8F08FAB899805F7D4A9
S1133820A86D00F007FDF3E70023CDF80C804FF0FE
S11338300109DFF8B481099320238DF8293030235E
S11338408DF82A3023469A4613F8012B0AB1252A0B
S1133850F9D1BAEB040B0BD05B462246294630461D
S113386000F068FD013000F0A780099A5A440992DB
S11338709AF80030002B00F09F8000234FF0FF32B5
S11338800AF1010A049307938DF853301A93CDE992
S1133890052354460522544814F8011B00F032FF56
S11338A0049AD8B9D10644BF20238DF853301307A6
S11338B044BF2B238DF853309AF800302A2B15D0AF
S11338C0079A544600204FF00A0C214611F8013B98
S11338D0303B092B4BD9B0B1079214E0A0EB08039D
S11338E0A24609FA03F313430493D2E7039B191D79
S11338F01B68002B0391BBBF5B4242F0020207939B
S11339000793B8BF049223782E2B0AD163782A2B0D
S113391032D1039B02341A1D1B6843EAE3730392FA
S11339200593DFF8D4A003222178504600F0EAFE84
S113393038B1A0EB0A004022049B013482401343B7
S1133940049314F8011B062228488DF8281000F06F
S1133950D9FE00283FD0264B1BBB039B073323F023
S1133960070308330393099B3B4409936AE70CFB61
S113397002320C460120A8E7002301344FF00A0C60
S113398019460593204610F8012B303A092A03D929
S1133990002BC6D00591C4E70CFB0121044601238A
S11339A0F0E703AB2A4604A930460093114BAFF36A
S11339B000800746781CD6D16B6ED90705D4AB8935
S11339C09A0502D4A86D00F035FCAB895B063FF57F
S11339D01FAF09981EE703AB2A4604A9304600939B
S11339E0044B00F00BF8E4E78C4B0000964B00000E
S11339F00000000035430000924B00002DE9FF4712
S1133A000F7E914680460C46782F9A460C9E01F113
S1133A10430207D8622F0AD8002F00F0DD80582F08
S1133A2000F0C38004F1420684F842703AE0A7F142
S1133A306303152BF6D801A151F823F0953A000041
S1133A40A93A0000253A0000253A0000253A000072
S1133A50253A0000A93A0000253A0000253A000062
S1133A60253A0000253A0000BF3B0000373B000028
S1133A70773B0000253A0000253A0000E13B0000B6
S1133A80253A0000373B0000253A0000253A0000A3
S1133A907F3B000033681A1D1B68326004F1420644
S1133AA084F842300123A8E031682368081D30609F
S1133AB01E0601D50D6803E05D06FBD5B1F9005083
S1133AC0002D616878DA2D200029A16084F8430074
S1133AD02DDA6D425D480A231646B5FBF3F103FB6C
S1133AE01157C75D06F8017D2F460D46BB42F4D938
S1133AF0082B0BD12368DF0708D523696168994235
S1133B00DEBF302306F8013C06F1FF36921B22612A
S1133B104B4603AA21464046CDF800A000F01CFC09
S1133B2001306FD14FF0FF3004B0BDE8F08723F0CF
S1133B3004032360CDE721683368080653F8045B67
S1133B4002D4490648BFADB26F2F33603F4814BF5B
S1133B500A230823002184F843106668002EA66017
S1133B60BADB216821F004012160002DB4D1002EBC
S1133B70B2D11646BCE7236843F0200323607827BC
S1133B803348236884F845701F06316851F8045B94
S1133B9002D45F0648BFADB23160D90744BF43F0D9
S1133BA0200323601DB11023D4E72848E9E72368E4
S1133BB023F020032360F6E724480A23CDE7336883
S1133BC02568181D616930602E061B6801D51960CF
S1133BD002E06806FBD5198000231646236197E7A7
S1133BE0336800211A1D32601E686268304600F096
S1133BF089FD08B1801B606063682361002384F839
S1133C00433085E72369324649464046D047013070
S1133C1088D023689B0714D4E068039B9842B8BFFC
S1133C20184681E70123324649464046D0470130D1
S1133C303FF478AF0135E36803995B1AAB42F1DCDA
S1133C40EAE7002504F11906F5E700BF9D4B0000E3
S1133C50AE4B000038B5294B05460C46186818B120
S1133C60036A0BB9FFF756FAB4F90C30190722D4DA
S1133C70DA0607D409222A6043F040034FF0FF30EC
S1133C80A38133E0580712D5616B41B104F14403B9
S1133C90994202D02846FFF7A5FB00236363A3895A
S1133CA023F02403A3810023636023692360A38991
S1133CB043F00803A38123694BB9A38903F4207358
S1133CC0B3F5007F03D02146284600F087FCB4F901
S1133CD00C3013F001020AD00022A2606269524241
S1133CE0A261226942B913F08000C5D138BD990799
S1133CF058BF6269A260F4E70020F7E7641300206C
S1133D0038B50023064D0446084611462B6000F0E2
S1133D10BBF9431C02D12B6803B1236038BD00BF3B
S1133D200C13002038B50023054D044608462B60CB
S1133D3000F0AFF9431C02D12B6803B1236038BDF6
S1133D400C13002038B50023054D044608462B60AB
S1133D50FEF708FB431C02D12B6803B1236038BD76
S1133D600C13002008B500F0E2F9FCF773FA00F038
S1133D70EBF9FCF7A5FAFAE700F072B808B5FCF71E
S1133D804FFDFCF719FBBDE8084000F072B808B518
S1133D9000F064F8FEF7BEFBBDE80840FEF7D8BAB1
S1133DA07047FCF705BC704770477047704710B503
S1133DB0441E14F8010F00B910BDFCF747FBF8E7E7
S1133DC07FB503790291ADF80430012301A900689D
S1133DD0ADF80630ADF80C20FCF72CFE003818BF07
S1133DE00120400007B05DF804FB7FB50379029120
S1133DF0ADF80430022301A90068ADF80630ADF82F
S1133E000C20FCF717FE003818BF0120400007B053
S1133E105DF804FB7FB50346A8B1006898B11B792F
S1133E2001A9ADF804300123ADF806300023029354
S1133E30ADF80C30FCF7FEFD003818BF012040003F
S1133E4007B05DF804FB0120FAE708B5042201235A
S1133E5011460320FDF7A8FC002008BDFFF7F5BFBD
S1133E6008B50422002311460320FDF79DFC002021
S1133E7008BD08B5082000F02BF8BDE8084008206C
S1133E8000F031B8FEE74AB110B5002350F82340E2
S1133E9041F8234001339342F8D110BD704700200C
S1133EA070474FF4004070474FF47A707047FEE754
S1133EB0EFF3108072B6704700B962B67047EFF343
S1133EC01180302383F31188704780F31188704781
S1133ED04FF060420123D2F8001E83400B430020C0
S1133EE0C2F8003E70474FF060410122D1F8003E15
S1133EF0824023EA02030020C1F8003E704708B55F
S1133F00FCF726FCBDE808400021FCF7DDBD0221DA
S1133F100320FDF7C7B808B5FFF7F1FFBDE8084077
S1133F20FFF7F5BF10B50446FCF700FC0021FCF7D1
S1133F30CBFD1CB1BDE81040FDF7A4B810BD70B5B1
S1133F40054614460E46FFF7B3FF2B685C40344029
S1133F505C402C60BDE87040FFF7AEBF70474FF087
S1133F60B0435A6812B19A6A002AFAD17047836939
S1133F705B06FCD5C163704700F008B809B100F0D6
S1133F8007B822207047012100F043B80020704791
S1133F9070B506460D46FFF792FF04461C2E35D831
S1133FA0DFE806F00F18341C1E2034222434343485
S1133FB02628342A2C2E30343434343434343434F3
S1133FC03200FCF799FB002628602046FFF77DFFAE
S1133FD0304670BD0120FCF7D3FFF4E70320FAE775
S1133FE00420F8E70C20F6E70220F4E70620F2E7C5
S1133FF00720F0E70820EEE70520ECE70920EAE7D0
S11340000A20E8E70D20E6E71020E4E70020212657
S1134010DAE700207047FEF74BB810B56FF00404E0
S1134020204605210134FEF74FF93D2CF8D110BD8F
S113403070B50C46154610B9FEF76EF938B14368F1
S11340402BB12A462146BDE870400068184723205A
S113405070BDF7B50D4616461C4648B103B901AC10
S113406087685FB12346324629460068B84706E0B0
S1134070FEF752F904B901AC0028F1D1232003B0B2
S1134080F0BD00207047FEE74FF4005300204B6062
S11340907047012070470020704707B5002001AB2E
S11340A00190FFF7D6FF0198002808BF4FF0FF30BA
S11340B003B05DF804FB00230B707047F0B587B0C4
S11340C01F4600230D46164604468DF81730A8B146
S11340D0C3610DF11701FEF757FA9DF817207AB95D
S11340E0BDF83430294602939DF830302046CDE99E
S11340F000733346FEF7AEF907B0F0BD2220FBE7AC
S11341000320F9E7002070474FF0B0439A6A120782
S1134110FCD4186A704782074FF0B04200F00103E4
S1134120916948BF43F008030B439361704708B596
S1134130FCF7EEF8FFF722FEFFF729FEFFF730FE4B
S1134140BDE80840FFF72DBE08B5FFF72CFEFFF7CA
S11341502BFEFFF72AFEBDE80840FFF727BE2DE936
S1134160F8430746884614460026D4E90195B9F178
S1134170010905D52468002CF7D13046BDE8F88341
S1134180AB89012B07D9B5F90E30013303D0294689
S11341903846C04706436835E9E710B50C46B1F91F
S11341A00E10FFF7D7F80028ABBF636DA3891B1867
S11341B023F48053ACBF6365A38110BD2DE9F041A6
S11341C01F468B8905460C46DB05164605D502239A
S11341D00022B1F90E10FFF7ABF8A3893246B4F907
S11341E00E10284623F48053A3813B46BDE8F041DA
S11341F0FFF7C2B810B50C46B1F90E10FFF798F8E6
S1134200431CA38915BF606523F4805343F4805392
S1134210A38118BFA38110BDB1F90E10FFF778B8C0
S113422002440346934200D1704703F8011BF9E7A7
S11342307047704770470A44431E914200D170474B
S113424010B511F8014B914203F8014FF9D110BD9B
S11342502DE9F0471F468E6882460C46BE429046C2
S11342600B682DD8B1F90C2012F4906F26D0656933
S1134270096905EB4505A3EB01097B1C05EBD57525
S11342804B446D109D4238BF1D46530527D5294622
S1134290FFF71CF9064660B34A462169FFF7CBFFD6
S11342A0A38923F4906343F08003A38126614E44E1
S11342B06561A5EB090526603E46A560BE4200D9AE
S11342C03E4632464146206800F002FAA3680020C8
S11342D09B1BA360236833442360BDE8F0872A4610
S11342E000F01EFA06460028E0D121695046FFF787
S11342F079F80C234FF0FF30CAF80030A38943F05B
S11343004003A381E9E79368013B002B936010B459
S113431008DA9469A34201DB0A2903D15DF8044B4E
S113432000F098B91368581C1060084619705DF8BD
S1134330044B7047F8B506460F461446D518AC42F0
S113434001D1002007E03A4614F8011B3046FFF77C
S1134350DAFF431CF3D1F8BD2DE9F0471646984621
S11343608A6807460B690C46DDF820909342B8BF73
S11343701346336091F843200AB101333360236854
S1134380990642BF336802333360256815F0060589
S113439006D104F1190AE36832689B1AAB422BDC9C
S11343A094F843302268003B18BF0123920630D4AE
S11343B004F1430241463846C847013023D02368FC
S11343C01A3454F80A2C03F00603042B0ABF54F8D9
S11343D00E5C002533684FF0000608BFED1A54F850
S11343E0123C08BF25EAE5759342C4BF9B1AED1839
S11343F0B5421AD1002008E001235246414638460E
S1134400C847013003D14FF0FF30BDE8F0870135D4
S1134410C1E7E1185A1C30200233224481F84300DA
S113442094F8451082F84310C2E70123224641461E
S11344303846C8470130E6D00136D9E7B1F90C2037
S11344402DE9F041170705460C4656D44B68002B5E
S113445002DC0B6C002B3DDDE66A002E3AD0002313
S113446012F480522F68216A2B6025D0626DA389D3
S1134470580705D56368D21A636B0BB1236CD21A43
S1134480216A0023E66A2846B047411C24D0002351
S1134490636023692360A389DA0400D56065616BD6
S11344A02F60B9B104F14403994202D02846FEF7C3
S11344B099FF002363630DE001232846B047461C9F
S11344C00246D4D12B68002BD1D01D2B01D0162B42
S11344D02AD12F6000202EE02A68B4F90C3042B1B2
S11344E01D2A01D0162A21D1002363602369236089
S11344F0D5E7626022692260CEE70F69002FE9D018
S113450093070E680F600CBF4B690023A6EB0708E6
S11345108B60B8F1000FDDDD43463A46216A284638
S1134520A66AB047002808DCB4F90C3043F0400315
S11345304FF0FF30A381BDE8F0810744A8EB0008E9
S1134540E7E738B50B6905460C4613B9002528463C
S113455038BD18B1036A0BB9FEF7DCFDB4F90C30B1
S1134560002BF3D0626ED00704D4990502D4A06D59
S1134570FFF75FFE28462146FFF760FF636E05469E
S1134580DA07E4D4A3899B05E1D4A06DFFF752FEBA
S1134590DDE770B50C46B1F90E1096B0154600294A
S11345A01E460CDAA389002113F0800F14BF4023A8
S11345B04FF48063002031602B6016B070BD6A46F2
S11345C0FFF79EFB0028EDDB019901F47041A1F592
S11345D00053594259414FF48063EBE78B89F7B597
S11345E09D0706460C4607D504F147032360236163
S11345F00123636103B0F0BD01AB6A46FFF7C9FF55
S1134600009F054630463946FEF760FF48B9B4F9C5
S11346100C309A05EED423F0030343F00203A38184
S1134620E2E7A389206043F08003A381019BC4E9EE
S113463004075BB1B4F90E103046FFF773FB28B1E1
S1134640A38923F0030343F00103A381A3891D433A
S1134650A581CFE7F8B50E461446054618B1036A9E
S11346600BB9FEF757FDA369A360A3891A0701D507
S1134670236943B921462846FFF7ECFA18B14FF0F5
S1134680FF373846F8BD2368F6B222693746981AD0
S11346906369834205DC21462846FFF752FF002860
S11346A0EDD1A368013BA36023685A1C22601E70ED
S11346B0431C62699A4204D0A389DB07E1D50A2E20
S11346C0DFD121462846FFF73CFF0028D9D0D6E7A2
S11346D0884210B501EB020402D98442234607D86C
S11346E0431EA14208D011F8012B03F8012FF8E76B
S11346F0024401468A4200D110BD13F8014D02F86C
S1134700014DF7E7C9B20346024410B59342184677
S113471001D1002003E0047801338C42F6D110BDAE
S11347202DE9F041804615460C4621B91146BDE8F5
S1134730F041FEF7CBBE2AB9FEF754FE0024204612
S1134740BDE8F08100F01AF88542064602D8B5EBC0
S1134750500FF4D829464046FEF7B8FE0746002815
S1134760ECD0B5422A46214628BF3246FFF763FD06
S1134770214640463C46FEF735FEE0E751F8043C4E
S1134780181F002BBCBF0B58C01870470000000056
S11347900000000000000000000000000000000015
S11347A0F8B500BFF8BC08BC9E467047F8B500BF1A
S11347B0F8BC08BC9E4670470A204D65206D61799F
S11347C02062656F203132330A0D000A204572726F
S11347D03A2025640A0D00543A20252E32660A0038
S11347E0543A20252E326620432C20483A20252E88
S11347F032662025250A0052656164204572726F75
S1134800720A0000050000000000000000C2010060
S1134810000500000010000000000000000000007F
S1134820BE0800AC3300443A2F6765636B6F5F7357
S1134830646B2F73696D706C69636974795F7364F9
S11348406B5F352F706C6174666F726D2F64726963
S11348507665722F69326373706D2F7372632F7371
S11348606C5F69326373706D2E6300643A5C6765D4
S1134870636B6F5F73646B5C73696D706C696369A0
S113488074795F73646B5F355C706C6174666F72AE
S11348906D5C656D6C69625C696E635C656D5F67B8
S11348A070696F2E68007F033F1F443A2F6765636A
S11348B06B6F5F73646B2F73696D706C696369747C
S11348C0795F73646B5F352F706C6174666F726DA2
S11348D02F656D6C69622F7372632F656D5F636DF5
S11348E0752E6300443A2F6765636B6F5F73646B67
S11348F02F73696D706C69636974795F73646B5F3E
S1134900352F706C6174666F726D2F656D6C6962A2
S11349102F7372632F656D5F6770696F2E63007FFD
S1134920033F1F443A2F6765636B6F5F73646B2F9C
S113493073696D706C69636974795F73646B5F35F7
S11349402F706C6174666F726D2F656D6C69622F68
S11349507372632F656D5F6932632E6300080911FA
S113496008443A2F6765636B6F5F73646B2F7369D9
S11349706D706C69636974795F73646B5F352F70F4
S11349806C6174666F726D2F656D6C69622F7372E2
S1134990632F656D5F727463632E6300443A2F67FF
S11349A065636B6F5F73646B2F73696D706C6963A0
S11349B06974795F73646B5F352F706C6174666FB3
S11349C0726D2F656D6C69622F7372632F656D5FF5
S11349D075736172742E63000126000004000000E8
S11349E00000000000010000000000000B000000B7
S11349F00B00000002000000000020200000000066
S1134A00030000008C8C3C0000000000000000004B
S1134A100000000000000058120000000000000028
S1134A20FFFFFFFFFFFFFFFFFFFFFFFFFFFFFFFF92
S1134A30443A2F6765636B6F5F73646B2F73696DA3
S1134A40706C69636974795F73646B5F352F706C24
S1134A506174666F726D2F736572766963652F6911
S1134A606E746572727570745F6D616E6167657284
S1134A702F7372632F736C5F696E746572727570D5
S1134A80745F6D616E616765725F636F7274657880
S1134A906D2E6300443A2F6765636B6F5F73646BBD
S1134AA02F73696D706C69636974795F73646B5F8C
S1134AB0352F706C6174666F726D2F7365727669D1
S1134AC063652F696F73747265616D2F7372632FE1
S1134AD0736C5F696F73747265616D5F7265746125
S1134AE0726765745F737464696F2E6300443A2F50
S1134AF06765636B6F5F73646B2F73696D706C694B
S1134B00636974795F73646B5F352F706C6174666D
S1134B106F726D2F736572766963652F736C65654B
S1134B207074696D65722F7372632F736C5F736C2D
S1134B3065657074696D65722E630001000000057F
S1134B40000200000300443A2F6765636B6F5F73D4
S1134B50646B2F73696D706C69636974795F7364D6
S1134B606B5F352F706C6174666F726D2F73657235
S1134B70766963652F7564656C61792F7372632F31
S1134B80736C5F7564656C61792E6300232D302B23
S1134B902000686C4C00656667454647003031323A
S1134BA03334353637383941424344454600303191
S1134BB032333435363738396162636465660000F0
S10B4BC018B6FF7F010000009C
S10F4BC8D44B000024130020280000003F
S1134BD4000000007000000000800650030302037C
S1134BE400000000DDFB0500010000000080065009
S1134BF4C0EA2101C0EA21010080000000F049025A
S1134C04C81300200000000003000000D01100209D
S1134C146813002000000000D01100203812002086
S1134C24A0120020000000000000000000000000AA
S1134C34000000000000000000000000000000006C
S1134C44000000000000000000000000000000005C
S1134C54000000000000000000000000000000004C
S1134C64FFFFFFFF1F040101B50100008D010000D7
S9030625D1
