:1000000000100020DD0C0000B7430000B7430000E3
:10001000B7430000B7430000B7430000B7430000F8
:10002000B7430000B7430000B7430000B7430000E8
:10003000B7430000B7430000B7430000B7430000D8
:10004000B7430000B7430000B7430000B7430000C8
:10005000B7430000B7430000B7430000B7430000B8
:10006000B7430000B7430000B1300000B7430000C1
:10007000B7430000B7430000B7430000B743000098
:10008000B7430000B7430000B7430000B743000088
:10009000B74300000D110000B7430000B743000054
:1000A000B7430000B7430000B7430000B743000068
:1000B000B7430000B7430000B7430000B743000058
:1000C000B7430000B7430000B7430000B743000048
:1000D000B7430000B7430000B7430000B743000038
:1000E000B7430000B7430000B7430000B743000028
:1000F000B7430000B7430000B7430000B743000018
:10010000B7430000B7430000B7430000B743000007
:10011000B7430000B7430000B7430000B7430000F7
:10012000B7430000B7430000B7430000B7430000E7
:04013000B7430000D1
:10014000013800D0FCE770470348044B834202D0DB
:10015000034B03B1184770474C1C00204C1C002077
:1001600000000000064B0749C91A891048BF013139
:10017000491003D0044B0BB101481847704700BF2A
:100180004C1C00204C1C00200000000010B5064C48
:10019000237843B9FFF7D8FF044B13B10448AFF3FA
:1001A00000800123237010BD9A130020000000007E
:1001B0006057000008B5054B1BB105490548AFF372
:1001C0000080BDE80840FFF7CDBF00BF0000000081
:1001D0000010002060570000A3F5803A704700BF70
:1001E000174B002B08BF134B9D46FFF7F5FF00216F
:1001F0008B460F461348144A121A04F0CAFA0E4BE3
:10020000002B00D098470D4B002B00D098470020C2
:10021000002104000D000D48002802D00C48AFF367
:10022000008003F0FBFA2000290003F06DFE03F0CC
:1002300025F900BF000008000000000000000000D9
:100240000010002000100020A41B0020000000006F
:1002500000000000034B04481B6803607023037117
:1002600000F0F8B8B81B0020181000200A4601461C
:10027000014800F02FB900BF1810002030B589B038
:10028000012304220521002001F0EAFD00230122C0
:100290001846062101F0E4FD04220F4D012311460A
:1002A000032001AC01F0DCFD0FCD0FC495E8070081
:1002B00084E807004FF4A022084B0948C3F8C4257E
:1002C0004FF4C022C3F8BC25142201A9C3F8AC2501
:1002D00002F0DCF909B030BDF84B000000C003505B
:1002E000008005500146014804F0E0B80080055048
:1002F00010B59AB00446224803F0F6FDFFF7AAFFB6
:100300002049024605A803F023FA05A803F0ECFDF6
:1003100004A903A8FFF7AAFF224604A903A800F036
:1003200083F99DED037ADDED047AFDEEC76ABDEE3B
:10033000E76AF8EEE65AB8EEC65A37EE657A77EE17
:10034000C57ADFED115A67EEA57A27EE257AFDEE24
:10035000E77ACDED017AFDEEC77A8DED006A17EEF2
:10036000903A16EE902A09490DA803F0F1F90DA86C
:1003700003F0BAFDA0B202F045FD1AB010BD00BFF7
:10038000144C0000274C00000000C842334C000011
:1003900007B501A802F076F89DF80530012B27D1AA
:1003A0001E4A936DDB0313D4536B23F4FF0323F432
:1003B000FE4343F4BC1343F4A0635363136B23F471
:1003C000704343F440431363136B43F4E0631363DC
:1003D0009DF8043063B94FF000531B68104B1B6845
:1003E000104B1B68104B1B68104B1B68104B1B6895
:1003F000104AD2F8803043F00303C2F8803004F092
:10040000ABF800F057FC04F0A5F804F054F802F043
:10041000F9FA03B05DF804EB00F042BC00C00050F4
:10042000004000200080002000C0002000000120CB
:10043000004001200080005008B5044804F042F854
:10044000BDE80840024800F0ADBD00BF9455000073
:10045000A41B002013B50446002836D00368A3B3BC
:1004600003F0A5FD10B1022002B010BDBA23012295
:1004700020460DF102018DF8023003F06EFD0028D8
:10048000F1D1282002F0BEFC114B20461A889B783F
:10049000ADF8042001A903228DF8063003F05DFDBC
:1004A0000028E0D10A2002F0ADFC012220460DF127
:1004B000030103F067FD0028D5D19DF8030080F00B
:1004C0000800C0F3C0008000CEE70120CCE700BFE9
:1004D0004B4C0000F0B585B00C461546064610B3EF
:1004E00009B302B32C4B01A91A889B78ADF80420FC
:1004F00003228DF8063003F030FD10B1022005B064
:10050000F0BD14270122304602A903F03BFD18B9C3
:100510009DF90830002B08DA052002F073FC013F3A
:10052000F0D10320EBE70120E9E70622304602A9DB
:1005300003F028FD0028E1D19DF80B10BDF80C3028
:100540000A045BBA9BB202F470221A439DF80A3087
:100550009DF809601B0143EA063343EA111307EED5
:10056000903A9FED0E7AF8EEE77ADFED0D6A67EECE
:10057000877A67EEA67AC5ED007A07EE902AF8EE44
:10058000E77ADFED086A67EE877A9FED077A17EE64
:10059000A67A84ED007AB2E74E4C00000000803568
:1005A0000000C842000048430000484230B585B012
:1005B00003F0F6FE18B12521174803F011FF0020C3
:1005C00000F05CF918B12921134803F009FF134822
:1005D00000F0BCF918B12D210F4803F001FF6FF0B6
:1005E0007F4300250D4C2046C4E9013503F004FD8E
:1005F00020460B4903F064FE052301220093CDE958
:10060000013220462B462A46064903F066FE05B015
:10061000BDE8304000F05AB9514C000020100020D5
:10062000984C0000624C0000F0B59FB090ED007A4D
:10063000D1ED007AFDEEC76ABDEEE76AF8EEE65A44
:10064000B8EEC65A37EE657A77EEC57ADFED1B5AFB
:1006500067EEA57A27EE257AFDEEE77ACDED017AF1
:10066000FDEEC77A8DED006A17EE903A15461449F3
:1006700016EE902A04A803F06BF801240527142332
:10068000104ECDE9013404A92346002230460097DC
:1006900003F023FE2A460C4911A803F059F8282339
:1006A0000022CDE9007311A923463046029403F0DD
:1006B00014FE00F00BF91FB0F0BD00BF0000C842EF
:1006C000714C000020100020874C00000123054AD7
:1006D000411100F01F00834052F82100034342F80B
:1006E000213070474C100020044B1B681BB1044B99
:1006F0000360002070470120704700BF5C1000209D
:100700008C13002070B50D4C246884B10C4C8518F6
:100710002688B5420DDC6688CD18B54209DC52B199
:100720004BB1A0800020E1802281638170BD012057
:10073000FCE70420FAE70520F8E700BF5C10002082
:100740008C1300202DE9F74F9946494B1B68002B6D
:1007500000F08A80B9F1000718BF01274FF0010BA4
:10076000DFF814A17F42BAF80650BAF80A300D9E9D
:100770002B449BB20D440093FFB2ADB21EB930467C
:1007800003B0BDE8F08F009AABB29A426ED9BAF8C6
:100790000840BAF80430241AB44228BF344618443A
:1007A000344B361B80B203EB0512B9F1000F0AD0AF
:1007B000072C26D80444A04216D32846FFF786FF0C
:1007C00001350020DAE7072C1BD80444A042F4D2FC
:1007D000C108535C00F0070C0BFA0CFC23EA0C0375
:1007E0000130535480B2F1E7C10812F801C000F0A3
:1007F00007030BFA03F343EA0C030130535480B2AE
:10080000D9E74FEAD00C02EBD00810F007000BD16B
:10081000E20839464046019203F0BBFF14F007049A
:10082000019ACAD0904412E00BFA00F312F80CE0DF
:10083000DBB2591E5B420EEA01013B400838194306
:10084000044402F80C10E20808F10108E1D10BFAA7
:1008500004F498F80030E4B26242013C13403C409A
:10086000234388F80030A8E7012688E7042686E7B6
:100870005C1000209B1300208C13002037B5114D15
:100880002B68EBB900F078F9044610B1012003B0F1
:1008900030BD00F065F928600028F7D00288418853
:1008A000094B20461A801A814A43598059819C80FD
:1008B000DC802146CDE9004223462246FFF742FF75
:1008C0000020E4E75C1000208C1300202DE9F843A1
:1008D000002301251A461A4FDFF86C803C68DFF8C8
:1008E0006490D8F80000D61841888E4207D3FBB92F
:1008F00010220021124803F04CFF002012E0E10713
:1009000008D50133D118C9060ABF57F82540640835
:100910000135E6E753B109EB021100F0B1F80346E7
:1009200010B10720BDE8F883721CEBE70132E9E75C
:10093000044901EB021100F0A3F80028D8D0F0E739
:100940004C1000209B1300205C10002030B587B0B5
:10095000054600B300226FF07F43C0E9012301A8E0
:10096000FFF7C2FE044698B9019BCDE902001A8840
:100970002B605B88013A013B284602A9049205934B
:1009800003F065FB044618B92846044903F098FCB7
:10099000204607B030BD0524FAE700BFC84F00006D
:1009A00013B5044602F016FA00230122217BCDE99B
:1009B00000324900B0FBF1F1024A034803F01BFE8C
:1009C00002B010BDCD090000741000200122014BBF
:1009D0001A61704700F00350F7B508260E4C054623
:1009E00004F580531E67407B02F08CFB04230B4F01
:1009F00002220DF106013846ADF8063003F09CFCEA
:100A0000384603F0AAFCA87B02F07CFB002004F52A
:100A10000054266703B0F0BD00C00350BC1B00208B
:100A200070B50646124803F04DFDB168002211482A
:100A300000F0B2F8002304220321022001F010FA92
:100A4000002335460C4C04221946184601F008FADA
:100A50000FCD0FC401222B6830462360074B1A705C
:100A6000FFF79EFF3046FFF7B7FF002070BD00BFC5
:100A700094550000BC1B0020601000209B1B002030
:100A80002DE9F74F1446082298460588037901346A
:100A90005D43304B06461A67407BA4B20F4602F016
:100AA00031FB230243F001039BB2B8F1010F4FF079
:100AB000020229484FEAE505ADF806300DF10601BE
:100AC00014D103F039FC2A463946234803F034FC9C
:100AD0004FF6FF73022220480DF10601ADF80630F3
:100AE00003F02AFC002003B0BDE8F08F03F024FCE3
:100AF0004FF0000B01342402DFF85C90A4B208F13F
:100B0000FF3AC3450CD1144803F027FCB07B02F038
:100B1000F9FA0822114B10481A6703F023FCE1E7A9
:100B200039462A46484603F007FCDA450CBF4FF623
:100B3000FF7344F0FF03022248460DF1060104F55D
:100B40008074ADF806302F4403F0F6FB0BF1010B77
:100B5000A4B2D6E700D00350BC1B002000E0035035
:100B6000034B04481B78002B08BF0020704700BFD0
:100B70009B1B00206010002030B587B0054D01ACF4
:100B80000FCD0FC42B6801A82360FFF749FF07B002
:100B900030BD00BFF85200002DE9F04F89B0044687
:100BA0002C4E01AD894690460FCE0FC596E8070042
:100BB000D4F800B0284B85E807009B4545D003F5E5
:100BC00080439B4543D0254DAB450CBF02254FF0DC
:100BD000FF35DFF890A022480AEB4517D7F8AC653F
:100BE00003F070FC606803F06DFC617B207B0023E8
:100BF000042201F035F90422617A207A002301F001
:100C00002FF90123584601A98DF81230CDF80C9028
:100C1000ADF8148001F0CCFD0020627A237A2E35E5
:100C200043EA02430AEB451ACAF80430627B237B8D
:100C300006F0040643EA024346F01806C7F8C0353A
:100C4000C7F8AC6509B0BDE8F08F0025C1E7012504
:100C5000BFE700BF0C5300000080055000000650A5
:100C60009455000000C0035008B50122074B1A70CC
:100C70000022074B1A700422064B1A701F22064BE3
:100C80001A7001F021FF054B186008BD421C0020BE
:100C90009C1B0020411C0020401C002094100020C0
:100CA00008B5034803F00EFCBDE8084003F03AB96C
:100CB00094550000014803F005BC00BF94550000A6
:100CC0000348044A0449121A921003F075BB00BF8E
:100CD0003401000034010000A41B002008B500F01E
:100CE0002FF8FFF7EDFF124B12498B4212D3002071
:100CF000114B12498B4218D3FFF772FA186850F85B
:100D00002240586840F82240013298688242F5D368
:100D10000C33EAE70022F8E71C6844F822000132AD
:100D20005C68A242F8D30833E4E70022F8E700BF8A
:100D30006857000074570000745700007457000093
:100D400070B5124B124A134D9A60D3F8882005F5FE
:100D5000005442F47002C3F888206FF0010222664A
:100D600041F2FF7262660222C3F8D020BFF34F8FB8
:100D7000BFF36F8F4FF44036032001F06FFE032066
:100D8000E66001F051FE2E6170BD00BF00ED00E095
:100D90000000000000800044014B1868704700BF4D
:100DA000D01B0020014B1860704700BFD01B0020F3
:100DB000084B1B6F03F00703022B04D0032B05D055
:100DC000012B05D0FEE7044B18687047034BFBE787
:100DD0000348704700800050D01B0020D81B002023
:100DE000002D310108B5FFF7E3FF054B1B6FC3F37F
:100DF00001330133B0FBF3F0024B186008BD00BFB4
:100E000000800050CC1B00200048704700B4C40490
:100E1000014B1868704700BFD81B0020054B1860B5
:100E2000054B1B6F03F00703032B01D1FFF7DABF5C
:100E3000704700BFD81B002000800050004870475A
:100E4000002D3101174B9868C0F304400C280AD8D4
:100E5000DFE800F00B0909090909072119091B1D21
:100E60001F0011487047002070479B6803F04073D3
:100E7000B3F1807F11D0B3F1007F10D00B4A002B6B
:100E800008BF104670470A4870470A4870470A482A
:100E900070470A4870470A4870470A4870470A482E
:100EA000704700BF0040015A405DC60000093D0088
:100EB000C0EA210180BA8C010048E801005A6202B0
:100EC0000024F40080841E0040420F00014B18688B
:100ED000704700BFD41B002013B50024294801949B
:100EE00003F0F0FA012304220321204600F0B8FFAA
:100EF000204603F0CCFA0122234B0520C3F84424FA
:100F000001A903F0DAFA002839D1204BD3F8F020F8
:100F100042F00102C3F8F020D3F8FC2042F08072C6
:100F2000C3F8FC201A4AA3F55D431A60019B194AD5
:100F300003F5D52303F2FC43B3FBF2F3164A013B5E
:100F400013610223C2F8F0304FF48073C2F8043307
:100F50004FF06043114AC3F8B02F114AC3F8802EF6
:100F6000D3F8002E42F48072C3F8002EFF2283F8DB
:100F70002020D3F8002E22F48072C3F8002E02B095
:100F800010BD00BF9455000000D0035000ED00E0FC
:100F9000FF030040F8590D00000004E055CEACC539
:100FA000090001002DE9F04F85B0044618B9AD21C4
:100FB000454803F015FA2368444A934207D0444A4F
:100FC00093427AD1434803F07DFA012503E0424879
:100FD00003F078FA002501230A22A179207900F094
:100FE0003FFF01230A22E179607900F039FF4FF0D9
:100FF0000A08DFF8F090DFF8F0A0384F267994F86F
:1010000006B0032E05D81AF8063023FA0BF3DA07D8
:1010100004D440F2FE31484603F0E2F930220123C5
:1010200002FB067642F2100203FA0BF3B35064207F
:1010300002F068F8267994F806B0032E05D8284BFC
:101040009B5D23FA0BF3DB0704D440F22D414846A5
:1010500003F0C6F93022012302FB067641F21002AA
:1010600003FA0BF36420B35002F04CF8B8F1010816
:10107000C4D1032307EB0512C2F89834A179237970
:101080004A3543EA0143C2F89C34E27963792D0181
:1010900043EA02437B5140F20113ADF80030E368AC
:1010A00069460293A36820680193237C8DF80C3075
:1010B00000F0C2FF05B0BDE8F08FD221024805B0B4
:1010C000BDE8F04F03F08CB9285300000000015A2E
:1010D000008006508C5500009055000000C0035061
:1010E000C45300007B530000C453000038B50546CC
:1010F00001F0F6F8044C012801D1013C00D138BDC3
:10110000284600F0CDFFF6E7E19304002DE9F04119
:10111000174B1F6D5B6D1F4000D5FEE701260025B4
:10112000144CDFF85880374218D02368C8F8506054
:10113000A3B1A168284601316268A1609847637B2A
:10114000012B0BD150B90C4B03EB45131A7B60F309
:1011500041021A731A7F60F341021A770135082D94
:101160004FEA460604F11004DDD1BDE8F08100BF6E
:101170000000045098110020981000200020045016
:1011800030B541F67133124A124DD469D363936876
:10119000A84204F4803423F4401306D893600E4A26
:1011A000D2F8183223F002030AE043F4801393606C
:1011B0000A4B9842F3D9084AD2F8183243F0020396
:1011C000C2F8183214B10022014BDA6330BD00BFFF
:1011D00000000350005A620200C0075080F0FA027B
:1011E00008B5334B98424FD027D8324B984245D060
:1011F00017D8314B98423ED00AD838B12F4B98427D
:1012000039D041F2A6312E4803F0EAF8002034E04C
:101210002C4B98422FD02C4B9842F2D12B4B586E2E
:101220002BE02B4B98422CD003F5371303F5D863F2
:101230009842E6D1254B986F1FE0264B98422FD05D
:101240000CD8254B984223D0244B984224D0244BD1
:101250009842D6D11D4BD3F884000EE0214B984222
:1012600022D003F5740303F510539842C9D1174BEC
:10127000D3F8980001E0154B986D08BD134B186F1B
:10128000FBE7124B586FF8E7104BD3F88000F4E7F8
:101290000E4BD3F88800F0E70C4BD3F88C00ECE74A
:1012A0000A4BD3F89000E8E7084BD3F89400E4E742
:1012B00080BA8C01405DC60080841E0040420F0051
:1012C000C853000000093D00C0CF6A000080E00F55
:1012D0000024F400007E560380D54302006CDC023B
:1012E0000048E8010090D00338B50F4B0546D3F80D
:1012F00080300C4603F00303022B09D0032B0FD0E0
:101300000A4841F2FF1103F06BF80023184602E08F
:10131000FFF768FD0B2305B1286004B1236038BDD9
:10132000FFF790FD0523F6E700800050C85300004A
:1013300038B5164B0546D3F820010C4600F00700DF
:10134000042818D8DFE800F01F030B0F1300FFF785
:1013500023FD042305B1286004B1236038BDFFF7E5
:1013600057FD0323F6E7FFF76DFD0523F2E7FFF7CF
:1013700065FD0223EEE7064841F27C2103F030F8D8
:1013800000231846E6E70123E4E700BF0080005091
:10139000C853000073B50024144B0194D3F8803176
:1013A000064603F00303022B0D460FD0032B12D089
:1013B000012B15D1214601A8FFF7BAFF0D240EB16C
:1013C000019A326005B12C6002B070BDFFF73AFDA2
:1013D00005240190F3E7FFF731FD02240190EEE7C9
:1013E00041F2D131024802F0FBFFE8E700800050F3
:1013F000C853000038B5104B0546D3F840310C46B1
:1014000003F00303022B0BD0032B0DD0012B0FD1C4
:1014100002F0E0FF082305B1286004B1236038BD65
:10142000FFF754FD0723F6E702F0D7FF0923F2E7A1
:1014300001230020EFE700BF0080005038B5104BBB
:101440000546D3F860310C4603F00303022B0BD0A2
:10145000032B0DD0012B0FD102F0BCFF082305B1E7
:10146000286004B1236038BDFFF730FD0723F6E79D
:1014700002F0B3FF0923F2E701230020EFE700BFEA
:101480000080005038B5164B0546D3F800020C46D4
:1014900000F00700042819D8DFE800F020030B0F44
:1014A000130002F097FF082305B1286004B1236000
:1014B00038BDFFF70BFD0723F6E702F08EFF092387
:1014C000F2E7FFF78FFC0C23800AEDE7054841F2B5
:1014D0008F4102F085FF00231846E5E70123E3E78B
:1014E00000800050C853000038B5164B0546D3F8AD
:1014F00008020C4600F00700042819D8DFE800F0C5
:1015000020030B0F130002F065FF082305B12860CC
:1015100004B1236038BDFFF7D9FC0723F6E702F0DA
:101520005CFF0923F2E7FFF75DFC0C23800AEDE77F
:10153000054841F2C74102F053FF00231846E5E792
:101540000123E3E700800050C853000038B5124B78
:101550000546D3F840320C4603F00303022B0BD0B0
:10156000032B0DD0012B0FD102F034FF082305B15E
:10157000286004B1236038BDFFF7A8FC0723F6E715
:1015800002F02BFF0923F2E7044841F21A4102F06E
:1015900027FF00231846EAE700800050C8530000E8
:1015A00038B5104B0546D3F800310C4603F0030361
:1015B000022B0BD0032B0DD0012B0FD1FFF728FCF2
:1015C000032305B1286004B1236038BDFFF77EFC1A
:1015D0000723F6E702F0FCFE0623F2E701230020D2
:1015E000EFE700BF0080005010B503281BD005D8DE
:1015F000012805D0022810D000240CE00F28FBD1D0
:101600000B4B1C6FC4F30134022C04D140F27D213A
:10161000084802F0E5FE601C10BD054BD3F8904071
:10162000C4F30464F7E7024B1C6FC4F38024F2E7B1
:1016300000800050C85300001FB5002301932528E7
:1016400074D8DFE800F013191C262B353A50555A90
:101650005F64696E73193F73735519262B2635190C
:1016600050266E3A3A3A3A2626265A5FFFF7A0FBF2
:101670000190019804B010BDFFF7B4FBF8E7FFF745
:1016800097FB04460220FFF7AFFFB4FBF0F4019490
:10169000EFE7FFF7A7FB04460320F4E7FFF7A2FB01
:1016A00004460320FFF7A0FFB4FBF0F46408EEE764
:1016B000002101A8FFF76EFEDBE7002101A8FFF77C
:1016C00037FED6E702934FF0E0231B695B0705D591
:1016D000FFF788FB0290029B0193CAE703A902A8C7
:1016E000FFF788FEF7E7002101A8FFF783FEC0E7B8
:1016F000002101A8FFF7A2FEBBE7002101A8FFF728
:10170000C1FEB6E7002101A8FFF7EEFEB1E7002118
:1017100001A8FFF745FFACE7002101A8FFF7E4FDB2
:10172000A7E7002101A8FFF711FFA2E74FF46C71B2
:10173000014802F055FE9CE7C853000008B501209F
:10174000FFF77AFFBDE808400349884294BF0121B2
:101750000221032000F002B880F0FA0210B503283D
:101760003DD00AD801280AD0022826D040F21631EE
:10177000BDE81040224802F033BE0F28F6D14C1EBF
:10178000012C06D9042904D040F2C7211C4802F0DC
:1017900027FE02F04DFE02F053FE1A4A136F23F4A7
:1017A000405343EA04331367FFF71CFB0021FFF7A4
:1017B000E7FCBDE81040FFF7C1BF4C1E1F2C04D949
:1017C00040F20A310E4802F00BFE0E4AD2F8903079
:1017D00023F0F85343EA0463C2F8903010BD4C1E66
:1017E000012C04D94FF44471054802F0F9FD054A73
:1017F000136F23F4806343EA84231367EEE700BF8B
:10180000C8530000008000501FB500230193252815
:101810006FD8DFE800F0136E6E6E6E2D354B5055AD
:101820005A5F64696E6E3A6E6E506E6E6E6E2D6E9D
:101830004B6E69353535356E6E6E555A2E4B1B6FB6
:1018400003F00703013B032B0CD8DFE803F0090288
:101850000507042301930FE00323FBE70623F9E7C1
:101860000223F7E740F2CA41244802F0B9FD03E041
:10187000002001A9FFF78EFD019805B05DF804FB7B
:10188000002001A9FFF754FDF6E702934FF0E02393
:101890001B695B0705D5FFF7A5FA0B230393039B91
:1018A000D8E703A902A8FFF7A5FDF8E7002001A9E2
:1018B000FFF7A0FDE0E7002001A9FFF7BFFDDBE790
:1018C000002001A9FFF7DEFDD6E7002001A9FFF700
:1018D0000BFED1E7002001A9FFF762FECCE7002054
:1018E00001A9FFF701FDC7E7002001A9FFF72EFEC0
:1018F000C2E740F27D51B7E700800050C8530000B6
:10190000024A536A23F001035362704700C0075034
:1019100070B50546FFF764FC431E0333044604D943
:1019200040F6CF11284802F05BFD284B5A68012A87
:1019300004D127494A609A699207FCD10020FFF739
:1019400063FF042803D102F073FD02F079FD214A00
:1019500024F04073954228D01F4A954228D01F4C4E
:10196000E26812F0060FFBD1A668A360A26853409C
:1019700013F4F81F1FD12846FFF714FA0020FFF7D1
:1019800043FF04281ED1FFF72DFA8542044604D2F6
:1019900040F628210C4802F023FD20460021FFF7E5
:1019A000EFFBBDE87040FFF7C9BE43F00073D6E718
:1019B00043F08073D3E740F61721034802F010FD8F
:1019C000A660DBE770BD00BFC853000000C0015037
:1019D00000E0015040420F0080841E0000000150D2
:1019E000F8B5036804460F2B04D940F677316948EF
:1019F00002F0F6FC63680F2B04D940F67A31654893
:101A000002F0EEFCA3680F2B04D940F67D3161484B
:101A100002F0E6FC237B0F2B04D94FF438615D48BC
:101A200002F0DEFC637B0F2B04D940F6833159486A
:101A300002F0D6FCA37B3F2B04D940F686315548F3
:101A400002F0CEFCE37B3F2B04D940F689315148AC
:101A500002F0C6FC2369032B04D940F68C314D48B3
:101A600002F0BEFC6369032B04D940F68F3149486C
:101A700002F0B6FCE369012B04D940F692314548E7
:101A800002F0AEFC0020FFF7BFFE032800F08180CB
:101A900045F60E030221404AC2F880303F4B99625E
:101AA000012103F580539962936DD903FCD4D4E9E5
:101AB00000131B0543EA0163E17B94F820500B43BC
:101AC000217BE77E43EA0143617B6D0143EA0133F9
:101AD000A17B43EA811313619169D4E904031B06D6
:101AE00043EA806301F000410B43A17E94F8230098
:101AF0000B43217E43EA0143617E43EA0123936164
:101B0000136AE66923F00D0394F8221043EA870371
:101B100066BB1362966A94F8213045EA031326F0F7
:101B200033052B4343F0010393621D4D1A4A936D15
:101B300035EA0303FBD10225184B9D62936D5B00D0
:101B4000FCD41369A56823F4700343EA05531361B9
:101B50004FF00042114B9A6119B9022203F58053EC
:101B60009A6278B901220F4B9A620BE0334343F03B
:101B700008031362936A23F0330303432B4343EABE
:101B80004103936294F824301BB1034B064AC3F817
:101B90008020F8BDC853000000C0005000D00050A5
:101BA0000300014000E00050F1A7FFFF014B93F953
:101BB000000070479D1B002010B543680446072BAA
:101BC00004D940F6D351274802F00AFCA368032B3E
:101BD00004D940F6D551234802F002FC2378032BA8
:101BE00004D940F6D7511F4802F0FAFB94F90130AE
:101BF000002B04DA40F6D9511A4802F0F1FB4FF4F9
:101C0000D1510220184A6378516218494F2B48601D
:101C10004FF0010028BF4F2301F580514860116942
:101C2000C903FCD4217843EA01235361D4E90113A9
:101C30001B0143EA0123617B0B43217B43EA410300
:101C40009360E37BA17B1B0143EA4113617C0B435F
:101C5000217C43EA41035360A37C13B16FF4D15359
:101C6000536210BDC8530000000002500010025023
:101C7000014B1880704700BF3E1C0020014B1880AC
:101C8000704700BF3C1C002010B5454B04469842ED
:101C900065D03BD8A3F5B703A3F5586398425AD053
:101CA0002DD8404B98424AD013D8002863D041F237
:101CB000C9113D4802F094FB40F673713A4802F0B6
:101CC0008FFB384B9C4269D0384B9C4258D1002343
:101CD00032E0364B984226D0354B9842E7D1354B0F
:101CE000D3F8A040621E033224F0407404D940F6B9
:101CF00073712D4802F074FB2F4A946010BD2F4B76
:101D00009842D4D12B4BD3F8BC40EBE72C4B9842F4
:101D100029D02C4B98422AD02B4B9842C7D1254B27
:101D2000D3F8C840DEE7234BD3F8A040621E03324D
:101D300024F040742CD8234643F08074DCE71D4B1C
:101D4000D3F8A040621E033224F040741AD8234610
:101D500043F00074D0E7174BD3F8B840C2E7154BF7
:101D6000D3F8C040BEE7134BD3F8CC40BAE7114BD1
:101D7000D3F8D040B6E740F673710B4802F030FB61
:101D80000024B9E740F67371074802F029FBDEE74B
:101D900040F67371044802F023FBCCE70023D7E739
:101DA000C0EA210140420F00C853000080841E0099
:101DB00000093D000080E00F0040015A0024F400BB
:101DC0000048E801005A620280BA8C01034A017996
:101DD000D36E23F030030B43D366704700400050AE
:101DE00038B5032804460D4604D80B4B1B5CCB408A
:101DF000DB0704D440F22D41084802F0F1FA30220A
:101E00000123544341F2100204F1A044AB4004F515
:101E10007034A35038BD00BF595400007B530000FC
:101E200038B5032804460D4604D80B4B1B5CCB4049
:101E3000DB0704D440F2FE31084802F0D1FA302228
:101E40000123544342F2100204F1A044AB4004F5D4
:101E50007034A35038BD00BF595400007B530000BC
:101E6000F8B5032804460D4616461F4604D81C4BF9
:101E70001B5CCB40DB0704D44FF4B071194802F06F
:101E8000AFFA26B129462046CFB1FFF7A9FF04EBF0
:101E90004403072D4FF00F014FEA031312D8A80097
:101EA00006FA00F281401048184402F0E1FAAEB997
:101EB0002946204677B1BDE8F840FFF791BFFFF70C
:101EC000AFFFE4E7A5F10800800006FA00F28140C8
:101ED0000648E9E7BDE8F840FFF7A2BFF8BD00BF3C
:101EE000595400001054000004C003500CC00350AB
:101EF000F8B506460F461546002A6AD003F00304DB
:101F0000836823F44073836002F06BFAB26882EA5C
:101F1000042303F440735340B36002F066FA37B908
:101F20002D4B9E420DD11620FFF786FB0746B36866
:101F30009A0717D5012C1BD0022C27D064B9274B48
:101F400017E0274B9E4201D11720EDE740F22F11F9
:101F5000244802F045FAB3684FF4B271214802F008
:101F60003FFA08E0012C13D0022CE7D11E4B00E011
:101F70001E4B9F42F0D91E4B1B5D6B430AD140F2B2
:101F80007511BDE8F840174802F02ABA194BF0E77E
:101F9000194BEEE7A3EBC504013C3C44B4FBF3F45E
:101FA000013C0CD540F27B110E4802F019FA4FF4B7
:101FB000BE710C4802F014FAB368B461F8BDB4F510
:101FC000007FF4D2B3689B07F7D5002C08BF01242B
:101FD000F3E740F21511D4E70000015A80841E0097
:101FE000008006505D540000002D3101404B4C0034
:101FF000A5540000809FD5004054890038B50B4B94
:10200000044698420D4607D0094B984204D040F24E
:102010009511084802F0E4F9043425B104F5805420
:102020000123236038BD04F50054F9E70000015A8C
:10203000008006505D54000038B5154B04469842A8
:102040000D4607D0134B984204D04FF4D571124877
:1020500002F0C6F90023114A236404F50053DA6341
:102060006A7804F108037AB903F5805302221A60F2
:102070002046D5E901122B7BFFF73AFF204629784D
:10208000BDE83840FFF7BABF03F50053EEE700BFE5
:102090000000015A008006505D540000FFFF1F0041
:1020A00070B5894B98420AD0884B98421DD0884819
:1020B00040F2012102F094F96FF0030070BD854BEE
:1020C0009968C26B12F4C06F15D091050FD5FD222F
:1020D0005A7009221A700022026493F90110012932
:1020E00000D15A7093F90100E8E77B4BE8E7560509
:1020F000EFD5FE22ECE71C78082C00F2E180DFE847
:1021000014F009001F004500530070007E009C0081
:10211000A700D6004C880A88E5060AD5120A02F004
:10212000060242F0F002012119704263C1600120F1
:10213000C4E702F0FE02A10748BF42F00102F2E745
:10214000160608D5802100F50052D1634FF60872BB
:102150001A80022318E05506E9D5402400F5005204
:10216000D4634A88D40604D502221A700B784363DC
:10217000DDE796076AD507221A701B7901EBC303C6
:102180001B89012BD3D10823C360D0E71506D9D40E
:102190005406CCD5402400F50052D4634A889207F7
:1021A00054D503221A708CE74C880A88E60643BF90
:1021B000120A02F0060242F0F00202F0FE02650787
:1021C00009D51C7942F0010201EBC40109890129FA
:1021D00004BF0821C160042119700123C360426358
:1021E000A5E71406AED45206A1D5402400F500524E
:1021F000D4634A88560729D507221A7097E71A79B7
:102200005D8801EBC2042689AE420FD8002401325A
:10221000D2B21A715C804C886507C2D4E40702D43C
:10222000012A7FF64EAF08221A7092E76268691C95
:102230005980525D42630622DFE7160682D45506B6
:102240007FF575AF402400F50052D4630522A9E75D
:1022500094067FF56CAF456A204C46691A79344084
:10226000B4F5003F04BF466A4FF4005601EBC201CB
:1022700000F500540A8908BFE6632026E6635C88FF
:10228000A24281BF4968661C5E800D5559888A420A
:10229000C9D90424012AC46004D0013A914201D171
:1022A0000822C2601A78092A3FF415AF3FE7D20529
:1022B0007FF53DAF4FF4807100F50052D16308E720
:1022C0004FF609321A8006E70000015A00800650D6
:1022D0005D5400001812002024120020200002008B
:1022E00038B5294B044698420D4607D121B940F232
:1022F0006A31264802F074F8254B13E0254B9842CA
:102300000DD040F26931214802F06AF825B940F257
:102310006A311E4802F064F86FF0030038BD0029EE
:102320002AD01D4B2269D00744BF2022E2606A8870
:10233000910702D529890029EED0520702D52A8AB1
:10234000002AE9D04FF480721A6000229D601A7151
:10235000C023E3606369DB0514D4202204F5005335
:10236000DA630E4A2046DA63236C43F4FC63236489
:10237000BDE83840FFF794BE40F26A31034802F0EE
:102380002FF8CEE7636AE5E70000015A5D540000CC
:10239000181200200080065024120020FFFF1F00AA
:1023A00038B5022805460C4603D94C210C4802F0EA
:1023B00017F8E378627821785B0143EA8203227997
:1023C0000B4343EA02130C226A4302F1B042136347
:1023D000012902BFA278034B43F8252038BD00BF76
:1023E000A9540000D080035008B54FF0B0435A689C
:1023F0006AB958B15B680BB102F04AF801210D4B84
:10240000596002F045F84FF0B043D96008BD5B68F1
:102410000BB102F03DF80028F0D102F039F84FF08E
:10242000B0430222DA6002F033F80122024B5A6014
:10243000ECE700BF001000580020005810B54FF026
:10244000B0414B680BB102F023F801220B4BC4786A
:102450005A608378934043EA8403447823430479A1
:1024600043EA0413447943EAC4038B60044B5A6083
:102470000378C3F10203CB6010BD00BF00200058F9
:1024800000100058054B5B69C3F38512827003F09E
:102490003F021B0B42700370704700BF00C0075023
:1024A0000D4B984208D1A3F50033C3F88411C36DD6
:1024B00043F08003C3657047084B984204D1A3F5ED
:1024C0001033C3F89411F2E7054B984204BFA3F50B
:1024D0002033C3F8A411EAE70080055000C005507E
:1024E00000000650F8B507460C461D4616464AB988
:1024F0004FF4A171314801F073FF24B1402D08D190
:10250000062327E019B90320FFF796F80446402D6B
:1025100042D0402D09D87DB1202D17D040F289112D
:10252000BDE8F840254801F05BBF602DF6D1B6EB61
:10253000940F3CD804230DE0B6EB141F04D94FF4DC
:10254000BA711E4801F04CFF102303E0B6EBD40F24
:102550001CD808235E43730803EB4413B3FBF6F364
:10256000174E203BB6EBC30F4FEAC30404D24FF41F
:10257000D071124801F034FFBB68344023F060038F
:10258000BB60BB681D43BD60FC61F8BD40F27911C2
:102590000A4801F025FFDCE70623B4FBF3F3B3425E
:1025A000AED24FF4BF71054801F01AFFA8E740F220
:1025B0008311024801F014FFBCE700BFF254000091
:1025C000F8FF7F0070B506460C46154622B940F26A
:1025D0008E210C4801F004FF1CB90320FFF72CF8F2
:1025E00004466D00013CB4FBF5F4074B250213EAE9
:1025F000042304D040F2B321024801F0F1FEF5615A
:1026000070BD00BFF2540000070080FF10B51B4BE7
:10261000044698420CD003F58043984208D003F555
:102620008043984204D040F24241154801F0D8FE60
:10263000012204F580535A6040F6AA6341F2050274
:10264000636100230F49A360E365E26004F5005273
:102650002361E361E36491640849A3658C4203D17B
:1026600023650023636506E007498C42F8D001F535
:1026700080418C42F4D00123536010BD008005508E
:10268000F2540000FFFF010000C0055070B5444B3C
:10269000044698420D460CD003F58043984208D07A
:1026A00003F58043984204D040F2FD213D4801F0FB
:1026B00097FE2046FFF7AAFF012304F580567360BA
:1026C000AB7C1BB1A36843F08043A360EB7C1BB1E0
:1026D0002046297DFFF7E4FE2A8A6B7B20461343C0
:1026E000EA891343E3602B7BD5E90112FFF7FAFE79
:1026F0006B7D1BB1A36843F48033A360AB7D1BB13A
:10270000A36843F40043A360EB7D2A7E1B071205F8
:1027100002F4E00203F0E0431343A365697E204A1C
:102720008B1E012B204B1DD8944217D002F58042FE
:10273000944215D002F5804294420CBF02224FF021
:10274000FF3203EB4213022041F2AC5203299850AE
:1027500020D10423F3652B78636170BD0022F0E77C
:102760000122EEE7944211D0104A944210D002F5B3
:10277000804294420CBF02224FF0FF3203EB42131F
:10278000022042F2AC5201299850E1E70022F5E71D
:102790000122F3E7042204F50053DA65DBE700BF0A
:1027A00000800550F254000000C0035000C00550E6
:1027B00038B5294B044698420D460CD003F58043AA
:1027C000984208D003F58043984204D040F2693122
:1027D000224801F005FE2046FFF718FF012204F50C
:1027E00080535A602B8AA26843F001031343AA7BEB
:1027F00043EA8223A360A3682A7D43EA4273A3606D
:10280000AB7C1BB12046E97CFFF74AFED5E90112FB
:102810002B7B204643F48053E360FFF7D3FE6B7BB2
:102820000BB1102363616B7D1BB1A36843F480334C
:10283000A360AB7D1BB1A36843F40043A360EB7DB1
:102840002A7E1B07120503F0E04302F4E002134363
:10285000A3652B78636138BD00800550F2540000F9
:1028600030B58BB06D46604C0FCC0FC554F8043BAF
:1028700068462B604FF07E6393F89C306D46FF2BCB
:1028800008BF25238DF80130FFF796F93220FFF7B6
:10289000EFF90FCC0FC50FCC0FC594E8030085E806
:1028A0000300524BD3F84C21110340F18380A3F570
:1028B000FE431C884FF6FF739C4208BF81248DF8AD
:1028C0001940FFF773F9044484F3080448488DF86D
:1028D0001840FEF7A3FA6846FFF782F83220FFF7A8
:1028E000CDF9444C4448FFF713F84448FFF7CCF9BE
:1028F00001F0AAFD236F002023F0070343F0020339
:102900002367236F23F4505343F48063236701F05C
:10291000A2FD3B4BD3F8FC20D2014FD4D4F8803039
:1029200023F0030343F00203C4F88030314BD3F8A3
:10293000202122F0070242F00102C3F82021D3F83F
:10294000802122F0030242F00102C3F88021D3F873
:10295000402122F0030242F00202C3F84021D3F8E2
:10296000602122F0030242F00202C3F86021D3F892
:10297000402222F0030242F00202C3F84022D3F8C0
:10298000002222F0070242F00202C3F80022D3F82C
:10299000082222F0070242F00202C3F80822FEF7E2
:1029A000AFFF4FF0E0220020136963F004031361CE
:1029B0000BB030BDD3F85041E4B280E7D3F8FC202F
:1029C00022F08072C3F8FC20D4F8802022F00302A9
:1029D00042F00202C4F88020D3F8FC2042F080725A
:1029E000C3F8FC20A2E700BF3C5500000080E00FC8
:1029F00000F049020080005000B4C404C0EA210184
:102A000000ED00E013B50024064A6846536F43F01A
:102A10000103536700948DF80440FFF7D7F920466F
:102A200002B010BD0040005010B53D28044608D843
:102A300001236109074A04F01F04A34042F8213032
:102A400010BD4FF48A71044801F0CAFC002CF7DB7A
:102A5000EEE700BF00E100E098550000002808DB29
:102A600001224309034900F01F008240603341F80E
:102A70002320704700E100E038B500F110034D2B32
:102A800004460D4604D94FF4E1710D4801F0A8FC4D
:102A90001E2D04D940F2C311094801F0A1FC002CFD
:102AA000ACBF04F16044074B4FEA0515EDB2ABBF74
:102AB00004F5614404F00F0484F800531D5538BD3B
:102AC0009855000014ED00E010B501F08AFC034BAE
:102AD0001C6801F08AFC204610BD00BF30120020A7
:102AE00010B50020144601F042FD022804D018B1B0
:102AF000C321024801F074FC204610BD0A560000B4
:102B0000034B0222186800238068194600F06CBD50
:102B1000EC1B00200346054A0549106803448B421C
:102B20008CBF4FF0FF301360704700BFDC1B0020EC
:102B30000080012030B50E4C416123688BB92060C4
:102B400083600DE0891A9A681D4641616AB1134697
:102B50005A698A42F6D935B1A860521A83605A611F
:102B600030BD0025F4E72060F7E798608260F7E762
:102B70003C12002038B501F080FD0025084B094CBF
:102B80001A682368C31A2AB123B15169994203D341
:102B9000C91A5161206038BD55615B1A9268F2E72D
:102BA0003C1200203812002038B5134D2B685B69A9
:102BB00093B1124A022014681C4401F065FD2046BE
:102BC00000F024FA00230E492A680B70D088800791
:102BD00009D501230B7038BD022001F055FD0220FC
:102BE00000F05EFAEEE79268002AF4D050690344E0
:102BF000012BEBD9EFE700BF3C1200203812002078
:102C00009F1B002070B516469DF81420C0E90336BE
:102C10000271049ABDF818300260002204460D4685
:102C20008260C380EEB901F028FD2844A0619DB107
:102C30002E4601F0D6FB0546FFF79CFF31462046A5
:102C4000FFF778FF104B1B68A34201D1FFF7ACFFE1
:102C5000284601F0CAFB02E0E36865617BB9002009
:102C600070BD01F00AFD3044A061002DE0D1E368A1
:102C70006561002BDDD0204621689847D9E72046C2
:102C800021689847EBE700BF3C12002000220C4966
:102C90000B687BB183420AD183687AB19360836801
:102CA0001BB15A6941690A445A61002070471A46AB
:102CB0009B68EEE70028EFD0022070470B60EEE73C
:102CC0003C12002070B501F093FB144E0546347899
:102CD000FCB9134B1C60134B1C60134B1C8000F0A1
:102CE00055F9012001F0D0FC00F0FCF90F4B024631
:102CF000186020B9284601F081FB232070BD2346CF
:102D000040F2E7310A4800F029FA0A4B1860012323
:102D10003370284601F072FB0020EFE7A01B002073
:102D20003C1200203812002098130020401200208E
:102D300018FCFFFF3412002070B5044640B301F0C8
:102D400050FB144E0546FFF715FF3068A04209D02E
:102D50002046FFF79BFF0446B0B1284601F045FB33
:102D6000204670BDFFF792FF04460028F5D1336876
:102D70003BB9022000F07CF9284601F036FB002424
:102D8000EEE7FFF711FFF7E73368002BF4D1F0E728
:102D90002224E5E73C12002038B50C460546A8B1D0
:102DA000A1B100230B7001F023FB0121084B1B682C
:102DB00033B901F023FB002038BD9D4204D12170BE
:102DC0002278002AF9D0F4E79B68F1E72220F3E7A4
:102DD0003C120020014B1868704700BF40120020D1
:102DE00038B50021044640F2E730054B4FF47A72C3
:102DF0001D680023E5FB040100F0B0F938BD00BFF9
:102E00004012002000B58DB001238DF80F30FFF780
:102E1000E7FF00230146CDE90033074A0DF10F0318
:102E200004A801F004FC18B99DF80F30002BFBD169
:102E30000DB05DF804FB00BFF14500002DE9F0473F
:102E4000C20704460BD54D4A138801339BB2138049
:102E5000FFF790FE4A4B1B680BB1FFF7A5FEA307D7
:102E600040F18A8001F0C4FA4FF0000905464E4651
:102E7000FFF780FEC846424F3C680CB163698BB1D6
:102E80000022404B012E1A7003D119F0020F18BF17
:102E90001E70002C6CD0FFF787FE2846BDE8F04777
:102EA00001F0ACBA23465A693AB91A7921799142AC
:102EB00088BF1C469B68002BF5D1284601F09EFA7E
:102EC0002569DDB101F0D9FBA269A0EB02094FEA47
:102ED000E9734D4578EB030311DA23691344A361C9
:102EE000E368B4F80690013613B12046216898478C
:102EF00001F07EFA0546FFF73DFEBDE7A94601F069
:102F000077FA82462046FFF7C1FE504601F076FA76
:102F10002369002BE4D0B5EB09054FEAE97363EBB5
:102F20004303002B04DA40F23451174801F058FAF9
:102F3000A38B33B1E28B13449BB2B3F57A7F0FD2EC
:102F4000E38301F055FA814629462046FFF7F2FD5A
:102F5000A369226948461344A36101F04FFABFE711
:102F6000A3F57A73E383A369013D013BA361E8E71D
:102F7000022000F07DF890E7BDE8F087981300206C
:102F80003C1200209E1B0020715600001FB500243B
:102F90001B4B18689A880290D3F806009B7A009021
:102FA0001848ADF80C208DF8043001F08BFA8DF83C
:102FB000084001F060FB8DF80C0002A8FFF73EFA14
:102FC000694601208DF80040FFF7EAF94FF0B04361
:102FD0001F219A6922F01F029A610B4A51619A6A75
:102FE00012F00802FBD11A620120FFF7FDF90A2056
:102FF000FFF734FD0A20FFF717FD04B010BD00BF36
:10300000CD560000885500000020005810B5044639
:1030100001F0E7F94FF0B042936A1907FCD4136A44
:10302000116C5269120704D4CA1A032A01D88B42C0
:103030000ED1E21A022A98BFDC1CB4F1FF3F38BF60
:10304000013C4FF0B0431C649A6942F008029A6157
:1030500001F0CBF9054A13783BB14FF0B041CB6B8F
:1030600043F00203CB630023137010BD431C002008
:10307000820700F001030AD50121084A43F0080342
:1030800011704FF0B041CA6B22F00302CA634FF0D7
:10309000B0418A6922EA03038B617047431C002018
:1030A000830742BF0822014B5A6170470010005845
:1030B00010B501F09DF94FF0B04304465B691A0763
:1030C000074A03F0010003F00D0348BF40F002007F
:1030D0005361FFF7B3FE2046BDE8104001F08EB902
:1030E0000020005807B5064B01A9187901F0E5F951
:1030F00001F0C1FA019B23FA00F003B05DF804FB74
:103100007855000010B50446FDF76CFE4FF47A7256
:103110009042B0FBF2F105D23621BDE810400C48D8
:1031200001F05EB90B4BB3FBF1F30B49884201D9B7
:103130003C21F2E702FB04F0B0FBF3F0022806D9D1
:10314000BDE810400323B0FBF3F0FCF7F9BF10BD5E
:10315000D856000040420F00E7CD9A3B53B94AB918
:10316000002908BF00281CBF4FF0FF314FF0FF308F
:1031700000F082B9ADF1080C6DE904CE00F006F85C
:10318000DDF804E0DDE9022304B070472DE9F04FDB
:10319000099D0C46002B4DD18A420F468446964627
:1031A000B2FA82F360D94BB102FA03FEC3F12002F6
:1031B0009F4000FA03FC20FA02F217434FEA1E4632
:1031C0001FFA8EF44FEA1C42B7FBF6F106FB1177AB
:1031D00001FB04F042EA0742904208D91EEB0202CA
:1031E00001F1FF3702D2904200F231813946121AC2
:1031F0001FFA8CFCB2FBF6F006FB102200FB04F475
:103200004CEA024C644508D91EEB0C0C00F1FF326D
:1032100002D2644500F21E81104640EA0140ACEB48
:10322000040C002125B12CFA03F30022C5E9003279
:10323000BDE8F08F8B4205D90DB1C5E90001002131
:103240000846F5E7B3FA83F100294DD1A342C0F057
:10325000F380904280F0F080064623460846002D19
:10326000E6D0C5E90063E3E7002B40F0A3808A1AAB
:103270004FEA1E471FFA8EF60121B2FBF7F407FB57
:1032800014204FEA1C4242EA004206FB04F090423E
:103290000FD91EEB020204F1FF382CBF4FF00109D9
:1032A0004FF00009904203D9B9F1000F00F0CC8033
:1032B0004446121A1FFA8CFCB2FBF7F007FB1022EF
:1032C00000FB06F64CEA024C664508D91EEB0C0CD6
:1032D00000F1FF3202D2664500F2B3801046ACEB3B
:1032E000060C40EA04409DE7C1F120068B4004FA39
:1032F00001FE22FA06F720FA06FCF4408A401F433A
:103300004EEA0C0300FA01FE4FEA17484FEA134950
:103310001FFA87FCB4FBF8F008FB104449EA0444A8
:1033200000FB0CF9A1450ED93C1900F1FF3A2CBF66
:103330004FF0010B4FF0000BA14503D9BBF1000F7B
:1033400000F08B805046A4EB09041FFA83F9B4FB0C
:10335000F8F308FB134403FB0CFC49EA0444A445BE
:1033600006D93C1903F1FF3801D2A4457BD8434666
:1033700043EA0040A4EB0C04A0FB02984445CC4671
:10338000434602D306D1CE4504D20138B9EB020C34
:1033900068EB0703002D6CD0BEEB0C0264EB03045A
:1033A00022FA01F304FA06F6CC4000211E43C5E9D7
:1033B00000643DE702FA03FEC3F1200104FA03F2C0
:1033C00000FA03FCCC404FEA1E4720FA01F11FFA35
:1033D0008EF6B4FBF7F00A4307FB1044110C41EAE8
:1033E000044100FB06F48C420ED91EEB010100F1F2
:1033F000FF382CBF4FF001094FF000098C4202D971
:10340000B9F1000F2CD04046091B92B2B1FBF7F482
:1034100007FB141142EA014204FB06F1914207D96D
:103420001EEB020204F1FF3801D291421ED844463D
:10343000521A44EA004120E7861A64EB0303012094
:103440000DE7F44402384AE7023C724431E702399E
:103450007244CCE6F4440238DFE602383C4472E7BA
:1034600002387144D0E7023B3C4481E7023C72449D
:10347000DEE72946DCE600BF704700BF08B5064B13
:10348000044613B10021AFF30080044B1B6803B165
:103490009847204601F096F8000000007C130020B9
:1034A000002310B504468360818119464366C281BA
:1034B00008228361C0E90033C0E904335C3001F0C5
:1034C00068F90D4B246263620C4BA3620C4BE36200
:1034D0000C4B23630C4B9C4206D003F168029442D0
:1034E00002D0D0339C4205D104F15800BDE8104011
:1034F00001F057B910BD00BF0D4700002F47000075
:10350000674700008B47000044120020024A03492D
:10351000034801F0DDB800BFE01B0020734A000043
:10352000F01B002041680C4B994210B5044601D0B5
:1035300001F09FFAA168094B994202D0204601F0A0
:1035400098FAE168064B994204D02046BDE8104045
:1035500001F08FBA10BD00BF44120020AC12002051
:103560001413002010B50B4B04210B4C0B4A2046C2
:103570001A600022FFF794FF04F16800012209217C
:10358000FFF78EFF04F1D00002221221BDE81040A7
:10359000FFF786BF7C130020441200200D35000089
:1035A000014801F0FFB800BFA21B0020014801F054
:1035B000FAB800BFA21B002010B50446FFF7F0FFC9
:1035C000236A1BB1BDE81040FFF7F0BF044B236234
:1035D000044B1B68002BF5D1FFF7C4FFF2E700BFD7
:1035E000253500007C1300202DE9F7431D46574B7D
:1035F00004460E461F68904627B13B6A13B9384609
:10360000FFF7DAFFB8F1020F06D0B8F1010F00F2B0
:103610009980002DC0F29680636ED90705D4A389E6
:103620009A0502D4A06D01F0BDF82146384601F09C
:1036300020FA616B41B104F14403994202D038464B
:1036400000F010F9002363630023A3616360A38982
:103650001B0603D52169384600F004F9A389B8F1A7
:10366000020F23F44A6323F00303A38160D001AB6C
:103670006A462146384601F024FAA3891843A081FE
:103680002DBB009D284600F037F90646002851D191
:10369000DDF80090A9453FD14FF0FF35B4F90C306B
:1036A00043F00202A2810022A26004F147022260DC
:1036B000226101226261626ED60704D4980502D4A9
:1036C000A06D01F070F8284603B0BDE8F083002E2D
:1036D000D8D03B6A13B93846FFF76EFFB8F1010F37
:1036E000266002BFA38943F00103A381B4F90C3023
:1036F00013F00802C4E904651ED0D90745BF0022B3
:103700006D42A560A26048BFA561626ED20701D478
:103710009B0513D50025D6E7484600F0EDF8064690
:103720000028B9D0A3894D4643F08003A381D0E798
:103730000025B3E7A946F5E7A260E6E7A06D01F032
:1037400032F8E7E74FF0FF35BDE700BFEC1B002084
:103750000EB400B59CB06FF000411DAB0290069016
:10376000079104910848094953F8042B059102A9CF
:103770000068019300F06EF9029B00221A701CB0E1
:103780005DF804EB03B07047EC1B00200802FFFF5C
:1037900038B50023054D044608462B6000F010FFA5
:1037A000431C02D12B6803B1236038BD8013002075
:1037B00038B50446064D0846114600222A601A46CE
:1037C00000F006FF431C02D12B6803B1236038BD13
:1037D0008013002038B50446064D084611460022E5
:1037E0002A601A4600F0F6FE431C02D12B6803B192
:1037F000236038BD8013002038B50446064D0846C6
:10380000114600222A601A46FFF76AF9431C02D1CA
:103810002B6803B1236038BD8013002070B50D4DB7
:1038200000260D4C641BA410A64209D10B4D0026A6
:103830000B4C01F0D5F9641BA410A64205D170BD54
:1038400055F8043B01369847EEE755F8043B01363E
:103850009847F2E7441C0020441C0020441C002030
:10386000481C002038B50546002941D051F8043CD9
:103870000C1F002BB8BFE41800F0E0F81D4A1368D5
:1038800033B9636014602846BDE8384000F0DCB806
:10389000A34208D9206821188B4201BF19685B68D0
:1038A00009182160EDE71A465B680BB1A342FAD90B
:1038B00011685018A0420BD12068014450181160C3
:1038C0008342E0D118685B68084453601060DAE70F
:1038D00002D90C232B60D6E7206821188B4202BF47
:1038E00019685B680918636008BF21605460CAE703
:1038F00038BD00BF88130020024B0146186800F055
:1039000025B800BFEC1B002070B50F4E0C460546D5
:10391000316811B900F0D8FA30602146284600F02D
:10392000D3FA431C03D14FF0FF34204670BDC41CB2
:1039300024F00304A042F8D0211A284600F0C4FA6B
:103940000130F2D1EFE700BF841300202DE9F041F0
:10395000CD1C064625F0030508350C2D38BF0C2577
:10396000002D01DBA94204D90C2333600020BDE8FF
:10397000F081314F00F062F83B681C4644BB294699
:103980003046FFF7C1FF431C044650D13C68214636
:10399000002941D1002C44D02368304604EB0308B1
:1039A00000F092FA80453CD1216830466D1A2946D4
:1039B000FFF7AAFF013034D023682B4423603B6813
:1039C000002B36D05A68A24229D100225A600EE05C
:1039D0002268521B1DD40B2A16D96119A3422560F7
:1039E00018BF5960636808BF396062514B60304648
:1039F00000F02AF804F10B00231D20F00700C21A82
:103A0000B5D01B1AA350B2E7A3426268DED13A6078
:103A1000EDE723466468B1E70C464968B8E713460A
:103A2000CEE70C233046336000F00EF89EE70560C9
:103A3000DDE75B60FFDE00BF88130020014800F077
:103A4000B1BE00BFA11B0020014800F0ACBE00BF0A
:103A5000A11B00202DE9F04F98468B899DB00746A9
:103A60001B060D46144610D50B6973B94021FFF7AC
:103A70006DFF2860286130B90C233B604FF0FF30A8
:103A80001DB0BDE8F08F40236B610023CDF80C80A2
:103A90004FF00109DFF8A081099320238DF8293028
:103AA00030238DF82A3023469A4613F8012B0AB1A9
:103AB000252AF9D1BAEB040B0BD05B4622462946E6
:103AC000384600F086FE013000F0A780099A5A447B
:103AD00009929AF80030002B00F09F8000234FF0ED
:103AE000FF320AF1010A049307938DF853301A93B9
:103AF000CDE90523544605224F4814F8011B01F077
:103B00001FF8049AD8B9D00644BF20238DF853304B
:103B1000110744BF2B238DF853309AF800302A2B1D
:103B200015D0079A544600204FF00A0C214611F890
:103B3000013B303B092B4BD9B0B1079214E0A0EB0D
:103B40000803A24609FA03F313430493D2E7039B45
:103B5000191D1B68002B0391BBBF5B4242F00202A0
:103B600007930793B8BF049223782E2B0AD163786A
:103B70002A2B32D1039B02341A1D1B6843EAE373DC
:103B800003920593DFF8C0A003222178504600F08D
:103B9000D7FF38B1A0EB0A004022049B01348240D9
:103BA0001343049314F8011B062224488DF82810AF
:103BB00000F0C6FF002836D0214B1BBB039B073308
:103BC00023F0070308330393099B334409936AE7FF
:103BD0000CFB02320C460120A8E7002301344FF011
:103BE0000A0C19460593204610F8012B303A092A91
:103BF00003D9002BC6D00591C4E70CFB0121044674
:103C00000123F0E703AB2A4604A9384600930D4B85
:103C1000AFF30080421C0646D6D1AB895B063FF568
:103C20002DAF09982CE703AB2A4604A93846009328
:103C3000044B00F00BF8EDE72C570000365700005E
:103C400000000000D3470000325700002DE9FF4775
:103C50000F7E914680460C46782F9A460C9E01F1C5
:103C6000430207D8622F0AD8002F00F0DD80582FBA
:103C700000F0C38004F1420684F842703AE0A7F1F4
:103C80006303152BF6D801A151F823F0E53C0000A1
:103C9000F93C0000753C0000753C0000753C0000DC
:103CA000753C0000F93C0000753C0000753C0000CC
:103CB000753C0000753C00000F3E0000873D000091
:103CC000C73D0000753C0000753C0000313E00001F
:103CD000753C0000873D0000753C0000753C00000D
:103CE000CF3D000033681A1D1B68326004F14206A4
:103CF00084F842300123A8E031682368081D306051
:103D00001E0601D50D6803E05D06FBD5B1F9005034
:103D1000002D616878DA2D200029A16084F8430025
:103D20002DDA6D425D480A231646B5FBF3F103FB1D
:103D30001157C75D06F8017D2F460D46BB42F4D9E9
:103D4000082B0BD12368DF0708D5236961689942E6
:103D5000DEBF302306F8013C06F1FF36921B2261DC
:103D60004B4603AA21464046CDF800A000F08CFD4A
:103D700001306FD14FF0FF3004B0BDE8F08723F081
:103D800004032360CDE721683368080653F8045B19
:103D900002D4490648BFADB26F2F33603F4814BF0D
:103DA0000A230823002184F843106668002EA660C9
:103DB000BADB216821F004012160002DB4D1002E6E
:103DC000B2D11646BCE7236843F02003236078276E
:103DD0003348236884F845701F06316851F8045B46
:103DE00002D45F0648BFADB23160D90744BF43F08B
:103DF000200323601DB11023D4E72848E9E7236896
:103E000023F020032360F6E724480A23CDE7336834
:103E10002568181D616930602E061B6801D5196080
:103E200002E06806FBD5198000231646236197E758
:103E3000336800211A1D32601E686268304600F047
:103E40007FFE08B1801B606063682361002384F8F3
:103E5000433085E72369324649464046D047013022
:103E600088D023689B0714D4E068039B9842B8BFAE
:103E7000184681E70123324649464046D047013083
:103E80003FF478AF0135E36803995B1AAB42F1DC8C
:103E9000EAE7002504F11906F5E700BF3D570000E9
:103EA0004E57000038B50023064D0446084611461B
:103EB0002B6000F088FB431C02D12B6803B1236008
:103EC00038BD00BF8013002038B50023054D0446DF
:103ED00008462B60FEF71EFE431C02D12B6803B17F
:103EE000236038BD8013002010B5441E14F8010F64
:103EF00000B910BDFCF7F6F9F8E708B5FCF756FB7A
:103F0000BDE80840FCF7BAB908B500F0C9FBFFF7F7
:103F1000F4FFFCF74BFB00F0D0FB41F28830FCF7DC
:103F2000E7F9F8E700F033BA08B5FCF7D5FFFCF77E
:103F300083FABDE8084000F035BA08B500F025FA6C
:103F4000FEF7C0FEBDE80840FEF7DABD7047FCF79B
:103F50008BBE70477047704770477FB503790291F9
:103F6000ADF80430012301A90068ADF80630ADF8C2
:103F70000C20FDF7BBF8003818BF0120400007B047
:103F80005DF804FB7FB503790291ADF8043002239C
:103F900001A90068ADF80630ADF80C20FDF7A6F8D1
:103FA000003818BF0120400007B05DF804FB7FB562
:103FB0000346A8B1006898B11B7901A9ADF8043097
:103FC0000123ADF8063000230293ADF80C30FDF765
:103FD0008DF8003818BF0120400007B05DF804FBE1
:103FE0000120FAE730B100210268084653881288A0
:103FF000FCF788BB0520704737B50446A8B1456873
:10400000FFF7F0FF014668B92268138952895343CC
:104010000193EBB20093C5F30742C5F30723FCF706
:1040200091FB0146084603B030BD0521FAE7024680
:1040300058B1118A936952698089013301325B1A40
:10404000121A9BB292B2FCF75DBB05207047F0B428
:10405000C8B1C1B10E688C68A64217DA4D68CA684B
:10406000954213DA56EA050112D401680F88BC4262
:104070000EDA49888A420BDAC0E90365C0E90542D5
:10408000F0BCFFF7D4BF0520F0BC70470420FBE76D
:104090000320F9E773B50D461646044690B10C307F
:1040A00000F02FF880B10123A2680193D3B20093EE
:1040B000B1B2C2F30723A8B2C2F30742FCF742FB36
:1040C00002B070BD0520FBE70120F9E773B50D468E
:1040D00016461C4688B10C3000F013F878B1012365
:1040E0000193E3B20093C4F30742C4F30723B1B2D0
:1040F000A8B2FCF727FB02B070BD0520FBE701204A
:10410000F9E778B103688B420BDC83688B4208DBEC
:104110004368934205DCC0689042B4BF0020012090
:104120007047002070472DE9F04F85B002921A4683
:104130009DF8383004460393002800F08180A1F1F7
:104140002005EBB25E2B7DD890F82830022B1AD1D7
:104150003A291AD020291AD030398DB2238CAB429B
:1041600070D94FF0000B90465E46E369019394F8D6
:1041700025101FFA8BF399420BD8B6FA86F0400946
:1041800005B0BDE8F08FADB2E8E70A25E6E70B25FC
:10419000E4E794F82230012B05D0022B1ED0019BBE
:1041A00053F825A002E0019B13F805A04FF0000989
:1041B00094F824301FFA89F7BB4213D894F82430BE
:1041C00094F827100B449F422ADB94F823300BF11C
:1041D000010B2B449DB208F10108C8E7019B33F89D
:1041E00015A0E3E71AF0010F0FD0029B42462046CC
:1041F00003EB0901FFF74EFF0128C1D800B90136D2
:104200004FEA5A0A09F10109D2E7039B002BF7D0C4
:1042100002994246204663684944FFF757FFEBE79F
:10422000039B53B102994246204663683944FFF725
:104230004DFF0128A4D800B901360137BFB2BDE750
:1042400005209DE702209BE72DE9F74F0C46984695
:1042500005460C9F9DF834A070B369B390F82830E0
:1042600063B3C3464FF000098E18B44205D1B9FAC2
:1042700089F0400903B0BDE8F08F14F8011B0A294A
:1042800007D195F82530C3463B4495F826701F4466
:10429000EBE73B465A462846CDF800A0FFF743FF20
:1042A0000128E7D808B909F1010995F8243095F8F3
:1042B000272013449B44D8E70520DBE70220D9E7F9
:1042C00008B520B110221C3019B900F062FA05209F
:1042D00008BD00F069FA0020FAE72DE9F04704462E
:1042E000DDE90879084692461E460D469DF828806D
:1042F00000F067FA94F824100246414394F8253000
:1043000094F82600012E03440AFB03900BD0022EE2
:104310000ED00023CDE90808294620463B44BDE8DD
:10432000F047FFF791BF23681B885B1A5B08F1E732
:1043300023681B885B1AEDE770B50C4606688D187C
:10434000AC4201D1002070BD14F8011B304691FA37
:10435000A1F1090E00F0AAF8F2E7026893699B0642
:10436000FCD5704710B50468A3691B0600D410BDC6
:10437000204600F095F8F7E708B50422012311461E
:104380000320FDF76DFD002008BDFFF7F5BF08B560
:104390000422002311460320FDF762FD002008BD22
:1043A000FFF7EABF08B5082000F02BF8BDE8084089
:1043B000082000F031B8FEE74AB110B5002350F8EC
:1043C000234041F8234001339342F8D110BD704798
:1043D000002070474FF4004070474FF47A707047E8
:1043E000FEE7EFF3108072B6704700B962B670470F
:1043F000EFF31180302383F31188704780F3118825
:1044000070474FF060420123D2F8001E83400B43F7
:104410000020C2F8003E70474FF060410122D1F801
:10442000003E824023EA02030020C1F8003E7047AC
:1044300008B5FCF7E9FCBDE808400021FCF7A0BE88
:1044400002210320FDF78AB908B5FFF7F1FFBDE8A7
:104450000840FFF7F5BF10B50446FCF7C3FC002188
:10446000FCF78EFE1CB1BDE81040FDF767B910BD2A
:1044700070B5054614460E46FFF7B3FF2B685C4047
:1044800034405C402C60BDE87040FFF7AEBF704721
:104490004FF0B0435A6812B19A6A002AFAD17047B5
:1044A00083691B06FCD5406AC0B2704783695B060E
:1044B000FCD5C163704700F008B809B100F007B837
:1044C00022207047012100F043B80020704770B5EA
:1044D00006460D46FFF78CFF04461C2E35D8DFE854
:1044E00006F00F18341C1E203422243434342628BD
:1044F000342A2C2E303434343434343434343200CE
:10450000FCF756FC002628602046FFF777FF304670
:1045100070BD0120FDF790F8F4E70320FAE70420CE
:10452000F8E70C20F6E70220F4E70620F2E7072080
:10453000F0E70820EEE70520ECE70920EAE70A208B
:10454000E8E70D20E6E71020E4E700202126DAE77F
:1045500000207047FEF784B910B56FF004042046C0
:1045600005210134FEF788FA3D2CF8D110BD70B555
:104570000C46154610B9FEF7A7FA38B143682BB1BF
:104580002A462146BDE8704000681847232070BDC8
:10459000F7B50D4616461C4648B103B901AC87680D
:1045A0005FB12346324629460068B84706E0FEF769
:1045B0008BFA04B901AC0028F1D1232003B0F0BD7F
:1045C00000207047FEE74FF4005300204B60704717
:1045D0000020704707B5002001AB0190FFF7D8FF1E
:1045E0000198002808BF4FF0FF3003B05DF804FBCE
:1045F00000230B707047F0B585B00D4616461F4678
:10460000044690B10023C361FEF796FBBDF82C3041
:104610002A4602939DF828302946CDE900732046AA
:104620003346FEF7EFFA05B0F0BD2220FBE7F0B508
:1046300087B01F4600230D46164604468DF81730F6
:10464000A8B1C3610DF11701FEF7A6FB9DF8172075
:104650007AB9BDF83430294602939DF830302046AF
:10466000CDE900733346FEF7CDFA07B0F0BD222046
:10467000FBE70320F9E7002070474FF0B0439A6A48
:104680001207FCD4186A704782074FF0B04200F05E
:104690000103916948BF43F008030B4393617047DE
:1046A00008B5FBF775FEFFF73FFCFFF746FCFFF789
:1046B0004DFCBDE80840FFF74ABC08B5FFF749FCD0
:1046C000FFF748FCFFF747FCBDE80840FFF744BC94
:1046D0002DE9F8430746884614460026D4E901959B
:1046E000B9F1010905D52468002CF7D13046BDE8A1
:1046F000F883AB89012B07D9B5F90E30013303D00C
:1047000029463846C04706436835E9E710B50C46E8
:10471000B1F90E10FFF75EF80028ABBF636DA389F7
:104720001B1823F48053ACBF6365A38110BD2DE932
:10473000F0411F468B8905460C46DB05164605D51C
:1047400002230022B1F90E10FFF732F8A389324696
:10475000B4F90E10284623F48053A3813B46BDE8EC
:10476000F041FFF749B810B50C46B1F90E10FFF74C
:104770001FF8431CA38915BF606523F4805343F4DD
:104780008053A38118BFA38110BDB1F90E10FEF7AD
:10479000FFBF02440346934200D1704703F8011B58
:1047A000F9E77047704770470A44431E914200D1B1
:1047B000704710B511F8014B914203F8014FF9D140
:1047C00010BD034613F8012B002AFBD1181A01383B
:1047D00070472DE9F0471F468E6882460C46BE4260
:1047E00090460B682DD8B1F90C2012F4906F26D0AA
:1047F0006569096905EB4505A3EB01097B1C05EB20
:10480000D5754B446D109D4238BF1D46530527D5C5
:104810002946FFF79BF8064660B34A462169FFF731
:10482000C3FFA38923F4906343F08003A38126612F
:104830004E446561A5EB090526603E46A560BE4273
:1048400000D93E4632464146206800F05FF9A36831
:1048500000209B1BA360236833442360BDE8F087DE
:104860002A4600F07BF906460028E0D1216950462F
:10487000FEF7F8FF0C234FF0FF30CAF80030A38991
:1048800043F04003A381E9E72DE9F0471646984637
:104890008A6807460B690C46DDF820909342B8BF42
:1048A0001346336091F843200AB101333360236823
:1048B000990642BF336802333360256815F0060558
:1048C00006D104F1190AE36832689B1AAB422BDC6B
:1048D00094F843302268003B18BF0123920630D47D
:1048E00004F1430241463846C847013023D02368CB
:1048F0001A3454F80A2C03F00603042B0ABF54F8A8
:104900000E5C002533684FF0000608BFED1A54F81E
:10491000123C08BF25EAE5759342C4BF9B1AED1807
:10492000B5421AD1002008E00123524641463846DC
:10493000C847013003D14FF0FF30BDE8F0870135A3
:10494000C1E7E1185A1C30200233224481F84300A9
:1049500094F8451082F84310C2E7012322464146ED
:104960003846C8470130E6D00136D9E7B1F90C2006
:104970002DE9F041170705460C4656D44B68002B2D
:1049800002DC0B6C002B3DDDE66A002E3AD00023E2
:1049900012F480522F68216A2B6025D0626DA389A2
:1049A000580705D56368D21A636B0BB1236CD21A12
:1049B000216A0023E66A2846B047411C24D0002320
:1049C000636023692360A389DA0400D56065616BA5
:1049D0002F60B9B104F14403994202D02846FEF792
:1049E00041FF002363630DE001232846B047461CC6
:1049F0000246D4D12B68002BD1D01D2B01D0162B11
:104A00002AD12F6000202EE02A68B4F90C3042B180
:104A10001D2A01D0162A21D1002363602369236057
:104A2000D5E7626022692260CEE70F69002FE9D0E6
:104A300093070E680F600CBF4B690023A6EB0708B5
:104A40008B60B8F1000FDDDD43463A46216A284607
:104A5000A66AB047002808DCB4F90C3043F04003E4
:104A60004FF0FF30A381BDE8F0810744A8EB0008B8
:104A7000E7E738B50B6905460C4613B9002528460B
:104A800038BD18B1036A0BB9FEF796FDB4F90C30C6
:104A9000002BF3D0626ED00704D4990502D4A06D28
:104AA000FFF780FE28462146FFF760FF636E05464C
:104AB000DA07E4D4A3899B05E1D4A06DFFF773FE68
:104AC000DDE770B50C46B1F90E1096B01546002919
:104AD0001E460CDAA389002113F0800F14BF402377
:104AE0004FF48063002031602B6016B070BD6A46C1
:104AF000FFF7D8F90028EDDB019901F47041A1F529
:104B00000053594259414FF48063EBE7884210B596
:104B100001EB020402D98442234607D8431EA14276
:104B200008D011F8012B03F8012FF8E702440146E1
:104B30008A4200D110BD13F8014D02F8014DF7E78C
:104B4000C9B20346024410B59342184601D1002071
:104B500003E0047801338C42F6D110BD2DE9F04119
:104B6000804615460C4621B91146BDE8F041FEF7D6
:104B7000EDBE2AB9FEF776FE00242046BDE8F0819E
:104B800000F01AF88542064602D8B5EB500FF4D86B
:104B900029464046FEF7DAFE07460028ECD0B5422B
:104BA0002A46214628BF3246FFF7FEFD21464046F1
:104BB0003C46FEF757FEE0E751F8043C181F002B77
:104BC000BCBF0B58C0187047000000000000000078
:104BD00000000000000000000000000000000000D5
:104BE000F8B500BFF8BC08BC9E467047F8B500BFDA
:104BF000F8BC08BC9E46704705000000000000009D
:104C000000C20100000500000010000000000000CC
:104C1000000000000A204D65206D61792062656FFB
:104C2000203132330A0D000A204572723A20256481
:104C30000A0D00543A2025642E2530326420483A6B
:104C40002025642E253032640A0D00BE0800AC33E6
:104C5000002E2E2F6C63642F6170705F6C63642E66
:104C6000630042616F4B68616E6847616D696E6792
:104C700000543A2025642E2530326420483A2025FD
:104C8000642E2530326400506572696F643A2025C5
:104C900064206D7300000000A84C00002003016434
:104CA000060802000100000000040A0A04030606C8
:104CB00008020000000000000E040E1F081F0C1F59
:104CC0000E0E00001000010E0E0E0F0E071F1F0E1D
:104CD000110E1C110111110E0F0E0F1E1F111111BB
:104CE00011111F0E000E04000200010010000C0044
:104CF000010408010600000000000000020000009E
:104D00000000000C040600000000000000040A0A75
:104D10001E13090404040404000000001106110815
:104D20000C010210111106060800021110111111D8
:104D30000901011111040809011B111111111101BF
:104D4000041111111111100200080A0004000100E1
:104D50001000121E0100000104000000000000000D
:104D60000200000000000002040802000000000031
:104D700000040A1F010805020208150400000010C3
:104D8000190410040A0F010811110606041F04106B
:104D90001011110111010101110408050115131170
:104DA00011111101041111110A1108020108110059
:104DB000080E0D0E160E02110D060C09040B0D0E39
:104DC0000F160D0E0711111111111F020408150005
:104DD000000000000004000A0E04020002080E1F7A
:104DE000001F00081504080809100F040E1E00001B
:104DF0000200080816110F01110F0F1D1F040803F0
:104E0000011515110F110F0E04111115040A0402DA
:104E100002080000001013011911071113040805FE
:104E20000415131111191301021111110A110801AE
:104E300004100800000000000000001F1002150010
:104E40000208150406000004130404101F101102C8
:104E500011100606041F0404151F11011101011190
:104E6000110408050111191101150510041111157E
:104E70000A04020204080000001E1101111F021E94
:104E800011040803041511110F1E010E0211111552
:104E9000041E040204080000000000000000000AD4
:104EA0000F1909000404040404000602110402118D
:104EB0000811110211080604080002001511111151
:104EC0000901011111040909011111110109091048
:104ED00004110A1511040102080800000011111143
:104EE0001101021011040905041111110110011022
:104EF00012190A150A10020204080000000000003E
:104F00000004000A0418160008020000020006014E
:104F10000E0E1F0E080E0E020E06000210000104F7
:104F20000E110F0E071F010E110E06111F11110E8B
:104F30000116110F040E040A11041F0E100E001F9B
:104F4000001E0F0E1E0E020E110E06090E11110E7E
:104F50000110010F0C16040A110E1F0C04060000AC
:104F60000000000000000000000000000000000041
:104F70000000000000000000000000000000000031
:104F80000000000000000000000000000000000021
:104F90000000000000000000000000000000000011
:104FA0000000000000000000000000000000000001
:104FB00000000000000000000000000000000000F1
:104FC0000000000000000000D84F00002003016432
:104FD000080802000100000000186C6C10CE3808B0
:104FE000600C0000000000007C307C7CC6FE7CFE73
:104FF0007C7C000070001C7C7C7C7E7C7EFEFE7CC9
:10500000C63C78C606C6C67C7E7C7E7C7EC6C6C68E
:10501000C6C6FE7C007C10000C0006006000380054
:10502000060000060C000000000000000000000068
:105030000000003018188C000000000000186CFE02
:10504000FC6A2C1830186C18000000C0C638C6C6A0
:10505000C606C6C0C6C61818387C38C6C6C6C6C678
:10506000C60606C6C618306606EECEC6C6C6C6C694
:1050700018C6C6C6C6C6C00C066038000C000600BE
:1050800060000C00061830060C0000000000000054
:1050900018000000000000181830D60000000000C2
:1050A000001848FE162E2C18183038180000006022
:1050B000C63060C0C6060660C6C618181C7C70C61E
:1050C000F6C6C606C6060606C618303606FEDEC694
:1050D000C6C6C60618C6C6C66CC6600C0C606C0098
:1050E000043C3E3C7C3C3C3C3E0000660C6E3E3C3E
:1050F0003E3C363C186666C666667E18183062000E
:10510000000000000018006C7C10DC001830FE7EEF
:105110001C7E0030C6303070FE7E7E307CFC00008D
:105120000E00E070F6FE7E06C61E1EF6FE18301E4D
:1051300006D6F6C67EC67E7C18C6C6D638FC300CAF
:105140001860C6000060660666660C666618303633
:105150000CD6666666666E067C6666C63C66300C75
:105160000060000000000000000000FED0E86600C3
:105170001830387E1C7E1C18C63018C0C0C0C61837
:10518000C6C018181C7C703076C6C606C60606C691
:10519000C618303606C6E6C606B6C6C018C6C6FE6F
:1051A0006CC0180C30600000007C6606667E0C7CCB
:1051B0006618301E0CD666663E56063C186666D6E5
:1051C000187C18181830000000000000001800FEBD
:1051D0007EAC660030186C1818001C0CC6300CC66B
:1051E000C0C6C60CC6C61818387C380006C6C6C667
:1051F000C60606C6C618366606C6C6C60666C6C64D
:1052000018C66CEEC6C00C0C606000FE0066660638
:1052100066060C60661836360CC66666062606609C
:1052200018663CD63C600C181830000000000000E6
:105230000018006C10E6DC00600C00180C001C0666
:105240007C78FE7CC07C7C067C7C000C70001C3072
:105250007CC67E7C7EFE06FCC63C1CC6FEC6C67CAA
:1052600006DCC67C187C38C6C67EFE7CC07C00FE90
:10527000007C3E3C7C3C0C3E66701C6638C6663C3E
:10528000065C063E707C18FC663E7E3018180000F6
:10529000000000000000000000000000000000000E
:1052A00000000000000000000000000000000000FE
:1052B00000000000000000000000000000000000EE
:1052C00000000000000000000000000000000000DE
:1052D00000000000000000000000000000000000CE
:1052E00000000000000000000000000000000000BE
:1052F00000000000000000008000800001010000AC
:10530000E0C810003C06020000000000050000009C
:105310000000000040420F000501000000000000F6
:105320000000000000000000433A2F736176652FF3
:1053300054485F494F542F73696D706C6963697489
:10534000795F73646B5F76323032345F365F325F21
:105350003030312F706C6174666F726D2F647269BA
:105360007665722F69326373706D2F7372632F735A
:105370006C5F69326373706D2E6300633A5C7361B6
:1053800076655C74685F696F745C73696D706C6975
:10539000636974795F73646B5F76323032345F3681
:1053A0005F325F3030315C706C6174666F726D5C5F
:1053B000656D6C69625C696E635C656D5F67706981
:1053C0006F2E68007F033F1F433A2F736176652F6E
:1053D00054485F494F542F73696D706C69636974E9
:1053E000795F73646B5F76323032345F365F325F81
:1053F0003030312F706C6174666F726D2F656D6C1B
:1054000069622F7372632F656D5F636D752E630024
:10541000433A2F736176652F54485F494F542F7379
:10542000696D706C69636974795F73646B5F763200
:105430003032345F365F325F3030312F706C6174E0
:10544000666F726D2F656D6C69622F7372632F6565
:105450006D5F6770696F2E63007F033F1F433A2FB4
:10546000736176652F54485F494F542F73696D708F
:105470006C69636974795F73646B5F763230323460
:105480005F365F325F3030312F706C6174666F72DF
:105490006D2F656D6C69622F7372632F656D5F6927
:1054A00032632E630008091108433A2F7361766551
:1054B0002F54485F494F542F73696D706C6963694D
:1054C00074795F73646B5F76323032345F365F328B
:1054D0005F3030312F706C6174666F726D2F656D47
:1054E0006C69622F7372632F656D5F727463632ED4
:1054F0006300433A2F736176652F54485F494F54D8
:105500002F73696D706C69636974795F73646B5F25
:1055100076323032345F365F325F3030312F706C2C
:105520006174666F726D2F656D6C69622F73726343
:105530002F656D5F75736172742E63000126000024
:105540000400000000000000000100000000000056
:105550000B0000000B0000000200000000002020F3
:1055600000000000030000008C8C3C0000000000E4
:1055700000000000000000000000005812000000C1
:1055800000000000FFFFFFFFFFFFFFFFFFFFFFFF27
:10559000FFFFFFFFFFFFFFFF433A2F736176652F89
:1055A00054485F494F542F73696D706C6963697417
:1055B000795F73646B5F76323032345F365F325FAF
:1055C0003030312F706C6174666F726D2F7365723D
:1055D000766963652F696E746572727570745F6D3C
:1055E000616E616765722F7372632F736C5F696E92
:1055F000746572727570745F6D616E616765725FFC
:10560000636F727465786D2E6300433A2F73617611
:10561000652F54485F494F542F73696D706C6963EF
:105620006974795F73646B5F76323032345F365FF2
:10563000325F3030312F706C6174666F726D2F7312
:105640006572766963652F696F73747265616D2F1A
:105650007372632F736C5F696F73747265616D5FD2
:1056600072657461726765745F737464696F2E63C9
:1056700000433A2F736176652F54485F494F542F8A
:1056800073696D706C69636974795F73646B5F765D
:10569000323032345F365F325F3030312F706C61C0
:1056A00074666F726D2F736572766963652F736CA4
:1056B00065657074696D65722F7372632F736C5FAB
:1056C000736C65657074696D65722E63000100000E
:1056D0000005000200000300433A2F736176652F36
:1056E00054485F494F542F73696D706C69636974D6
:1056F000795F73646B5F76323032345F365F325F6E
:105700003030312F706C6174666F726D2F736572FB
:10571000766963652F7564656C61792F7372632F89
:10572000736C5F7564656C61792E6300232D302B7B
:105730002000686C4C006566674546470030313292
:1057400033343536373839414243444546003031E9
:105750003233343536373839616263646566000048
:0857600078AAFF7F01000000A0
:0C57680074570000A41B00202A00000061
:10577400008006500303020300000000DDFB050067
:10578400010000000080065000000650845500000F
:105794000200FFFF02020000C0EA2101C0EA210169
:1057A4000080000000F04902501C002000000000AE
:1057B4000300000044120020F01B00200000000041
:1057C40044120020AC12002014130020000000003A
:1057D40000000000000000000000000000000000C5
:1057E40000000000000000000000000000000000B5
:1057F40000000000000000000000000000000000A5
:105804000000000000000000FFFFFFFF1F04010173
:08581400B50100008D01000048
:0400000300000CDD10
:00000001FF
